{
  "_format": "hh-sol-artifact-1",
  "contractName": "Coinflip",
  "sourceName": "contracts/Coinflip.sol",
  "abi": [
    {
      "inputs": [
        {
          "internalType": "uint64",
          "name": "subscriptionId",
          "type": "uint64"
        },
        {
          "internalType": "address",
          "name": "vfrCoordinator_",
          "type": "address"
        },
        {
          "internalType": "uint32",
          "name": "callBackGaslimit_",
          "type": "uint32"
        },
        {
          "internalType": "bytes32",
          "name": "keyHash_",
          "type": "bytes32"
        },
        {
          "internalType": "address",
          "name": "pool_",
          "type": "address"
        }
      ],
      "stateMutability": "nonpayable",
      "type": "constructor"
    },
    {
      "inputs": [
        {
          "internalType": "address",
          "name": "have",
          "type": "address"
        },
        {
          "internalType": "address",
          "name": "want",
          "type": "address"
        }
      ],
      "name": "OnlyCoordinatorCanFulfill",
      "type": "error"
    },
    {
      "anonymous": false,
      "inputs": [
        {
          "indexed": true,
          "internalType": "uint256",
          "name": "winAmount",
          "type": "uint256"
        },
        {
          "indexed": true,
          "internalType": "address",
          "name": "userAddress",
          "type": "address"
        },
        {
          "indexed": true,
          "internalType": "uint256",
          "name": "volumeOfGame",
          "type": "uint256"
        },
        {
          "indexed": false,
          "internalType": "uint256",
          "name": "result",
          "type": "uint256"
        },
        {
          "indexed": false,
          "internalType": "uint256",
          "name": "gameNumber",
          "type": "uint256"
        }
      ],
      "name": "GameResEvent",
      "type": "event"
    },
    {
      "anonymous": false,
      "inputs": [
        {
          "indexed": true,
          "internalType": "address",
          "name": "userAddress",
          "type": "address"
        },
        {
          "indexed": true,
          "internalType": "uint256",
          "name": "volumeOfGame",
          "type": "uint256"
        },
        {
          "indexed": true,
          "internalType": "uint256",
          "name": "numOfGames",
          "type": "uint256"
        },
        {
          "indexed": false,
          "internalType": "bool",
          "name": "choise",
          "type": "bool"
        }
      ],
      "name": "GameStartEvent",
      "type": "event"
    },
    {
      "anonymous": false,
      "inputs": [
        {
          "indexed": false,
          "internalType": "uint256",
          "name": "requestId",
          "type": "uint256"
        },
        {
          "indexed": false,
          "internalType": "uint256[]",
          "name": "randomWords",
          "type": "uint256[]"
        }
      ],
      "name": "RequestFulfilled",
      "type": "event"
    },
    {
      "anonymous": false,
      "inputs": [
        {
          "indexed": false,
          "internalType": "uint256",
          "name": "requestId",
          "type": "uint256"
        },
        {
          "indexed": false,
          "internalType": "uint32",
          "name": "numWords",
          "type": "uint32"
        }
      ],
      "name": "RequestSent",
      "type": "event"
    },
    {
      "inputs": [],
      "name": "callbackGasLimit",
      "outputs": [
        {
          "internalType": "uint32",
          "name": "",
          "type": "uint32"
        }
      ],
      "stateMutability": "view",
      "type": "function"
    },
    {
      "inputs": [
        {
          "internalType": "uint256",
          "name": "newMinValue",
          "type": "uint256"
        }
      ],
      "name": "changeMinValue",
      "outputs": [],
      "stateMutability": "nonpayable",
      "type": "function"
    },
    {
      "inputs": [
        {
          "internalType": "address",
          "name": "",
          "type": "address"
        },
        {
          "internalType": "uint256",
          "name": "",
          "type": "uint256"
        }
      ],
      "name": "gamesResult",
      "outputs": [
        {
          "internalType": "uint256",
          "name": "result",
          "type": "uint256"
        },
        {
          "internalType": "uint256",
          "name": "randNumber",
          "type": "uint256"
        }
      ],
      "stateMutability": "view",
      "type": "function"
    },
    {
      "inputs": [
        {
          "internalType": "uint256",
          "name": "",
          "type": "uint256"
        }
      ],
      "name": "gamesStart",
      "outputs": [
        {
          "internalType": "address",
          "name": "player",
          "type": "address"
        },
        {
          "internalType": "uint256",
          "name": "deposit",
          "type": "uint256"
        },
        {
          "internalType": "uint256",
          "name": "numOfIterations",
          "type": "uint256"
        },
        {
          "internalType": "bool",
          "name": "choice",
          "type": "bool"
        }
      ],
      "stateMutability": "view",
      "type": "function"
    },
    {
      "inputs": [
        {
          "internalType": "address",
          "name": "player",
          "type": "address"
        },
        {
          "internalType": "uint8",
          "name": "n",
          "type": "uint8"
        }
      ],
      "name": "getLastNPlayerGames",
      "outputs": [
        {
          "components": [
            {
              "internalType": "uint256",
              "name": "result",
              "type": "uint256"
            },
            {
              "internalType": "uint256",
              "name": "randNumber",
              "type": "uint256"
            }
          ],
          "internalType": "struct Coinflip.GameRes[]",
          "name": "",
          "type": "tuple[]"
        }
      ],
      "stateMutability": "view",
      "type": "function"
    },
    {
      "inputs": [
        {
          "internalType": "address",
          "name": "player",
          "type": "address"
        }
      ],
      "name": "getLastPlayerGame",
      "outputs": [
        {
          "internalType": "uint256",
          "name": "",
          "type": "uint256"
        },
        {
          "internalType": "uint256",
          "name": "",
          "type": "uint256"
        }
      ],
      "stateMutability": "view",
      "type": "function"
    },
    {
      "inputs": [],
      "name": "getMyBalance",
      "outputs": [
        {
          "internalType": "uint256",
          "name": "",
          "type": "uint256"
        }
      ],
      "stateMutability": "view",
      "type": "function"
    },
    {
      "inputs": [
        {
          "internalType": "uint256",
          "name": "_requestId",
          "type": "uint256"
        }
      ],
      "name": "getRequestStatus",
      "outputs": [
        {
          "internalType": "bool",
          "name": "fulfilled",
          "type": "bool"
        },
        {
          "internalType": "uint256[]",
          "name": "randomWords",
          "type": "uint256[]"
        }
      ],
      "stateMutability": "view",
      "type": "function"
    },
    {
      "inputs": [],
      "name": "keyHash",
      "outputs": [
        {
          "internalType": "bytes32",
          "name": "",
          "type": "bytes32"
        }
      ],
      "stateMutability": "view",
      "type": "function"
    },
    {
      "inputs": [],
      "name": "lastRequestId",
      "outputs": [
        {
          "internalType": "uint256",
          "name": "",
          "type": "uint256"
        }
      ],
      "stateMutability": "view",
      "type": "function"
    },
    {
      "inputs": [],
      "name": "minValue",
      "outputs": [
        {
          "internalType": "uint256",
          "name": "",
          "type": "uint256"
        }
      ],
      "stateMutability": "view",
      "type": "function"
    },
    {
      "inputs": [],
      "name": "owner",
      "outputs": [
        {
          "internalType": "address",
          "name": "",
          "type": "address"
        }
      ],
      "stateMutability": "view",
      "type": "function"
    },
    {
      "inputs": [],
      "name": "pause",
      "outputs": [
        {
          "internalType": "bool",
          "name": "",
          "type": "bool"
        }
      ],
      "stateMutability": "view",
      "type": "function"
    },
    {
      "inputs": [],
      "name": "pool",
      "outputs": [
        {
          "internalType": "address",
          "name": "",
          "type": "address"
        }
      ],
      "stateMutability": "view",
      "type": "function"
    },
    {
      "inputs": [
        {
          "internalType": "uint256",
          "name": "requestId",
          "type": "uint256"
        },
        {
          "internalType": "uint256[]",
          "name": "randomWords",
          "type": "uint256[]"
        }
      ],
      "name": "rawFulfillRandomWords",
      "outputs": [],
      "stateMutability": "nonpayable",
      "type": "function"
    },
    {
      "inputs": [],
      "name": "requestConfirmations",
      "outputs": [
        {
          "internalType": "uint16",
          "name": "",
          "type": "uint16"
        }
      ],
      "stateMutability": "view",
      "type": "function"
    },
    {
      "inputs": [
        {
          "internalType": "uint256",
          "name": "",
          "type": "uint256"
        }
      ],
      "name": "requestIds",
      "outputs": [
        {
          "internalType": "uint256",
          "name": "",
          "type": "uint256"
        }
      ],
      "stateMutability": "view",
      "type": "function"
    },
    {
      "inputs": [
        {
          "internalType": "uint256",
          "name": "",
          "type": "uint256"
        }
      ],
      "name": "s_requests",
      "outputs": [
        {
          "internalType": "bool",
          "name": "fulfilled",
          "type": "bool"
        },
        {
          "internalType": "bool",
          "name": "exists",
          "type": "bool"
        }
      ],
      "stateMutability": "view",
      "type": "function"
    },
    {
      "inputs": [],
      "name": "s_subscriptionId",
      "outputs": [
        {
          "internalType": "uint64",
          "name": "",
          "type": "uint64"
        }
      ],
      "stateMutability": "view",
      "type": "function"
    },
    {
      "inputs": [
        {
          "internalType": "uint32",
          "name": "newCallbackGasLimit",
          "type": "uint32"
        }
      ],
      "name": "setCallbackGasLimit",
      "outputs": [],
      "stateMutability": "nonpayable",
      "type": "function"
    },
    {
      "inputs": [
        {
          "internalType": "bool",
          "name": "pauseState",
          "type": "bool"
        }
      ],
      "name": "setPause",
      "outputs": [],
      "stateMutability": "nonpayable",
      "type": "function"
    },
    {
      "inputs": [
        {
          "internalType": "address",
          "name": "newPool",
          "type": "address"
        }
      ],
      "name": "setPoolAddress",
      "outputs": [],
      "stateMutability": "nonpayable",
      "type": "function"
    },
    {
      "inputs": [
        {
          "internalType": "uint16",
          "name": "newRequestConfirmations",
          "type": "uint16"
        }
      ],
      "name": "setRequestConfirmations",
      "outputs": [],
      "stateMutability": "nonpayable",
      "type": "function"
    },
    {
      "inputs": [
        {
          "internalType": "uint256",
          "name": "iter",
          "type": "uint256"
        },
        {
          "internalType": "bool",
          "name": "_choice",
          "type": "bool"
        }
      ],
      "name": "startRoll",
      "outputs": [
        {
          "internalType": "uint256",
          "name": "requestId",
          "type": "uint256"
        }
      ],
      "stateMutability": "payable",
      "type": "function"
    },
    {
      "inputs": [
        {
          "internalType": "uint256",
          "name": "iter",
          "type": "uint256"
        },
        {
          "internalType": "bool",
          "name": "_choice",
          "type": "bool"
        },
        {
          "internalType": "address",
          "name": "_referal",
          "type": "address"
        }
      ],
      "name": "startRoll_and_setReferal",
      "outputs": [],
      "stateMutability": "payable",
      "type": "function"
    },
    {
      "inputs": [
        {
          "internalType": "address",
          "name": "",
          "type": "address"
        }
      ],
      "name": "totalWinsOfPlayer",
      "outputs": [
        {
          "internalType": "uint256",
          "name": "",
          "type": "uint256"
        }
      ],
      "stateMutability": "view",
      "type": "function"
    }
  ],
  "bytecode": "0x6101206040523480156200001257600080fd5b50604051620033fc380380620033fc8339818101604052810190620000389190620002e1565b838073ffffffffffffffffffffffffffffffffffffffff1660808173ffffffffffffffffffffffffffffffffffffffff16815250505033600160006101000a81548173ffffffffffffffffffffffffffffffffffffffff021916908373ffffffffffffffffffffffffffffffffffffffff16021790555081610100818152505082600960006101000a81548163ffffffff021916908363ffffffff1602179055508373ffffffffffffffffffffffffffffffffffffffff1660a08173ffffffffffffffffffffffffffffffffffffffff16815250508467ffffffffffffffff1660c08167ffffffffffffffff168152505080600260006101000a81548173ffffffffffffffffffffffffffffffffffffffff021916908373ffffffffffffffffffffffffffffffffffffffff160217905550600163ffffffff1660e08163ffffffff16815250506003600960046101000a81548161ffff021916908361ffff16021790555066038d7ea4c68000600081905550505050505062000369565b600080fd5b600067ffffffffffffffff82169050919050565b620001da81620001bb565b8114620001e657600080fd5b50565b600081519050620001fa81620001cf565b92915050565b600073ffffffffffffffffffffffffffffffffffffffff82169050919050565b60006200022d8262000200565b9050919050565b6200023f8162000220565b81146200024b57600080fd5b50565b6000815190506200025f8162000234565b92915050565b600063ffffffff82169050919050565b620002808162000265565b81146200028c57600080fd5b50565b600081519050620002a08162000275565b92915050565b6000819050919050565b620002bb81620002a6565b8114620002c757600080fd5b50565b600081519050620002db81620002b0565b92915050565b600080600080600060a086880312156200030057620002ff620001b6565b5b60006200031088828901620001e9565b955050602062000323888289016200024e565b945050604062000336888289016200028f565b93505060606200034988828901620002ca565b92505060806200035c888289016200024e565b9150509295509295909350565b60805160a05160c05160e05161010051613032620003ca600039600081816107a101526111f80152600081816108070152610bdf0152600081816107c201526113030152600061076501526000818161068d01526106e101526130326000f3fe6080604052600436106101815760003560e01c80638ac00021116100d1578063b0fb162f1161008a578063d8a4676f11610064578063d8a4676f14610595578063e9e15b4f146105d3578063fc2a88c3146105fc578063fced6e701461062757610181565b8063b0fb162f14610504578063bedb86fb1461052f578063cf1c1e6b1461055857610181565b80638ac00021146104005780638da5cb5b1461042b578063963e63c714610456578063a168fa8914610481578063a4eb718c146104bf578063b0d69303146104e857610181565b8063456cae181161013e57806361728f391161011857806361728f39146103445780638456cb591461036f5780638796ba8c1461039a5780638824f5a7146103d757610181565b8063456cae18146102b35780634c738909146102dc57806356a00b931461030757610181565b806316f0115b146101865780631fe543e3146101b157806324f74697146101da57806328416303146102055780633bb31f3a146102355780633ceb735d14610275575b600080fd5b34801561019257600080fd5b5061019b610665565b6040516101a8919061201c565b60405180910390f35b3480156101bd57600080fd5b506101d860048036038101906101d391906121da565b61068b565b005b3480156101e657600080fd5b506101ef61074b565b6040516101fc9190612255565b60405180910390f35b61021f600480360381019061021a91906122a8565b610761565b60405161022c91906122f7565b60405180910390f35b34801561024157600080fd5b5061025c60048036038101906102579190612312565b610d35565b60405161026c949392919061234e565b60405180910390f35b34801561028157600080fd5b5061029c600480360381019061029791906123bf565b610d92565b6040516102aa9291906123ec565b60405180910390f35b3480156102bf57600080fd5b506102da60048036038101906102d59190612312565b610eb8565b005b3480156102e857600080fd5b506102f1610f52565b6040516102fe91906122f7565b60405180910390f35b34801561031357600080fd5b5061032e6004803603810190610329919061244e565b610f99565b60405161033b919061257b565b60405180910390f35b34801561035057600080fd5b506103596111f6565b60405161036691906125b6565b60405180910390f35b34801561037b57600080fd5b5061038461121a565b60405161039191906125d1565b60405180910390f35b3480156103a657600080fd5b506103c160048036038101906103bc9190612312565b61122d565b6040516103ce91906122f7565b60405180910390f35b3480156103e357600080fd5b506103fe60048036038101906103f99190612626565b611251565b005b34801561040c57600080fd5b50610415611301565b6040516104229190612676565b60405180910390f35b34801561043757600080fd5b50610440611325565b60405161044d919061201c565b60405180910390f35b34801561046257600080fd5b5061046b61134b565b60405161047891906122f7565b60405180910390f35b34801561048d57600080fd5b506104a860048036038101906104a39190612312565b611351565b6040516104b6929190612691565b60405180910390f35b3480156104cb57600080fd5b506104e660048036038101906104e191906126e6565b61138f565b005b61050260048036038101906104fd9190612713565b611443565b005b34801561051057600080fd5b5061051961157c565b6040516105269190612775565b60405180910390f35b34801561053b57600080fd5b5061055660048036038101906105519190612790565b611590565b005b34801561056457600080fd5b5061057f600480360381019061057a91906123bf565b61163d565b60405161058c91906122f7565b60405180910390f35b3480156105a157600080fd5b506105bc60048036038101906105b79190612312565b611655565b6040516105ca92919061286c565b60405180910390f35b3480156105df57600080fd5b506105fa60048036038101906105f591906123bf565b611780565b005b34801561060857600080fd5b50610611611854565b60405161061e91906122f7565b60405180910390f35b34801561063357600080fd5b5061064e6004803603810190610649919061289c565b61185a565b60405161065c9291906123ec565b60405180910390f35b600260009054906101000a900473ffffffffffffffffffffffffffffffffffffffff1681565b7f000000000000000000000000000000000000000000000000000000000000000073ffffffffffffffffffffffffffffffffffffffff163373ffffffffffffffffffffffffffffffffffffffff161461073d57337f00000000000000000000000000000000000000000000000000000000000000006040517f1cf993f40000000000000000000000000000000000000000000000000000000081526004016107349291906128dc565b60405180910390fd5b610747828261189b565b5050565b600960009054906101000a900463ffffffff1681565b60007f000000000000000000000000000000000000000000000000000000000000000073ffffffffffffffffffffffffffffffffffffffff16635d3b1d307f00000000000000000000000000000000000000000000000000000000000000007f0000000000000000000000000000000000000000000000000000000000000000600960049054906101000a900461ffff16600960009054906101000a900463ffffffff167f00000000000000000000000000000000000000000000000000000000000000006040518663ffffffff1660e01b8152600401610846959493929190612905565b6020604051808303816000875af1158015610865573d6000803e3d6000fd5b505050506040513d601f19601f82011682018060405250810190610889919061296d565b9050600183148061089a5750600283145b806108a55750600583145b806108b05750600a83145b6108ef576040517f08c379a00000000000000000000000000000000000000000000000000000000081526004016108e6906129f7565b60405180910390fd5b600260149054906101000a900460ff161561093f576040517f08c379a000000000000000000000000000000000000000000000000000000000815260040161093690612a63565b60405180910390fd5b6000543411610983576040517f08c379a000000000000000000000000000000000000000000000000000000000815260040161097a90612acf565b60405180910390fd5b60646005600260009054906101000a900473ffffffffffffffffffffffffffffffffffffffff1673ffffffffffffffffffffffffffffffffffffffff16316109cb9190612b1e565b6109d59190612b8f565b3410610a16576040517f08c379a0000000000000000000000000000000000000000000000000000000008152600401610a0d90612c0c565b60405180910390fd5b6040518060600160405280600015158152602001600115158152602001600067ffffffffffffffff811115610a4e57610a4d612097565b5b604051908082528060200260200182016040528015610a7c5781602001602082028036833780820191505090505b508152506006600083815260200190815260200160002060008201518160000160006101000a81548160ff02191690831515021790555060208201518160000160016101000a81548160ff0219169083151502179055506040820151816001019080519060200190610aef929190611f57565b509050506007819080600181540180825580915050600190039060005260206000200160009091909190915055806008819055506000600260009054906101000a900473ffffffffffffffffffffffffffffffffffffffff1673ffffffffffffffffffffffffffffffffffffffff1634604051610b6b90612c5d565b60006040518083038185875af1925050503d8060008114610ba8576040519150601f19603f3d011682016040523d82523d6000602084013e610bad565b606091505b5050905080610bbb57600080fd5b7fcc58b13ad3eab50626c6a6300b1d139cd6ebb1688a7cced9461c2f7e762665ee827f0000000000000000000000000000000000000000000000000000000000000000604051610c0c929190612c72565b60405180910390a160405180608001604052803373ffffffffffffffffffffffffffffffffffffffff1681526020013481526020018581526020018415158152506004600084815260200190815260200160002060008201518160000160006101000a81548173ffffffffffffffffffffffffffffffffffffffff021916908373ffffffffffffffffffffffffffffffffffffffff160217905550602082015181600101556040820151816002015560608201518160030160006101000a81548160ff02191690831515021790555090505083343373ffffffffffffffffffffffffffffffffffffffff167faf5798f71989e7b57dacd392f4b1eba8a44c69ec127da56cf56d67ccc96f3bec86604051610d2691906125d1565b60405180910390a45092915050565b60046020528060005260406000206000915090508060000160009054906101000a900473ffffffffffffffffffffffffffffffffffffffff16908060010154908060020154908060030160009054906101000a900460ff16905084565b60008060006001600560008673ffffffffffffffffffffffffffffffffffffffff1673ffffffffffffffffffffffffffffffffffffffff16815260200190815260200160002080549050610de69190612c9b565b9050600560008573ffffffffffffffffffffffffffffffffffffffff1673ffffffffffffffffffffffffffffffffffffffff1681526020019081526020016000208181548110610e3957610e38612ccf565b5b906000526020600020906002020160000154600560008673ffffffffffffffffffffffffffffffffffffffff1673ffffffffffffffffffffffffffffffffffffffff1681526020019081526020016000208281548110610e9c57610e9b612ccf565b5b9060005260206000209060020201600101549250925050915091565b600160009054906101000a900473ffffffffffffffffffffffffffffffffffffffff1673ffffffffffffffffffffffffffffffffffffffff163373ffffffffffffffffffffffffffffffffffffffff1614610f48576040517f08c379a0000000000000000000000000000000000000000000000000000000008152600401610f3f90612d4a565b60405180910390fd5b8060008190555050565b6000600360003373ffffffffffffffffffffffffffffffffffffffff1673ffffffffffffffffffffffffffffffffffffffff16815260200190815260200160002054905090565b60608160ff16600560008573ffffffffffffffffffffffffffffffffffffffff1673ffffffffffffffffffffffffffffffffffffffff168152602001908152602001600020805490501015611023576040517f08c379a000000000000000000000000000000000000000000000000000000000815260040161101a90612db6565b60405180910390fd5b60008260ff1667ffffffffffffffff81111561104257611041612097565b5b60405190808252806020026020018201604052801561107b57816020015b611068611fa4565b8152602001906001900390816110605790505b5090506000808460ff16600560008873ffffffffffffffffffffffffffffffffffffffff1673ffffffffffffffffffffffffffffffffffffffff168152602001908152602001600020805490506110d29190612c9b565b90505b6001600560008873ffffffffffffffffffffffffffffffffffffffff1673ffffffffffffffffffffffffffffffffffffffff168152602001908152602001600020805490506111249190612c9b565b81116111ea57600560008773ffffffffffffffffffffffffffffffffffffffff1673ffffffffffffffffffffffffffffffffffffffff168152602001908152602001600020818154811061117b5761117a612ccf565b5b906000526020600020906002020160405180604001604052908160008201548152602001600182015481525050838360ff16815181106111be576111bd612ccf565b5b602002602001018190525081806111d490612dd6565b92505080806111e290612dff565b9150506110d5565b50819250505092915050565b7f000000000000000000000000000000000000000000000000000000000000000081565b600260149054906101000a900460ff1681565b6007818154811061123d57600080fd5b906000526020600020016000915090505481565b600160009054906101000a900473ffffffffffffffffffffffffffffffffffffffff1673ffffffffffffffffffffffffffffffffffffffff163373ffffffffffffffffffffffffffffffffffffffff16146112e1576040517f08c379a00000000000000000000000000000000000000000000000000000000081526004016112d890612d4a565b60405180910390fd5b80600960046101000a81548161ffff021916908361ffff16021790555050565b7f000000000000000000000000000000000000000000000000000000000000000081565b600160009054906101000a900473ffffffffffffffffffffffffffffffffffffffff1681565b60005481565b60066020528060005260406000206000915090508060000160009054906101000a900460ff16908060000160019054906101000a900460ff16905082565b600160009054906101000a900473ffffffffffffffffffffffffffffffffffffffff1673ffffffffffffffffffffffffffffffffffffffff163373ffffffffffffffffffffffffffffffffffffffff161461141f576040517f08c379a000000000000000000000000000000000000000000000000000000000815260040161141690612d4a565b60405180910390fd5b80600960006101000a81548163ffffffff021916908363ffffffff16021790555050565b6000600260009054906101000a900473ffffffffffffffffffffffffffffffffffffffff1673ffffffffffffffffffffffffffffffffffffffff1682336040516024016114919291906128dc565b6040516020818303038152906040527f17dedeb6000000000000000000000000000000000000000000000000000000007bffffffffffffffffffffffffffffffffffffffffffffffffffffffff19166020820180517bffffffffffffffffffffffffffffffffffffffffffffffffffffffff838183161783525050505060405161151b9190612ead565b6000604051808303816000865af19150503d8060008114611558576040519150601f19603f3d011682016040523d82523d6000602084013e61155d565b606091505b505090508061156b57600080fd5b6115758484610761565b5050505050565b600960049054906101000a900461ffff1681565b600160009054906101000a900473ffffffffffffffffffffffffffffffffffffffff1673ffffffffffffffffffffffffffffffffffffffff163373ffffffffffffffffffffffffffffffffffffffff1614611620576040517f08c379a000000000000000000000000000000000000000000000000000000000815260040161161790612d4a565b60405180910390fd5b80600260146101000a81548160ff02191690831515021790555050565b60036020528060005260406000206000915090505481565b600060606006600084815260200190815260200160002060000160019054906101000a900460ff166116bc576040517f08c379a00000000000000000000000000000000000000000000000000000000081526004016116b390612f10565b60405180910390fd5b6000600660008581526020019081526020016000206040518060600160405290816000820160009054906101000a900460ff161515151581526020016000820160019054906101000a900460ff161515151581526020016001820180548060200260200160405190810160405280929190818152602001828054801561176157602002820191906000526020600020905b81548152602001906001019080831161174d575b5050505050815250509050806000015181604001519250925050915091565b600160009054906101000a900473ffffffffffffffffffffffffffffffffffffffff1673ffffffffffffffffffffffffffffffffffffffff163373ffffffffffffffffffffffffffffffffffffffff1614611810576040517f08c379a000000000000000000000000000000000000000000000000000000000815260040161180790612d4a565b60405180910390fd5b80600260006101000a81548173ffffffffffffffffffffffffffffffffffffffff021916908373ffffffffffffffffffffffffffffffffffffffff16021790555050565b60085481565b6005602052816000526040600020818154811061187657600080fd5b9060005260206000209060020201600091509150508060000154908060010154905082565b6006600083815260200190815260200160002060000160019054906101000a900460ff166118fe576040517f08c379a00000000000000000000000000000000000000000000000000000000081526004016118f590612f10565b60405180910390fd5b60016006600084815260200190815260200160002060000160006101000a81548160ff02191690831515021790555080600660008481526020019081526020016000206001019080519060200190611957929190611f57565b507ffe2e2d779dba245964d4e3ef9b994be63856fd568bf7d3ca9e224755cb1bd54d8282604051611989929190612f30565b60405180910390a160008060005b6004600086815260200190815260200160002060020154811015611aaa5760006119e886600a876000815181106119d1576119d0612ccf565b5b60200260200101516119e39190612f60565b611c12565b905060008111611a3d5760046000878152602001908152602001600020600201546004600088815260200190815260200160002060010154611a2a9190612b8f565b83611a359190612f91565b925082611a4d565b8084611a499190612f91565b9350835b50600a85600081518110611a6457611a63612ccf565b5b6020026020010151611a769190612b8f565b85600081518110611a8a57611a89612ccf565b5b602002602001018181525050508080611aa290612dff565b915050611997565b506000600260009054906101000a900473ffffffffffffffffffffffffffffffffffffffff1673ffffffffffffffffffffffffffffffffffffffff166004600087815260200190815260200160002060000160009054906101000a900473ffffffffffffffffffffffffffffffffffffffff168484604051602401611b3193929190612fc5565b6040516020818303038152906040527f67df93f2000000000000000000000000000000000000000000000000000000007bffffffffffffffffffffffffffffffffffffffffffffffffffffffff19166020820180517bffffffffffffffffffffffffffffffffffffffffffffffffffffffff8381831617835250505050604051611bbb9190612ead565b6000604051808303816000865af19150503d8060008114611bf8576040519150601f19603f3d011682016040523d82523d6000602084013e611bfd565b606091505b5050905080611c0b57600080fd5b5050505050565b600080611c7a6004600086815260200190815260200160002060030160009054906101000a900460ff168460046000888152602001908152602001600020600201546004600089815260200190815260200160002060010154611c759190612b8f565b611f1b565b905060008114611d115780600360006004600088815260200190815260200160002060000160009054906101000a900473ffffffffffffffffffffffffffffffffffffffff1673ffffffffffffffffffffffffffffffffffffffff1673ffffffffffffffffffffffffffffffffffffffff1681526020019081526020016000206000828254611d099190612f91565b925050819055505b600560006004600087815260200190815260200160002060000160009054906101000a900473ffffffffffffffffffffffffffffffffffffffff1673ffffffffffffffffffffffffffffffffffffffff1673ffffffffffffffffffffffffffffffffffffffff16815260200190815260200160002060405180604001604052808381526020018581525090806001815401808255809150506001900390600052602060002090600202016000909190919091506000820151816000015560208201518160010155505060046000858152602001908152602001600020600201546004600086815260200190815260200160002060010154611e129190612b8f565b6004600086815260200190815260200160002060000160009054906101000a900473ffffffffffffffffffffffffffffffffffffffff1673ffffffffffffffffffffffffffffffffffffffff16827f53d6cf7668a6ffd2ea7469ba3b30b3d51c5abb4cc87bfb1ce50776e30db955788660056000600460008c815260200190815260200160002060000160009054906101000a900473ffffffffffffffffffffffffffffffffffffffff1673ffffffffffffffffffffffffffffffffffffffff1673ffffffffffffffffffffffffffffffffffffffff16815260200190815260200160002080549050604051611f099291906123ec565b60405180910390a48091505092915050565b600083151560048411151503611f4b57606460c383611f3a9190612b1e565b611f449190612b8f565b9050611f50565b600090505b9392505050565b828054828255906000526020600020908101928215611f93579160200282015b82811115611f92578251825591602001919060010190611f77565b5b509050611fa09190611fbe565b5090565b604051806040016040528060008152602001600081525090565b5b80821115611fd7576000816000905550600101611fbf565b5090565b600073ffffffffffffffffffffffffffffffffffffffff82169050919050565b600061200682611fdb565b9050919050565b61201681611ffb565b82525050565b6000602082019050612031600083018461200d565b92915050565b6000604051905090565b600080fd5b600080fd5b6000819050919050565b61205e8161204b565b811461206957600080fd5b50565b60008135905061207b81612055565b92915050565b600080fd5b6000601f19601f8301169050919050565b7f4e487b7100000000000000000000000000000000000000000000000000000000600052604160045260246000fd5b6120cf82612086565b810181811067ffffffffffffffff821117156120ee576120ed612097565b5b80604052505050565b6000612101612037565b905061210d82826120c6565b919050565b600067ffffffffffffffff82111561212d5761212c612097565b5b602082029050602081019050919050565b600080fd5b600061215661215184612112565b6120f7565b905080838252602082019050602084028301858111156121795761217861213e565b5b835b818110156121a2578061218e888261206c565b84526020840193505060208101905061217b565b5050509392505050565b600082601f8301126121c1576121c0612081565b5b81356121d1848260208601612143565b91505092915050565b600080604083850312156121f1576121f0612041565b5b60006121ff8582860161206c565b925050602083013567ffffffffffffffff8111156122205761221f612046565b5b61222c858286016121ac565b9150509250929050565b600063ffffffff82169050919050565b61224f81612236565b82525050565b600060208201905061226a6000830184612246565b92915050565b60008115159050919050565b61228581612270565b811461229057600080fd5b50565b6000813590506122a28161227c565b92915050565b600080604083850312156122bf576122be612041565b5b60006122cd8582860161206c565b92505060206122de85828601612293565b9150509250929050565b6122f18161204b565b82525050565b600060208201905061230c60008301846122e8565b92915050565b60006020828403121561232857612327612041565b5b60006123368482850161206c565b91505092915050565b61234881612270565b82525050565b6000608082019050612363600083018761200d565b61237060208301866122e8565b61237d60408301856122e8565b61238a606083018461233f565b95945050505050565b61239c81611ffb565b81146123a757600080fd5b50565b6000813590506123b981612393565b92915050565b6000602082840312156123d5576123d4612041565b5b60006123e3848285016123aa565b91505092915050565b600060408201905061240160008301856122e8565b61240e60208301846122e8565b9392505050565b600060ff82169050919050565b61242b81612415565b811461243657600080fd5b50565b60008135905061244881612422565b92915050565b6000806040838503121561246557612464612041565b5b6000612473858286016123aa565b925050602061248485828601612439565b9150509250929050565b600081519050919050565b600082825260208201905092915050565b6000819050602082019050919050565b6124c38161204b565b82525050565b6040820160008201516124df60008501826124ba565b5060208201516124f260208501826124ba565b50505050565b600061250483836124c9565b60408301905092915050565b6000602082019050919050565b60006125288261248e565b6125328185612499565b935061253d836124aa565b8060005b8381101561256e57815161255588826124f8565b975061256083612510565b925050600181019050612541565b5085935050505092915050565b60006020820190508181036000830152612595818461251d565b905092915050565b6000819050919050565b6125b08161259d565b82525050565b60006020820190506125cb60008301846125a7565b92915050565b60006020820190506125e6600083018461233f565b92915050565b600061ffff82169050919050565b612603816125ec565b811461260e57600080fd5b50565b600081359050612620816125fa565b92915050565b60006020828403121561263c5761263b612041565b5b600061264a84828501612611565b91505092915050565b600067ffffffffffffffff82169050919050565b61267081612653565b82525050565b600060208201905061268b6000830184612667565b92915050565b60006040820190506126a6600083018561233f565b6126b3602083018461233f565b9392505050565b6126c381612236565b81146126ce57600080fd5b50565b6000813590506126e0816126ba565b92915050565b6000602082840312156126fc576126fb612041565b5b600061270a848285016126d1565b91505092915050565b60008060006060848603121561272c5761272b612041565b5b600061273a8682870161206c565b935050602061274b86828701612293565b925050604061275c868287016123aa565b9150509250925092565b61276f816125ec565b82525050565b600060208201905061278a6000830184612766565b92915050565b6000602082840312156127a6576127a5612041565b5b60006127b484828501612293565b91505092915050565b600081519050919050565b600082825260208201905092915050565b6000819050602082019050919050565b60006127f583836124ba565b60208301905092915050565b6000602082019050919050565b6000612819826127bd565b61282381856127c8565b935061282e836127d9565b8060005b8381101561285f57815161284688826127e9565b975061285183612801565b925050600181019050612832565b5085935050505092915050565b6000604082019050612881600083018561233f565b8181036020830152612893818461280e565b90509392505050565b600080604083850312156128b3576128b2612041565b5b60006128c1858286016123aa565b92505060206128d28582860161206c565b9150509250929050565b60006040820190506128f1600083018561200d565b6128fe602083018461200d565b9392505050565b600060a08201905061291a60008301886125a7565b6129276020830187612667565b6129346040830186612766565b6129416060830185612246565b61294e6080830184612246565b9695505050505050565b60008151905061296781612055565b92915050565b60006020828403121561298357612982612041565b5b600061299184828501612958565b91505092915050565b600082825260208201905092915050565b7f69746572206f7574206f66206c696d6974000000000000000000000000000000600082015250565b60006129e160118361299a565b91506129ec826129ab565b602082019050919050565b60006020820190508181036000830152612a10816129d4565b9050919050565b7f636f6e7472616374206973207061757365640000000000000000000000000000600082015250565b6000612a4d60128361299a565b9150612a5882612a17565b602082019050919050565b60006020820190508181036000830152612a7c81612a40565b9050919050565b7f6465706f73697420697320746f6f206c6f770000000000000000000000000000600082015250565b6000612ab960128361299a565b9150612ac482612a83565b602082019050919050565b60006020820190508181036000830152612ae881612aac565b9050919050565b7f4e487b7100000000000000000000000000000000000000000000000000000000600052601160045260246000fd5b6000612b298261204b565b9150612b348361204b565b9250828202612b428161204b565b91508282048414831517612b5957612b58612aef565b5b5092915050565b7f4e487b7100000000000000000000000000000000000000000000000000000000600052601260045260246000fd5b6000612b9a8261204b565b9150612ba58361204b565b925082612bb557612bb4612b60565b5b828204905092915050565b7f6465706f73697420697320746f6f206869676800000000000000000000000000600082015250565b6000612bf660138361299a565b9150612c0182612bc0565b602082019050919050565b60006020820190508181036000830152612c2581612be9565b9050919050565b600081905092915050565b50565b6000612c47600083612c2c565b9150612c5282612c37565b600082019050919050565b6000612c6882612c3a565b9150819050919050565b6000604082019050612c8760008301856122e8565b612c946020830184612246565b9392505050565b6000612ca68261204b565b9150612cb18361204b565b9250828203905081811115612cc957612cc8612aef565b5b92915050565b7f4e487b7100000000000000000000000000000000000000000000000000000000600052603260045260246000fd5b7f6f6e6c79206f776e657200000000000000000000000000000000000000000000600082015250565b6000612d34600a8361299a565b9150612d3f82612cfe565b602082019050919050565b60006020820190508181036000830152612d6381612d27565b9050919050565b7f4f7574206f66206c696d69747300000000000000000000000000000000000000600082015250565b6000612da0600d8361299a565b9150612dab82612d6a565b602082019050919050565b60006020820190508181036000830152612dcf81612d93565b9050919050565b6000612de182612415565b915060ff8203612df457612df3612aef565b5b600182019050919050565b6000612e0a8261204b565b91507fffffffffffffffffffffffffffffffffffffffffffffffffffffffffffffffff8203612e3c57612e3b612aef565b5b600182019050919050565b600081519050919050565b60005b83811015612e70578082015181840152602081019050612e55565b60008484015250505050565b6000612e8782612e47565b612e918185612c2c565b9350612ea1818560208601612e52565b80840191505092915050565b6000612eb98284612e7c565b915081905092915050565b7f72657175657374206e6f7420666f756e64000000000000000000000000000000600082015250565b6000612efa60118361299a565b9150612f0582612ec4565b602082019050919050565b60006020820190508181036000830152612f2981612eed565b9050919050565b6000604082019050612f4560008301856122e8565b8181036020830152612f57818461280e565b90509392505050565b6000612f6b8261204b565b9150612f768361204b565b925082612f8657612f85612b60565b5b828206905092915050565b6000612f9c8261204b565b9150612fa78361204b565b9250828201905080821115612fbf57612fbe612aef565b5b92915050565b6000606082019050612fda600083018661200d565b612fe760208301856122e8565b612ff460408301846122e8565b94935050505056fea264697066735822122073587dd2c2b165c95bd0405115324cb4f1442dca1a05b2db8eec8117f1a8509d64736f6c63430008110033",
  "linkReferences": {},
  "deployedLinkReferences": {}
}