{
  "_format": "hh-sol-artifact-1",
  "contractName": "Coinflip",
  "sourceName": "contracts/Coinflip.sol",
  "abi": [
    {
      "inputs": [
        {
          "internalType": "uint64",
          "name": "subscriptionId",
          "type": "uint64"
        },
        {
          "internalType": "address",
          "name": "vfrCoordinator_",
          "type": "address"
        },
        {
          "internalType": "uint32",
          "name": "callBackGaslimit_",
          "type": "uint32"
        },
        {
          "internalType": "bytes32",
          "name": "keyHash_",
          "type": "bytes32"
        },
        {
          "internalType": "address",
          "name": "pool_",
          "type": "address"
        }
      ],
      "stateMutability": "nonpayable",
      "type": "constructor"
    },
    {
      "inputs": [
        {
          "internalType": "address",
          "name": "have",
          "type": "address"
        },
        {
          "internalType": "address",
          "name": "want",
          "type": "address"
        }
      ],
      "name": "OnlyCoordinatorCanFulfill",
      "type": "error"
    },
    {
      "anonymous": false,
      "inputs": [
        {
          "indexed": true,
          "internalType": "uint256",
          "name": "winAmount",
          "type": "uint256"
        },
        {
          "indexed": true,
          "internalType": "address",
          "name": "userAddress",
          "type": "address"
        },
        {
          "indexed": false,
          "internalType": "uint256",
          "name": "result",
          "type": "uint256"
        },
        {
          "indexed": false,
          "internalType": "uint256",
          "name": "gameNumber",
          "type": "uint256"
        }
      ],
      "name": "GameResEvent",
      "type": "event"
    },
    {
      "anonymous": false,
      "inputs": [
        {
          "indexed": true,
          "internalType": "address",
          "name": "userAddress",
          "type": "address"
        },
        {
          "indexed": true,
          "internalType": "uint256",
          "name": "volumeOfGame",
          "type": "uint256"
        },
        {
          "indexed": true,
          "internalType": "uint256",
          "name": "numOfGames",
          "type": "uint256"
        },
        {
          "indexed": false,
          "internalType": "bool",
          "name": "choise",
          "type": "bool"
        }
      ],
      "name": "GameStartEvent",
      "type": "event"
    },
    {
      "anonymous": false,
      "inputs": [
        {
          "indexed": false,
          "internalType": "uint256",
          "name": "requestId",
          "type": "uint256"
        },
        {
          "indexed": false,
          "internalType": "uint256[]",
          "name": "randomWords",
          "type": "uint256[]"
        }
      ],
      "name": "RequestFulfilled",
      "type": "event"
    },
    {
      "anonymous": false,
      "inputs": [
        {
          "indexed": false,
          "internalType": "uint256",
          "name": "requestId",
          "type": "uint256"
        },
        {
          "indexed": false,
          "internalType": "uint32",
          "name": "numWords",
          "type": "uint32"
        }
      ],
      "name": "RequestSent",
      "type": "event"
    },
    {
      "inputs": [],
      "name": "callbackGasLimit",
      "outputs": [
        {
          "internalType": "uint32",
          "name": "",
          "type": "uint32"
        }
      ],
      "stateMutability": "view",
      "type": "function"
    },
    {
      "inputs": [
        {
          "internalType": "uint256",
          "name": "newMinValue",
          "type": "uint256"
        }
      ],
      "name": "changeMinValue",
      "outputs": [],
      "stateMutability": "nonpayable",
      "type": "function"
    },
    {
      "inputs": [
        {
          "internalType": "address",
          "name": "",
          "type": "address"
        },
        {
          "internalType": "uint256",
          "name": "",
          "type": "uint256"
        }
      ],
      "name": "gamesResult",
      "outputs": [
        {
          "internalType": "uint256",
          "name": "result",
          "type": "uint256"
        },
        {
          "internalType": "uint256",
          "name": "randNumber",
          "type": "uint256"
        }
      ],
      "stateMutability": "view",
      "type": "function"
    },
    {
      "inputs": [
        {
          "internalType": "uint256",
          "name": "",
          "type": "uint256"
        }
      ],
      "name": "gamesStart",
      "outputs": [
        {
          "internalType": "address",
          "name": "player",
          "type": "address"
        },
        {
          "internalType": "uint256",
          "name": "deposit",
          "type": "uint256"
        },
        {
          "internalType": "uint256",
          "name": "numOfIterations",
          "type": "uint256"
        },
        {
          "internalType": "bool",
          "name": "choice",
          "type": "bool"
        }
      ],
      "stateMutability": "view",
      "type": "function"
    },
    {
      "inputs": [
        {
          "internalType": "address",
          "name": "player",
          "type": "address"
        },
        {
          "internalType": "uint8",
          "name": "n",
          "type": "uint8"
        }
      ],
      "name": "getLastNPlayerGames",
      "outputs": [
        {
          "components": [
            {
              "internalType": "uint256",
              "name": "result",
              "type": "uint256"
            },
            {
              "internalType": "uint256",
              "name": "randNumber",
              "type": "uint256"
            }
          ],
          "internalType": "struct Coinflip.GameRes[]",
          "name": "",
          "type": "tuple[]"
        }
      ],
      "stateMutability": "view",
      "type": "function"
    },
    {
      "inputs": [
        {
          "internalType": "address",
          "name": "player",
          "type": "address"
        }
      ],
      "name": "getLastPlayerGame",
      "outputs": [
        {
          "internalType": "uint256",
          "name": "",
          "type": "uint256"
        },
        {
          "internalType": "uint256",
          "name": "",
          "type": "uint256"
        }
      ],
      "stateMutability": "view",
      "type": "function"
    },
    {
      "inputs": [],
      "name": "getMyBalance",
      "outputs": [
        {
          "internalType": "uint256",
          "name": "",
          "type": "uint256"
        }
      ],
      "stateMutability": "view",
      "type": "function"
    },
    {
      "inputs": [
        {
          "internalType": "uint256",
          "name": "_requestId",
          "type": "uint256"
        }
      ],
      "name": "getRequestStatus",
      "outputs": [
        {
          "internalType": "bool",
          "name": "fulfilled",
          "type": "bool"
        },
        {
          "internalType": "uint256[]",
          "name": "randomWords",
          "type": "uint256[]"
        }
      ],
      "stateMutability": "view",
      "type": "function"
    },
    {
      "inputs": [],
      "name": "keyHash",
      "outputs": [
        {
          "internalType": "bytes32",
          "name": "",
          "type": "bytes32"
        }
      ],
      "stateMutability": "view",
      "type": "function"
    },
    {
      "inputs": [],
      "name": "lastRequestId",
      "outputs": [
        {
          "internalType": "uint256",
          "name": "",
          "type": "uint256"
        }
      ],
      "stateMutability": "view",
      "type": "function"
    },
    {
      "inputs": [],
      "name": "minValue",
      "outputs": [
        {
          "internalType": "uint256",
          "name": "",
          "type": "uint256"
        }
      ],
      "stateMutability": "view",
      "type": "function"
    },
    {
      "inputs": [],
      "name": "owner",
      "outputs": [
        {
          "internalType": "address",
          "name": "",
          "type": "address"
        }
      ],
      "stateMutability": "view",
      "type": "function"
    },
    {
      "inputs": [],
      "name": "pause",
      "outputs": [
        {
          "internalType": "bool",
          "name": "",
          "type": "bool"
        }
      ],
      "stateMutability": "view",
      "type": "function"
    },
    {
      "inputs": [],
      "name": "pool",
      "outputs": [
        {
          "internalType": "address",
          "name": "",
          "type": "address"
        }
      ],
      "stateMutability": "view",
      "type": "function"
    },
    {
      "inputs": [
        {
          "internalType": "uint256",
          "name": "requestId",
          "type": "uint256"
        },
        {
          "internalType": "uint256[]",
          "name": "randomWords",
          "type": "uint256[]"
        }
      ],
      "name": "rawFulfillRandomWords",
      "outputs": [],
      "stateMutability": "nonpayable",
      "type": "function"
    },
    {
      "inputs": [
        {
          "internalType": "uint256",
          "name": "",
          "type": "uint256"
        }
      ],
      "name": "requestIds",
      "outputs": [
        {
          "internalType": "uint256",
          "name": "",
          "type": "uint256"
        }
      ],
      "stateMutability": "view",
      "type": "function"
    },
    {
      "inputs": [
        {
          "internalType": "uint256",
          "name": "",
          "type": "uint256"
        }
      ],
      "name": "s_requests",
      "outputs": [
        {
          "internalType": "bool",
          "name": "fulfilled",
          "type": "bool"
        },
        {
          "internalType": "bool",
          "name": "exists",
          "type": "bool"
        }
      ],
      "stateMutability": "view",
      "type": "function"
    },
    {
      "inputs": [],
      "name": "s_subscriptionId",
      "outputs": [
        {
          "internalType": "uint64",
          "name": "",
          "type": "uint64"
        }
      ],
      "stateMutability": "view",
      "type": "function"
    },
    {
      "inputs": [
        {
          "internalType": "uint32",
          "name": "newCallbackGasLimit",
          "type": "uint32"
        }
      ],
      "name": "setCallbackGasLimit",
      "outputs": [],
      "stateMutability": "nonpayable",
      "type": "function"
    },
    {
      "inputs": [
        {
          "internalType": "bool",
          "name": "pauseState",
          "type": "bool"
        }
      ],
      "name": "setPause",
      "outputs": [],
      "stateMutability": "nonpayable",
      "type": "function"
    },
    {
      "inputs": [
        {
          "internalType": "address",
          "name": "newPool",
          "type": "address"
        }
      ],
      "name": "setPoolAddress",
      "outputs": [],
      "stateMutability": "nonpayable",
      "type": "function"
    },
    {
      "inputs": [
        {
          "internalType": "uint16",
          "name": "newRequestConfirmations",
          "type": "uint16"
        }
      ],
      "name": "setRequestConfirmations",
      "outputs": [],
      "stateMutability": "nonpayable",
      "type": "function"
    },
    {
      "inputs": [
        {
          "internalType": "uint256",
          "name": "iter",
          "type": "uint256"
        },
        {
          "internalType": "bool",
          "name": "_choice",
          "type": "bool"
        }
      ],
      "name": "startRoll",
      "outputs": [
        {
          "internalType": "uint256",
          "name": "requestId",
          "type": "uint256"
        }
      ],
      "stateMutability": "payable",
      "type": "function"
    },
    {
      "inputs": [
        {
          "internalType": "uint256",
          "name": "iter",
          "type": "uint256"
        },
        {
          "internalType": "bool",
          "name": "_choice",
          "type": "bool"
        },
        {
          "internalType": "address",
          "name": "_referal",
          "type": "address"
        }
      ],
      "name": "startRoll_and_setReferal",
      "outputs": [],
      "stateMutability": "payable",
      "type": "function"
    },
    {
      "inputs": [],
      "name": "sumPlayersMoney",
      "outputs": [
        {
          "internalType": "uint256",
          "name": "",
          "type": "uint256"
        }
      ],
      "stateMutability": "view",
      "type": "function"
    },
    {
      "inputs": [
        {
          "internalType": "address",
          "name": "",
          "type": "address"
        }
      ],
      "name": "totalWinsOfPlayer",
      "outputs": [
        {
          "internalType": "uint256",
          "name": "",
          "type": "uint256"
        }
      ],
      "stateMutability": "view",
      "type": "function"
    }
  ],
  "bytecode": "0x60a06040523480156200001157600080fd5b506040516200348838038062003488833981810160405281019062000037919062000346565b838073ffffffffffffffffffffffffffffffffffffffff1660808173ffffffffffffffffffffffffffffffffffffffff16815250505033600260006101000a81548173ffffffffffffffffffffffffffffffffffffffff021916908373ffffffffffffffffffffffffffffffffffffffff16021790555081600d8190555082600b601c6101000a81548163ffffffff021916908363ffffffff16021790555083600860006101000a81548173ffffffffffffffffffffffffffffffffffffffff021916908373ffffffffffffffffffffffffffffffffffffffff16021790555084600b60006101000a81548167ffffffffffffffff021916908367ffffffffffffffff16021790555083600b60086101000a81548173ffffffffffffffffffffffffffffffffffffffff021916908373ffffffffffffffffffffffffffffffffffffffff16021790555080600360006101000a81548173ffffffffffffffffffffffffffffffffffffffff021916908373ffffffffffffffffffffffffffffffffffffffff1602179055506001600c60026101000a81548163ffffffff021916908363ffffffff1602179055506003600c60006101000a81548161ffff021916908361ffff16021790555066038d7ea4c680006000819055505050505050620003ce565b600080fd5b600067ffffffffffffffff82169050919050565b6200023f8162000220565b81146200024b57600080fd5b50565b6000815190506200025f8162000234565b92915050565b600073ffffffffffffffffffffffffffffffffffffffff82169050919050565b6000620002928262000265565b9050919050565b620002a48162000285565b8114620002b057600080fd5b50565b600081519050620002c48162000299565b92915050565b600063ffffffff82169050919050565b620002e581620002ca565b8114620002f157600080fd5b50565b6000815190506200030581620002da565b92915050565b6000819050919050565b62000320816200030b565b81146200032c57600080fd5b50565b600081519050620003408162000315565b92915050565b600080600080600060a086880312156200036557620003646200021b565b5b600062000375888289016200024e565b95505060206200038888828901620002b3565b94505060406200039b88828901620002f4565b9350506060620003ae888289016200032f565b9250506080620003c188828901620002b3565b9150509295509295909350565b608051613097620003f16000396000818161068d01526106e101526130976000f3fe6080604052600436106101815760003560e01c80638ac00021116100d1578063ba989c3e1161008a578063d8a4676f11610064578063d8a4676f14610595578063e9e15b4f146105d3578063fc2a88c3146105fc578063fced6e701461062757610181565b8063ba989c3e14610504578063bedb86fb1461052f578063cf1c1e6b1461055857610181565b80638ac00021146104005780638da5cb5b1461042b578063963e63c714610456578063a168fa8914610481578063a4eb718c146104bf578063b0d69303146104e857610181565b8063456cae181161013e57806361728f391161011857806361728f39146103445780638456cb591461036f5780638796ba8c1461039a5780638824f5a7146103d757610181565b8063456cae18146102b35780634c738909146102dc57806356a00b931461030757610181565b806316f0115b146101865780631fe543e3146101b157806324f74697146101da57806328416303146102055780633bb31f3a146102355780633ceb735d14610275575b600080fd5b34801561019257600080fd5b5061019b610665565b6040516101a89190611feb565b60405180910390f35b3480156101bd57600080fd5b506101d860048036038101906101d391906121a9565b61068b565b005b3480156101e657600080fd5b506101ef61074b565b6040516101fc9190612224565b60405180910390f35b61021f600480360381019061021a9190612277565b610761565b60405161022c91906122c6565b60405180910390f35b34801561024157600080fd5b5061025c600480360381019061025791906122e1565b610d02565b60405161026c949392919061231d565b60405180910390f35b34801561028157600080fd5b5061029c6004803603810190610297919061238e565b610d5f565b6040516102aa9291906123bb565b60405180910390f35b3480156102bf57600080fd5b506102da60048036038101906102d591906122e1565b610e85565b005b3480156102e857600080fd5b506102f1610f1f565b6040516102fe91906122c6565b60405180910390f35b34801561031357600080fd5b5061032e6004803603810190610329919061241d565b610f66565b60405161033b919061254a565b60405180910390f35b34801561035057600080fd5b506103596111c3565b6040516103669190612585565b60405180910390f35b34801561037b57600080fd5b506103846111c9565b60405161039191906125a0565b60405180910390f35b3480156103a657600080fd5b506103c160048036038101906103bc91906122e1565b6111dc565b6040516103ce91906122c6565b60405180910390f35b3480156103e357600080fd5b506103fe60048036038101906103f991906125f5565b611200565b005b34801561040c57600080fd5b506104156112b0565b6040516104229190612645565b60405180910390f35b34801561043757600080fd5b506104406112ca565b60405161044d9190611feb565b60405180910390f35b34801561046257600080fd5b5061046b6112f0565b60405161047891906122c6565b60405180910390f35b34801561048d57600080fd5b506104a860048036038101906104a391906122e1565b6112f6565b6040516104b6929190612660565b60405180910390f35b3480156104cb57600080fd5b506104e660048036038101906104e191906126b5565b611334565b005b61050260048036038101906104fd91906126e2565b6113e8565b005b34801561051057600080fd5b50610519611521565b60405161052691906122c6565b60405180910390f35b34801561053b57600080fd5b5061055660048036038101906105519190612735565b611527565b005b34801561056457600080fd5b5061057f600480360381019061057a919061238e565b6115d4565b60405161058c91906122c6565b60405180910390f35b3480156105a157600080fd5b506105bc60048036038101906105b791906122e1565b6115ec565b6040516105ca929190612811565b60405180910390f35b3480156105df57600080fd5b506105fa60048036038101906105f5919061238e565b611717565b005b34801561060857600080fd5b506106116117eb565b60405161061e91906122c6565b60405180910390f35b34801561063357600080fd5b5061064e60048036038101906106499190612841565b6117f1565b60405161065c9291906123bb565b60405180910390f35b600360009054906101000a900473ffffffffffffffffffffffffffffffffffffffff1681565b7f000000000000000000000000000000000000000000000000000000000000000073ffffffffffffffffffffffffffffffffffffffff163373ffffffffffffffffffffffffffffffffffffffff161461073d57337f00000000000000000000000000000000000000000000000000000000000000006040517f1cf993f4000000000000000000000000000000000000000000000000000000008152600401610734929190612881565b60405180910390fd5b6107478282611832565b5050565b600b601c9054906101000a900463ffffffff1681565b6000600860009054906101000a900473ffffffffffffffffffffffffffffffffffffffff1673ffffffffffffffffffffffffffffffffffffffff16635d3b1d30600d54600b60009054906101000a900467ffffffffffffffff16600c60009054906101000a900461ffff16600b601c9054906101000a900463ffffffff16600c60029054906101000a900463ffffffff166040518663ffffffff1660e01b81526004016108129594939291906128b9565b602060405180830381600087803b15801561082c57600080fd5b505af1158015610840573d6000803e3d6000fd5b505050506040513d601f19601f820116820180604052508101906108649190612921565b905060018314806108755750600283145b806108805750600583145b8061088b5750600a83145b6108ca576040517f08c379a00000000000000000000000000000000000000000000000000000000081526004016108c1906129ab565b60405180910390fd5b600360149054906101000a900460ff161561091a576040517f08c379a000000000000000000000000000000000000000000000000000000000815260040161091190612a17565b60405180910390fd5b600054341161095e576040517f08c379a000000000000000000000000000000000000000000000000000000000815260040161095590612a83565b60405180910390fd5b60056064600360009054906101000a900473ffffffffffffffffffffffffffffffffffffffff1673ffffffffffffffffffffffffffffffffffffffff16316109a69190612b01565b6109b09190612b32565b34106109f1576040517f08c379a00000000000000000000000000000000000000000000000000000000081526004016109e890612bd8565b60405180910390fd5b6040518060600160405280600015158152602001600115158152602001600067ffffffffffffffff811115610a2957610a28612066565b5b604051908082528060200260200182016040528015610a575781602001602082028036833780820191505090505b508152506007600083815260200190815260200160002060008201518160000160006101000a81548160ff02191690831515021790555060208201518160000160016101000a81548160ff0219169083151502179055506040820151816001019080519060200190610aca929190611f26565b50905050600981908060018154018082558091505060019003906000526020600020016000909190919091505580600a819055506000600360009054906101000a900473ffffffffffffffffffffffffffffffffffffffff1673ffffffffffffffffffffffffffffffffffffffff1634604051610b4690612c29565b60006040518083038185875af1925050503d8060008114610b83576040519150601f19603f3d011682016040523d82523d6000602084013e610b88565b606091505b5050905080610b9657600080fd5b7fcc58b13ad3eab50626c6a6300b1d139cd6ebb1688a7cced9461c2f7e762665ee82600c60029054906101000a900463ffffffff16604051610bd9929190612c3e565b60405180910390a160405180608001604052803373ffffffffffffffffffffffffffffffffffffffff1681526020013481526020018581526020018415158152506005600084815260200190815260200160002060008201518160000160006101000a81548173ffffffffffffffffffffffffffffffffffffffff021916908373ffffffffffffffffffffffffffffffffffffffff160217905550602082015181600101556040820151816002015560608201518160030160006101000a81548160ff02191690831515021790555090505083343373ffffffffffffffffffffffffffffffffffffffff167faf5798f71989e7b57dacd392f4b1eba8a44c69ec127da56cf56d67ccc96f3bec86604051610cf391906125a0565b60405180910390a45092915050565b60056020528060005260406000206000915090508060000160009054906101000a900473ffffffffffffffffffffffffffffffffffffffff16908060010154908060020154908060030160009054906101000a900460ff16905084565b60008060006001600660008673ffffffffffffffffffffffffffffffffffffffff1673ffffffffffffffffffffffffffffffffffffffff16815260200190815260200160002080549050610db39190612c67565b9050600660008573ffffffffffffffffffffffffffffffffffffffff1673ffffffffffffffffffffffffffffffffffffffff1681526020019081526020016000208181548110610e0657610e05612c9b565b5b906000526020600020906002020160000154600660008673ffffffffffffffffffffffffffffffffffffffff1673ffffffffffffffffffffffffffffffffffffffff1681526020019081526020016000208281548110610e6957610e68612c9b565b5b9060005260206000209060020201600101549250925050915091565b600260009054906101000a900473ffffffffffffffffffffffffffffffffffffffff1673ffffffffffffffffffffffffffffffffffffffff163373ffffffffffffffffffffffffffffffffffffffff1614610f15576040517f08c379a0000000000000000000000000000000000000000000000000000000008152600401610f0c90612d16565b60405180910390fd5b8060008190555050565b6000600460003373ffffffffffffffffffffffffffffffffffffffff1673ffffffffffffffffffffffffffffffffffffffff16815260200190815260200160002054905090565b60608160ff16600660008573ffffffffffffffffffffffffffffffffffffffff1673ffffffffffffffffffffffffffffffffffffffff168152602001908152602001600020805490501015610ff0576040517f08c379a0000000000000000000000000000000000000000000000000000000008152600401610fe790612d82565b60405180910390fd5b60008260ff1667ffffffffffffffff81111561100f5761100e612066565b5b60405190808252806020026020018201604052801561104857816020015b611035611f73565b81526020019060019003908161102d5790505b5090506000808460ff16600660008873ffffffffffffffffffffffffffffffffffffffff1673ffffffffffffffffffffffffffffffffffffffff1681526020019081526020016000208054905061109f9190612c67565b90505b6001600660008873ffffffffffffffffffffffffffffffffffffffff1673ffffffffffffffffffffffffffffffffffffffff168152602001908152602001600020805490506110f19190612c67565b81116111b757600660008773ffffffffffffffffffffffffffffffffffffffff1673ffffffffffffffffffffffffffffffffffffffff168152602001908152602001600020818154811061114857611147612c9b565b5b906000526020600020906002020160405180604001604052908160008201548152602001600182015481525050838360ff168151811061118b5761118a612c9b565b5b602002602001018190525081806111a190612da2565b92505080806111af90612dcc565b9150506110a2565b50819250505092915050565b600d5481565b600360149054906101000a900460ff1681565b600981815481106111ec57600080fd5b906000526020600020016000915090505481565b600260009054906101000a900473ffffffffffffffffffffffffffffffffffffffff1673ffffffffffffffffffffffffffffffffffffffff163373ffffffffffffffffffffffffffffffffffffffff1614611290576040517f08c379a000000000000000000000000000000000000000000000000000000000815260040161128790612d16565b60405180910390fd5b80600c60006101000a81548161ffff021916908361ffff16021790555050565b600b60009054906101000a900467ffffffffffffffff1681565b600260009054906101000a900473ffffffffffffffffffffffffffffffffffffffff1681565b60005481565b60076020528060005260406000206000915090508060000160009054906101000a900460ff16908060000160019054906101000a900460ff16905082565b600260009054906101000a900473ffffffffffffffffffffffffffffffffffffffff1673ffffffffffffffffffffffffffffffffffffffff163373ffffffffffffffffffffffffffffffffffffffff16146113c4576040517f08c379a00000000000000000000000000000000000000000000000000000000081526004016113bb90612d16565b60405180910390fd5b80600b601c6101000a81548163ffffffff021916908363ffffffff16021790555050565b6000600360009054906101000a900473ffffffffffffffffffffffffffffffffffffffff1673ffffffffffffffffffffffffffffffffffffffff168233604051602401611436929190612881565b6040516020818303038152906040527f17dedeb6000000000000000000000000000000000000000000000000000000007bffffffffffffffffffffffffffffffffffffffffffffffffffffffff19166020820180517bffffffffffffffffffffffffffffffffffffffffffffffffffffffff83818316178352505050506040516114c09190612e84565b6000604051808303816000865af19150503d80600081146114fd576040519150601f19603f3d011682016040523d82523d6000602084013e611502565b606091505b505090508061151057600080fd5b61151a8484610761565b5050505050565b60015481565b600260009054906101000a900473ffffffffffffffffffffffffffffffffffffffff1673ffffffffffffffffffffffffffffffffffffffff163373ffffffffffffffffffffffffffffffffffffffff16146115b7576040517f08c379a00000000000000000000000000000000000000000000000000000000081526004016115ae90612d16565b60405180910390fd5b80600360146101000a81548160ff02191690831515021790555050565b60046020528060005260406000206000915090505481565b600060606007600084815260200190815260200160002060000160019054906101000a900460ff16611653576040517f08c379a000000000000000000000000000000000000000000000000000000000815260040161164a90612ee7565b60405180910390fd5b6000600760008581526020019081526020016000206040518060600160405290816000820160009054906101000a900460ff161515151581526020016000820160019054906101000a900460ff16151515158152602001600182018054806020026020016040519081016040528092919081815260200182805480156116f857602002820191906000526020600020905b8154815260200190600101908083116116e4575b5050505050815250509050806000015181604001519250925050915091565b600260009054906101000a900473ffffffffffffffffffffffffffffffffffffffff1673ffffffffffffffffffffffffffffffffffffffff163373ffffffffffffffffffffffffffffffffffffffff16146117a7576040517f08c379a000000000000000000000000000000000000000000000000000000000815260040161179e90612d16565b60405180910390fd5b80600360006101000a81548173ffffffffffffffffffffffffffffffffffffffff021916908373ffffffffffffffffffffffffffffffffffffffff16021790555050565b600a5481565b6006602052816000526040600020818154811061180d57600080fd5b9060005260206000209060020201600091509150508060000154908060010154905082565b3373ffffffffffffffffffffffffffffffffffffffff16600b60089054906101000a900473ffffffffffffffffffffffffffffffffffffffff1673ffffffffffffffffffffffffffffffffffffffff16146118c2576040517f08c379a00000000000000000000000000000000000000000000000000000000081526004016118b990612f53565b60405180910390fd5b6007600083815260200190815260200160002060000160019054906101000a900460ff16611925576040517f08c379a000000000000000000000000000000000000000000000000000000000815260040161191c90612ee7565b60405180910390fd5b60016007600084815260200190815260200160002060000160006101000a81548160ff0219169083151502179055508060076000848152602001908152602001600020600101908051906020019061197e929190611f26565b507ffe2e2d779dba245964d4e3ef9b994be63856fd568bf7d3ca9e224755cb1bd54d82826040516119b0929190612f73565b60405180910390a160008060005b6005600086815260200190815260200160002060020154811015611ab0576000611a0f86600a876000815181106119f8576119f7612c9b565b5b6020026020010151611a0a9190612fa3565b611c18565b905060008111611a4357600560008781526020019081526020016000206001015483611a3b9190612fd4565b925082611a53565b8084611a4f9190612fd4565b9350835b50600a85600081518110611a6a57611a69612c9b565b5b6020026020010151611a7c9190612b01565b85600081518110611a9057611a8f612c9b565b5b602002602001018181525050508080611aa890612dcc565b9150506119be565b506000600360009054906101000a900473ffffffffffffffffffffffffffffffffffffffff1673ffffffffffffffffffffffffffffffffffffffff166005600087815260200190815260200160002060000160009054906101000a900473ffffffffffffffffffffffffffffffffffffffff168484604051602401611b379392919061302a565b6040516020818303038152906040527f67df93f2000000000000000000000000000000000000000000000000000000007bffffffffffffffffffffffffffffffffffffffffffffffffffffffff19166020820180517bffffffffffffffffffffffffffffffffffffffffffffffffffffffff8381831617835250505050604051611bc19190612e84565b6000604051808303816000865af19150503d8060008114611bfe576040519150601f19603f3d011682016040523d82523d6000602084013e611c03565b606091505b5050905080611c1157600080fd5b5050505050565b600080611c806005600086815260200190815260200160002060030160009054906101000a900460ff168460056000888152602001908152602001600020600201546005600089815260200190815260200160002060010154611c7b9190612b01565b611ee9565b905060008114611d175780600460006005600088815260200190815260200160002060000160009054906101000a900473ffffffffffffffffffffffffffffffffffffffff1673ffffffffffffffffffffffffffffffffffffffff1673ffffffffffffffffffffffffffffffffffffffff1681526020019081526020016000206000828254611d0f9190612fd4565b925050819055505b600660006005600087815260200190815260200160002060000160009054906101000a900473ffffffffffffffffffffffffffffffffffffffff1673ffffffffffffffffffffffffffffffffffffffff1673ffffffffffffffffffffffffffffffffffffffff1681526020019081526020016000206040518060400160405280838152602001858152509080600181540180825580915050600190039060005260206000209060020201600090919091909150600082015181600001556020820151816001015550506005600085815260200190815260200160002060000160009054906101000a900473ffffffffffffffffffffffffffffffffffffffff1673ffffffffffffffffffffffffffffffffffffffff16817f40506445c12bf0567f70a80a8a0afb49206e565431fd5363a3d1134b80f28b768560066000600560008b815260200190815260200160002060000160009054906101000a900473ffffffffffffffffffffffffffffffffffffffff1673ffffffffffffffffffffffffffffffffffffffff1673ffffffffffffffffffffffffffffffffffffffff16815260200190815260200160002080549050604051611ed79291906123bb565b60405180910390a38091505092915050565b60008315156004841115151415611f1a57606460c383611f099190612b32565b611f139190612b01565b9050611f1f565b600090505b9392505050565b828054828255906000526020600020908101928215611f62579160200282015b82811115611f61578251825591602001919060010190611f46565b5b509050611f6f9190611f8d565b5090565b604051806040016040528060008152602001600081525090565b5b80821115611fa6576000816000905550600101611f8e565b5090565b600073ffffffffffffffffffffffffffffffffffffffff82169050919050565b6000611fd582611faa565b9050919050565b611fe581611fca565b82525050565b60006020820190506120006000830184611fdc565b92915050565b6000604051905090565b600080fd5b600080fd5b6000819050919050565b61202d8161201a565b811461203857600080fd5b50565b60008135905061204a81612024565b92915050565b600080fd5b6000601f19601f8301169050919050565b7f4e487b7100000000000000000000000000000000000000000000000000000000600052604160045260246000fd5b61209e82612055565b810181811067ffffffffffffffff821117156120bd576120bc612066565b5b80604052505050565b60006120d0612006565b90506120dc8282612095565b919050565b600067ffffffffffffffff8211156120fc576120fb612066565b5b602082029050602081019050919050565b600080fd5b6000612125612120846120e1565b6120c6565b905080838252602082019050602084028301858111156121485761214761210d565b5b835b81811015612171578061215d888261203b565b84526020840193505060208101905061214a565b5050509392505050565b600082601f8301126121905761218f612050565b5b81356121a0848260208601612112565b91505092915050565b600080604083850312156121c0576121bf612010565b5b60006121ce8582860161203b565b925050602083013567ffffffffffffffff8111156121ef576121ee612015565b5b6121fb8582860161217b565b9150509250929050565b600063ffffffff82169050919050565b61221e81612205565b82525050565b60006020820190506122396000830184612215565b92915050565b60008115159050919050565b6122548161223f565b811461225f57600080fd5b50565b6000813590506122718161224b565b92915050565b6000806040838503121561228e5761228d612010565b5b600061229c8582860161203b565b92505060206122ad85828601612262565b9150509250929050565b6122c08161201a565b82525050565b60006020820190506122db60008301846122b7565b92915050565b6000602082840312156122f7576122f6612010565b5b60006123058482850161203b565b91505092915050565b6123178161223f565b82525050565b60006080820190506123326000830187611fdc565b61233f60208301866122b7565b61234c60408301856122b7565b612359606083018461230e565b95945050505050565b61236b81611fca565b811461237657600080fd5b50565b60008135905061238881612362565b92915050565b6000602082840312156123a4576123a3612010565b5b60006123b284828501612379565b91505092915050565b60006040820190506123d060008301856122b7565b6123dd60208301846122b7565b9392505050565b600060ff82169050919050565b6123fa816123e4565b811461240557600080fd5b50565b600081359050612417816123f1565b92915050565b6000806040838503121561243457612433612010565b5b600061244285828601612379565b925050602061245385828601612408565b9150509250929050565b600081519050919050565b600082825260208201905092915050565b6000819050602082019050919050565b6124928161201a565b82525050565b6040820160008201516124ae6000850182612489565b5060208201516124c16020850182612489565b50505050565b60006124d38383612498565b60408301905092915050565b6000602082019050919050565b60006124f78261245d565b6125018185612468565b935061250c83612479565b8060005b8381101561253d57815161252488826124c7565b975061252f836124df565b925050600181019050612510565b5085935050505092915050565b6000602082019050818103600083015261256481846124ec565b905092915050565b6000819050919050565b61257f8161256c565b82525050565b600060208201905061259a6000830184612576565b92915050565b60006020820190506125b5600083018461230e565b92915050565b600061ffff82169050919050565b6125d2816125bb565b81146125dd57600080fd5b50565b6000813590506125ef816125c9565b92915050565b60006020828403121561260b5761260a612010565b5b6000612619848285016125e0565b91505092915050565b600067ffffffffffffffff82169050919050565b61263f81612622565b82525050565b600060208201905061265a6000830184612636565b92915050565b6000604082019050612675600083018561230e565b612682602083018461230e565b9392505050565b61269281612205565b811461269d57600080fd5b50565b6000813590506126af81612689565b92915050565b6000602082840312156126cb576126ca612010565b5b60006126d9848285016126a0565b91505092915050565b6000806000606084860312156126fb576126fa612010565b5b60006127098682870161203b565b935050602061271a86828701612262565b925050604061272b86828701612379565b9150509250925092565b60006020828403121561274b5761274a612010565b5b600061275984828501612262565b91505092915050565b600081519050919050565b600082825260208201905092915050565b6000819050602082019050919050565b600061279a8383612489565b60208301905092915050565b6000602082019050919050565b60006127be82612762565b6127c8818561276d565b93506127d38361277e565b8060005b838110156128045781516127eb888261278e565b97506127f6836127a6565b9250506001810190506127d7565b5085935050505092915050565b6000604082019050612826600083018561230e565b818103602083015261283881846127b3565b90509392505050565b6000806040838503121561285857612857612010565b5b600061286685828601612379565b92505060206128778582860161203b565b9150509250929050565b60006040820190506128966000830185611fdc565b6128a36020830184611fdc565b9392505050565b6128b3816125bb565b82525050565b600060a0820190506128ce6000830188612576565b6128db6020830187612636565b6128e860408301866128aa565b6128f56060830185612215565b6129026080830184612215565b9695505050505050565b60008151905061291b81612024565b92915050565b60006020828403121561293757612936612010565b5b60006129458482850161290c565b91505092915050565b600082825260208201905092915050565b7f69746572206f7574206f66206c696d6974000000000000000000000000000000600082015250565b600061299560118361294e565b91506129a08261295f565b602082019050919050565b600060208201905081810360008301526129c481612988565b9050919050565b7f636f6e7472616374206973207061757365640000000000000000000000000000600082015250565b6000612a0160128361294e565b9150612a0c826129cb565b602082019050919050565b60006020820190508181036000830152612a30816129f4565b9050919050565b7f6465706f73697420697320746f6f206c6f770000000000000000000000000000600082015250565b6000612a6d60128361294e565b9150612a7882612a37565b602082019050919050565b60006020820190508181036000830152612a9c81612a60565b9050919050565b7f4e487b7100000000000000000000000000000000000000000000000000000000600052601260045260246000fd5b7f4e487b7100000000000000000000000000000000000000000000000000000000600052601160045260246000fd5b6000612b0c8261201a565b9150612b178361201a565b925082612b2757612b26612aa3565b5b828204905092915050565b6000612b3d8261201a565b9150612b488361201a565b9250817fffffffffffffffffffffffffffffffffffffffffffffffffffffffffffffffff0483118215151615612b8157612b80612ad2565b5b828202905092915050565b7f6465706f73697420697320746f6f206869676800000000000000000000000000600082015250565b6000612bc260138361294e565b9150612bcd82612b8c565b602082019050919050565b60006020820190508181036000830152612bf181612bb5565b9050919050565b600081905092915050565b50565b6000612c13600083612bf8565b9150612c1e82612c03565b600082019050919050565b6000612c3482612c06565b9150819050919050565b6000604082019050612c5360008301856122b7565b612c606020830184612215565b9392505050565b6000612c728261201a565b9150612c7d8361201a565b925082821015612c9057612c8f612ad2565b5b828203905092915050565b7f4e487b7100000000000000000000000000000000000000000000000000000000600052603260045260246000fd5b7f6f6e6c79206f776e657200000000000000000000000000000000000000000000600082015250565b6000612d00600a8361294e565b9150612d0b82612cca565b602082019050919050565b60006020820190508181036000830152612d2f81612cf3565b9050919050565b7f4f7574206f66206c696d69747300000000000000000000000000000000000000600082015250565b6000612d6c600d8361294e565b9150612d7782612d36565b602082019050919050565b60006020820190508181036000830152612d9b81612d5f565b9050919050565b6000612dad826123e4565b915060ff821415612dc157612dc0612ad2565b5b600182019050919050565b6000612dd78261201a565b91507fffffffffffffffffffffffffffffffffffffffffffffffffffffffffffffffff821415612e0a57612e09612ad2565b5b600182019050919050565b600081519050919050565b60005b83811015612e3e578082015181840152602081019050612e23565b83811115612e4d576000848401525b50505050565b6000612e5e82612e15565b612e688185612bf8565b9350612e78818560208601612e20565b80840191505092915050565b6000612e908284612e53565b915081905092915050565b7f72657175657374206e6f7420666f756e64000000000000000000000000000000600082015250565b6000612ed160118361294e565b9150612edc82612e9b565b602082019050919050565b60006020820190508181036000830152612f0081612ec4565b9050919050565b7f596f7520617265206e6f7420616c6c6f77656400000000000000000000000000600082015250565b6000612f3d60138361294e565b9150612f4882612f07565b602082019050919050565b60006020820190508181036000830152612f6c81612f30565b9050919050565b6000604082019050612f8860008301856122b7565b8181036020830152612f9a81846127b3565b90509392505050565b6000612fae8261201a565b9150612fb98361201a565b925082612fc957612fc8612aa3565b5b828206905092915050565b6000612fdf8261201a565b9150612fea8361201a565b9250827fffffffffffffffffffffffffffffffffffffffffffffffffffffffffffffffff0382111561301f5761301e612ad2565b5b828201905092915050565b600060608201905061303f6000830186611fdc565b61304c60208301856122b7565b61305960408301846122b7565b94935050505056fea2646970667358221220cf4832824082e6b8d18aaa30ce273a5d5ce5d093aab53f65350c5f46687b377164736f6c63430008090033",
  "linkReferences": {},
  "deployedLinkReferences": {}
}