{
  "_format": "hh-sol-artifact-1",
  "contractName": "Roulette",
  "sourceName": "contracts/Roulette.sol",
  "abi": [
    {
      "inputs": [
        {
          "internalType": "uint64",
          "name": "subscriptionId",
          "type": "uint64"
        },
        {
          "internalType": "address",
          "name": "vfrCoordinator_",
          "type": "address"
        },
        {
          "internalType": "uint32",
          "name": "callBackGaslimit_",
          "type": "uint32"
        },
        {
          "internalType": "bytes32",
          "name": "keyHash_",
          "type": "bytes32"
        },
        {
          "internalType": "address",
          "name": "pool_",
          "type": "address"
        }
      ],
      "stateMutability": "nonpayable",
      "type": "constructor"
    },
    {
      "inputs": [
        {
          "internalType": "address",
          "name": "have",
          "type": "address"
        },
        {
          "internalType": "address",
          "name": "want",
          "type": "address"
        }
      ],
      "name": "OnlyCoordinatorCanFulfill",
      "type": "error"
    },
    {
      "anonymous": false,
      "inputs": [
        {
          "indexed": true,
          "internalType": "uint256",
          "name": "winAmount",
          "type": "uint256"
        },
        {
          "indexed": true,
          "internalType": "address",
          "name": "userAddress",
          "type": "address"
        },
        {
          "indexed": true,
          "internalType": "uint256",
          "name": "volumeOfGame",
          "type": "uint256"
        },
        {
          "indexed": false,
          "internalType": "uint256",
          "name": "result",
          "type": "uint256"
        },
        {
          "indexed": false,
          "internalType": "uint256",
          "name": "gameNumber",
          "type": "uint256"
        }
      ],
      "name": "GameResEvent",
      "type": "event"
    },
    {
      "anonymous": false,
      "inputs": [
        {
          "indexed": true,
          "internalType": "address",
          "name": "userAddress",
          "type": "address"
        },
        {
          "indexed": true,
          "internalType": "uint256",
          "name": "volumeOfGame",
          "type": "uint256"
        },
        {
          "indexed": true,
          "internalType": "uint256",
          "name": "numOfGames",
          "type": "uint256"
        },
        {
          "indexed": false,
          "internalType": "uint8[]",
          "name": "choise",
          "type": "uint8[]"
        }
      ],
      "name": "GameStartEvent",
      "type": "event"
    },
    {
      "anonymous": false,
      "inputs": [
        {
          "indexed": false,
          "internalType": "uint256",
          "name": "requestId",
          "type": "uint256"
        },
        {
          "indexed": false,
          "internalType": "uint256[]",
          "name": "randomWords",
          "type": "uint256[]"
        }
      ],
      "name": "RequestFulfilled",
      "type": "event"
    },
    {
      "anonymous": false,
      "inputs": [
        {
          "indexed": false,
          "internalType": "uint256",
          "name": "requestId",
          "type": "uint256"
        },
        {
          "indexed": false,
          "internalType": "uint32",
          "name": "numWords",
          "type": "uint32"
        }
      ],
      "name": "RequestSent",
      "type": "event"
    },
    {
      "inputs": [],
      "name": "callbackGasLimit",
      "outputs": [
        {
          "internalType": "uint32",
          "name": "",
          "type": "uint32"
        }
      ],
      "stateMutability": "view",
      "type": "function"
    },
    {
      "inputs": [
        {
          "internalType": "uint256",
          "name": "newMinValue",
          "type": "uint256"
        }
      ],
      "name": "changeMinValue",
      "outputs": [],
      "stateMutability": "nonpayable",
      "type": "function"
    },
    {
      "inputs": [
        {
          "internalType": "address",
          "name": "",
          "type": "address"
        },
        {
          "internalType": "uint256",
          "name": "",
          "type": "uint256"
        }
      ],
      "name": "gamesResult",
      "outputs": [
        {
          "internalType": "uint256",
          "name": "result",
          "type": "uint256"
        },
        {
          "internalType": "uint256",
          "name": "randNumber",
          "type": "uint256"
        }
      ],
      "stateMutability": "view",
      "type": "function"
    },
    {
      "inputs": [
        {
          "internalType": "uint256",
          "name": "",
          "type": "uint256"
        }
      ],
      "name": "gamesStart",
      "outputs": [
        {
          "internalType": "address",
          "name": "player",
          "type": "address"
        },
        {
          "internalType": "uint256",
          "name": "deposit",
          "type": "uint256"
        },
        {
          "internalType": "uint256",
          "name": "numOfIterations",
          "type": "uint256"
        }
      ],
      "stateMutability": "view",
      "type": "function"
    },
    {
      "inputs": [
        {
          "internalType": "address",
          "name": "player",
          "type": "address"
        },
        {
          "internalType": "uint8",
          "name": "n",
          "type": "uint8"
        }
      ],
      "name": "getLastNPlayerGames",
      "outputs": [
        {
          "components": [
            {
              "internalType": "uint256",
              "name": "result",
              "type": "uint256"
            },
            {
              "internalType": "uint256",
              "name": "randNumber",
              "type": "uint256"
            }
          ],
          "internalType": "struct Roulette.GameRes[]",
          "name": "",
          "type": "tuple[]"
        }
      ],
      "stateMutability": "view",
      "type": "function"
    },
    {
      "inputs": [
        {
          "internalType": "address",
          "name": "player",
          "type": "address"
        }
      ],
      "name": "getLastPlayerGame",
      "outputs": [
        {
          "internalType": "uint256",
          "name": "",
          "type": "uint256"
        },
        {
          "internalType": "uint256",
          "name": "",
          "type": "uint256"
        }
      ],
      "stateMutability": "view",
      "type": "function"
    },
    {
      "inputs": [],
      "name": "getMyWinsTotal",
      "outputs": [
        {
          "internalType": "uint256",
          "name": "",
          "type": "uint256"
        }
      ],
      "stateMutability": "view",
      "type": "function"
    },
    {
      "inputs": [
        {
          "internalType": "uint256",
          "name": "_requestId",
          "type": "uint256"
        }
      ],
      "name": "getRequestStatus",
      "outputs": [
        {
          "internalType": "bool",
          "name": "fulfilled",
          "type": "bool"
        },
        {
          "internalType": "uint256[]",
          "name": "randomWords",
          "type": "uint256[]"
        }
      ],
      "stateMutability": "view",
      "type": "function"
    },
    {
      "inputs": [
        {
          "internalType": "uint8[]",
          "name": "choice",
          "type": "uint8[]"
        },
        {
          "internalType": "uint256",
          "name": "num",
          "type": "uint256"
        }
      ],
      "name": "isIncluded",
      "outputs": [
        {
          "internalType": "bool",
          "name": "",
          "type": "bool"
        }
      ],
      "stateMutability": "pure",
      "type": "function"
    },
    {
      "inputs": [],
      "name": "keyHash",
      "outputs": [
        {
          "internalType": "bytes32",
          "name": "",
          "type": "bytes32"
        }
      ],
      "stateMutability": "view",
      "type": "function"
    },
    {
      "inputs": [],
      "name": "lastRequestId",
      "outputs": [
        {
          "internalType": "uint256",
          "name": "",
          "type": "uint256"
        }
      ],
      "stateMutability": "view",
      "type": "function"
    },
    {
      "inputs": [],
      "name": "minValue",
      "outputs": [
        {
          "internalType": "uint256",
          "name": "",
          "type": "uint256"
        }
      ],
      "stateMutability": "view",
      "type": "function"
    },
    {
      "inputs": [],
      "name": "owner",
      "outputs": [
        {
          "internalType": "address",
          "name": "",
          "type": "address"
        }
      ],
      "stateMutability": "view",
      "type": "function"
    },
    {
      "inputs": [],
      "name": "pause",
      "outputs": [
        {
          "internalType": "bool",
          "name": "",
          "type": "bool"
        }
      ],
      "stateMutability": "view",
      "type": "function"
    },
    {
      "inputs": [],
      "name": "pool",
      "outputs": [
        {
          "internalType": "address",
          "name": "",
          "type": "address"
        }
      ],
      "stateMutability": "view",
      "type": "function"
    },
    {
      "inputs": [
        {
          "internalType": "uint256",
          "name": "requestId",
          "type": "uint256"
        },
        {
          "internalType": "uint256[]",
          "name": "randomWords",
          "type": "uint256[]"
        }
      ],
      "name": "rawFulfillRandomWords",
      "outputs": [],
      "stateMutability": "nonpayable",
      "type": "function"
    },
    {
      "inputs": [],
      "name": "requestConfirmations",
      "outputs": [
        {
          "internalType": "uint16",
          "name": "",
          "type": "uint16"
        }
      ],
      "stateMutability": "view",
      "type": "function"
    },
    {
      "inputs": [
        {
          "internalType": "uint256",
          "name": "",
          "type": "uint256"
        }
      ],
      "name": "requestIds",
      "outputs": [
        {
          "internalType": "uint256",
          "name": "",
          "type": "uint256"
        }
      ],
      "stateMutability": "view",
      "type": "function"
    },
    {
      "inputs": [
        {
          "internalType": "uint256",
          "name": "",
          "type": "uint256"
        }
      ],
      "name": "s_requests",
      "outputs": [
        {
          "internalType": "bool",
          "name": "fulfilled",
          "type": "bool"
        },
        {
          "internalType": "bool",
          "name": "exists",
          "type": "bool"
        }
      ],
      "stateMutability": "view",
      "type": "function"
    },
    {
      "inputs": [],
      "name": "s_subscriptionId",
      "outputs": [
        {
          "internalType": "uint64",
          "name": "",
          "type": "uint64"
        }
      ],
      "stateMutability": "view",
      "type": "function"
    },
    {
      "inputs": [
        {
          "internalType": "uint32",
          "name": "newCallbackGasLimit",
          "type": "uint32"
        }
      ],
      "name": "setCallbackGasLimit",
      "outputs": [],
      "stateMutability": "nonpayable",
      "type": "function"
    },
    {
      "inputs": [
        {
          "internalType": "bool",
          "name": "pauseState",
          "type": "bool"
        }
      ],
      "name": "setPause",
      "outputs": [],
      "stateMutability": "nonpayable",
      "type": "function"
    },
    {
      "inputs": [
        {
          "internalType": "address",
          "name": "newPool",
          "type": "address"
        }
      ],
      "name": "setPoolAddress",
      "outputs": [],
      "stateMutability": "nonpayable",
      "type": "function"
    },
    {
      "inputs": [
        {
          "internalType": "uint16",
          "name": "newRequestConfirmations",
          "type": "uint16"
        }
      ],
      "name": "setRequestConfirmations",
      "outputs": [],
      "stateMutability": "nonpayable",
      "type": "function"
    },
    {
      "inputs": [
        {
          "internalType": "uint256",
          "name": "iter",
          "type": "uint256"
        },
        {
          "internalType": "uint8[]",
          "name": "_choice",
          "type": "uint8[]"
        }
      ],
      "name": "startRoll",
      "outputs": [
        {
          "internalType": "uint256",
          "name": "requestId",
          "type": "uint256"
        }
      ],
      "stateMutability": "payable",
      "type": "function"
    },
    {
      "inputs": [
        {
          "internalType": "uint256",
          "name": "iter",
          "type": "uint256"
        },
        {
          "internalType": "uint8[]",
          "name": "_choice",
          "type": "uint8[]"
        },
        {
          "internalType": "address",
          "name": "_referal",
          "type": "address"
        }
      ],
      "name": "startRoll_and_setReferal",
      "outputs": [],
      "stateMutability": "payable",
      "type": "function"
    },
    {
      "inputs": [
        {
          "internalType": "address",
          "name": "",
          "type": "address"
        }
      ],
      "name": "totalWinsOfPlayer",
      "outputs": [
        {
          "internalType": "uint256",
          "name": "",
          "type": "uint256"
        }
      ],
      "stateMutability": "view",
      "type": "function"
    }
  ],
  "bytecode": "0x6101206040523480156200001257600080fd5b50604051620037a7380380620037a78339818101604052810190620000389190620002e1565b838073ffffffffffffffffffffffffffffffffffffffff1660808173ffffffffffffffffffffffffffffffffffffffff16815250505033600160006101000a81548173ffffffffffffffffffffffffffffffffffffffff021916908373ffffffffffffffffffffffffffffffffffffffff16021790555081610100818152505082600960006101000a81548163ffffffff021916908363ffffffff1602179055508373ffffffffffffffffffffffffffffffffffffffff1660a08173ffffffffffffffffffffffffffffffffffffffff16815250508467ffffffffffffffff1660c08167ffffffffffffffff168152505080600260006101000a81548173ffffffffffffffffffffffffffffffffffffffff021916908373ffffffffffffffffffffffffffffffffffffffff160217905550600163ffffffff1660e08163ffffffff16815250506003600960046101000a81548161ffff021916908361ffff16021790555066038d7ea4c68000600081905550505050505062000369565b600080fd5b600067ffffffffffffffff82169050919050565b620001da81620001bb565b8114620001e657600080fd5b50565b600081519050620001fa81620001cf565b92915050565b600073ffffffffffffffffffffffffffffffffffffffff82169050919050565b60006200022d8262000200565b9050919050565b6200023f8162000220565b81146200024b57600080fd5b50565b6000815190506200025f8162000234565b92915050565b600063ffffffff82169050919050565b620002808162000265565b81146200028c57600080fd5b50565b600081519050620002a08162000275565b92915050565b6000819050919050565b620002bb81620002a6565b8114620002c757600080fd5b50565b600081519050620002db81620002b0565b92915050565b600080600080600060a086880312156200030057620002ff620001b6565b5b60006200031088828901620001e9565b955050602062000323888289016200024e565b945050604062000336888289016200028f565b93505060606200034988828901620002ca565b92505060806200035c888289016200024e565b9150509295509295909350565b60805160a05160c05160e051610100516133dd620003ca60003960008181610d5a01526110570152600081816110bd0152611495015260008181610ec301526110780152600061101b0152600081816106e4015261073801526133dd6000f3fe60806040526004361061019c5760003560e01c80638ac00021116100ec578063bedb86fb1161008a578063e81372cc11610064578063e81372cc146105ff578063e9e15b4f1461062a578063fc2a88c314610653578063fced6e701461067e5761019c565b8063bedb86fb1461055b578063cf1c1e6b14610584578063d8a4676f146105c15761019c565b8063a168fa89116100c6578063a168fa8914610499578063a4eb718c146104d7578063b0fb162f14610500578063b8fe69b71461052b5761019c565b80638ac00021146104185780638da5cb5b14610443578063963e63c71461046e5761019c565b8063456cae181161015957806377f4a5231161013357806377f4a5231461034a5780638456cb59146103875780638796ba8c146103b25780638824f5a7146103ef5761019c565b8063456cae18146102b957806356a00b93146102e257806361728f391461031f5761019c565b806316f0115b146101a15780631fe543e3146101cc57806324f74697146101f55780633bb31f3a146102205780633ceb735d1461025f5780633ff1814b1461029d575b600080fd5b3480156101ad57600080fd5b506101b66106bc565b6040516101c391906121d5565b60405180910390f35b3480156101d857600080fd5b506101f360048036038101906101ee9190612393565b6106e2565b005b34801561020157600080fd5b5061020a6107a2565b604051610217919061240e565b60405180910390f35b34801561022c57600080fd5b5061024760048036038101906102429190612429565b6107b8565b60405161025693929190612465565b60405180910390f35b34801561026b57600080fd5b50610286600480360381019061028191906124c8565b610802565b6040516102949291906124f5565b60405180910390f35b6102b760048036038101906102b2919061261a565b610928565b005b3480156102c557600080fd5b506102e060048036038101906102db9190612429565b610a61565b005b3480156102ee57600080fd5b5061030960048036038101906103049190612689565b610afb565b60405161031691906127b6565b60405180910390f35b34801561032b57600080fd5b50610334610d58565b60405161034191906127f1565b60405180910390f35b34801561035657600080fd5b50610371600480360381019061036c919061280c565b610d7c565b60405161037e9190612883565b60405180910390f35b34801561039357600080fd5b5061039c610dda565b6040516103a99190612883565b60405180910390f35b3480156103be57600080fd5b506103d960048036038101906103d49190612429565b610ded565b6040516103e6919061289e565b60405180910390f35b3480156103fb57600080fd5b50610416600480360381019061041191906128f3565b610e11565b005b34801561042457600080fd5b5061042d610ec1565b60405161043a9190612943565b60405180910390f35b34801561044f57600080fd5b50610458610ee5565b60405161046591906121d5565b60405180910390f35b34801561047a57600080fd5b50610483610f0b565b604051610490919061289e565b60405180910390f35b3480156104a557600080fd5b506104c060048036038101906104bb9190612429565b610f11565b6040516104ce92919061295e565b60405180910390f35b3480156104e357600080fd5b506104fe60048036038101906104f991906129b3565b610f4f565b005b34801561050c57600080fd5b50610515611003565b60405161052291906129ef565b60405180910390f35b61054560048036038101906105409190612a0a565b611017565b604051610552919061289e565b60405180910390f35b34801561056757600080fd5b50610582600480360381019061057d9190612a92565b6115e6565b005b34801561059057600080fd5b506105ab60048036038101906105a691906124c8565b611693565b6040516105b8919061289e565b60405180910390f35b3480156105cd57600080fd5b506105e860048036038101906105e39190612429565b6116ab565b6040516105f6929190612b6e565b60405180910390f35b34801561060b57600080fd5b506106146117d6565b604051610621919061289e565b60405180910390f35b34801561063657600080fd5b50610651600480360381019061064c91906124c8565b61181d565b005b34801561065f57600080fd5b506106686118f1565b604051610675919061289e565b60405180910390f35b34801561068a57600080fd5b506106a560048036038101906106a09190612b9e565b6118f7565b6040516106b39291906124f5565b60405180910390f35b600260009054906101000a900473ffffffffffffffffffffffffffffffffffffffff1681565b7f000000000000000000000000000000000000000000000000000000000000000073ffffffffffffffffffffffffffffffffffffffff163373ffffffffffffffffffffffffffffffffffffffff161461079457337f00000000000000000000000000000000000000000000000000000000000000006040517f1cf993f400000000000000000000000000000000000000000000000000000000815260040161078b929190612bde565b60405180910390fd5b61079e8282611938565b5050565b600960009054906101000a900463ffffffff1681565b60046020528060005260406000206000915090508060000160009054906101000a900473ffffffffffffffffffffffffffffffffffffffff16908060010154908060020154905083565b60008060006001600560008673ffffffffffffffffffffffffffffffffffffffff1673ffffffffffffffffffffffffffffffffffffffff168152602001908152602001600020805490506108569190612c36565b9050600560008573ffffffffffffffffffffffffffffffffffffffff1673ffffffffffffffffffffffffffffffffffffffff16815260200190815260200160002081815481106108a9576108a8612c6a565b5b906000526020600020906002020160000154600560008673ffffffffffffffffffffffffffffffffffffffff1673ffffffffffffffffffffffffffffffffffffffff168152602001908152602001600020828154811061090c5761090b612c6a565b5b9060005260206000209060020201600101549250925050915091565b6000600260009054906101000a900473ffffffffffffffffffffffffffffffffffffffff1673ffffffffffffffffffffffffffffffffffffffff168233604051602401610976929190612bde565b6040516020818303038152906040527f17dedeb6000000000000000000000000000000000000000000000000000000007bffffffffffffffffffffffffffffffffffffffffffffffffffffffff19166020820180517bffffffffffffffffffffffffffffffffffffffffffffffffffffffff8381831617835250505050604051610a009190612d0a565b6000604051808303816000865af19150503d8060008114610a3d576040519150601f19603f3d011682016040523d82523d6000602084013e610a42565b606091505b5050905080610a5057600080fd5b610a5a8484611017565b5050505050565b600160009054906101000a900473ffffffffffffffffffffffffffffffffffffffff1673ffffffffffffffffffffffffffffffffffffffff163373ffffffffffffffffffffffffffffffffffffffff1614610af1576040517f08c379a0000000000000000000000000000000000000000000000000000000008152600401610ae890612d7e565b60405180910390fd5b8060008190555050565b60608160ff16600560008573ffffffffffffffffffffffffffffffffffffffff1673ffffffffffffffffffffffffffffffffffffffff168152602001908152602001600020805490501015610b85576040517f08c379a0000000000000000000000000000000000000000000000000000000008152600401610b7c90612dea565b60405180910390fd5b60008260ff1667ffffffffffffffff811115610ba457610ba3612250565b5b604051908082528060200260200182016040528015610bdd57816020015b610bca612069565b815260200190600190039081610bc25790505b5090506000808460ff16600560008873ffffffffffffffffffffffffffffffffffffffff1673ffffffffffffffffffffffffffffffffffffffff16815260200190815260200160002080549050610c349190612c36565b90505b6001600560008873ffffffffffffffffffffffffffffffffffffffff1673ffffffffffffffffffffffffffffffffffffffff16815260200190815260200160002080549050610c869190612c36565b8111610d4c57600560008773ffffffffffffffffffffffffffffffffffffffff1673ffffffffffffffffffffffffffffffffffffffff1681526020019081526020016000208181548110610cdd57610cdc612c6a565b5b906000526020600020906002020160405180604001604052908160008201548152602001600182015481525050838360ff1681518110610d2057610d1f612c6a565b5b60200260200101819052508180610d3690612e0a565b9250508080610d4490612e33565b915050610c37565b50819250505092915050565b7f000000000000000000000000000000000000000000000000000000000000000081565b600080600090505b8351811015610dce5782848281518110610da157610da0612c6a565b5b602002602001015160ff1603610dbb576001915050610dd4565b8080610dc690612e33565b915050610d84565b50600090505b92915050565b600260149054906101000a900460ff1681565b60078181548110610dfd57600080fd5b906000526020600020016000915090505481565b600160009054906101000a900473ffffffffffffffffffffffffffffffffffffffff1673ffffffffffffffffffffffffffffffffffffffff163373ffffffffffffffffffffffffffffffffffffffff1614610ea1576040517f08c379a0000000000000000000000000000000000000000000000000000000008152600401610e9890612d7e565b60405180910390fd5b80600960046101000a81548161ffff021916908361ffff16021790555050565b7f000000000000000000000000000000000000000000000000000000000000000081565b600160009054906101000a900473ffffffffffffffffffffffffffffffffffffffff1681565b60005481565b60066020528060005260406000206000915090508060000160009054906101000a900460ff16908060000160019054906101000a900460ff16905082565b600160009054906101000a900473ffffffffffffffffffffffffffffffffffffffff1673ffffffffffffffffffffffffffffffffffffffff163373ffffffffffffffffffffffffffffffffffffffff1614610fdf576040517f08c379a0000000000000000000000000000000000000000000000000000000008152600401610fd690612d7e565b60405180910390fd5b80600960006101000a81548163ffffffff021916908363ffffffff16021790555050565b600960049054906101000a900461ffff1681565b60007f000000000000000000000000000000000000000000000000000000000000000073ffffffffffffffffffffffffffffffffffffffff16635d3b1d307f00000000000000000000000000000000000000000000000000000000000000007f0000000000000000000000000000000000000000000000000000000000000000600960049054906101000a900461ffff16600960009054906101000a900463ffffffff167f00000000000000000000000000000000000000000000000000000000000000006040518663ffffffff1660e01b81526004016110fc959493929190612e7b565b6020604051808303816000875af115801561111b573d6000803e3d6000fd5b505050506040513d601f19601f8201168201806040525081019061113f9190612ee3565b905060018314806111505750600283145b8061115b5750600583145b806111665750600a83145b6111a5576040517f08c379a000000000000000000000000000000000000000000000000000000000815260040161119c90612f5c565b60405180910390fd5b600260149054906101000a900460ff16156111f5576040517f08c379a00000000000000000000000000000000000000000000000000000000081526004016111ec90612fc8565b60405180910390fd5b6000543411611239576040517f08c379a000000000000000000000000000000000000000000000000000000000815260040161123090613034565b60405180910390fd5b60646005600260009054906101000a900473ffffffffffffffffffffffffffffffffffffffff1673ffffffffffffffffffffffffffffffffffffffff16316112819190613054565b61128b91906130c5565b34106112cc576040517f08c379a00000000000000000000000000000000000000000000000000000000081526004016112c390613142565b60405180910390fd5b6040518060600160405280600015158152602001600115158152602001600067ffffffffffffffff81111561130457611303612250565b5b6040519080825280602002602001820160405280156113325781602001602082028036833780820191505090505b508152506006600083815260200190815260200160002060008201518160000160006101000a81548160ff02191690831515021790555060208201518160000160016101000a81548160ff02191690831515021790555060408201518160010190805190602001906113a5929190612083565b509050506007819080600181540180825580915050600190039060005260206000200160009091909190915055806008819055506000600260009054906101000a900473ffffffffffffffffffffffffffffffffffffffff1673ffffffffffffffffffffffffffffffffffffffff163460405161142190613188565b60006040518083038185875af1925050503d806000811461145e576040519150601f19603f3d011682016040523d82523d6000602084013e611463565b606091505b505090508061147157600080fd5b7fcc58b13ad3eab50626c6a6300b1d139cd6ebb1688a7cced9461c2f7e762665ee827f00000000000000000000000000000000000000000000000000000000000000006040516114c292919061319d565b60405180910390a160405180608001604052803373ffffffffffffffffffffffffffffffffffffffff168152602001348152602001858152602001848152506004600084815260200190815260200160002060008201518160000160006101000a81548173ffffffffffffffffffffffffffffffffffffffff021916908373ffffffffffffffffffffffffffffffffffffffff1602179055506020820151816001015560408201518160020155606082015181600301908051906020019061158b9291906120d0565b5090505083343373ffffffffffffffffffffffffffffffffffffffff167f11bfb9a0205444125637098e39c5f768855ca7af34465a0ff497ed756735a07a866040516115d79190613284565b60405180910390a45092915050565b600160009054906101000a900473ffffffffffffffffffffffffffffffffffffffff1673ffffffffffffffffffffffffffffffffffffffff163373ffffffffffffffffffffffffffffffffffffffff1614611676576040517f08c379a000000000000000000000000000000000000000000000000000000000815260040161166d90612d7e565b60405180910390fd5b80600260146101000a81548160ff02191690831515021790555050565b60036020528060005260406000206000915090505481565b600060606006600084815260200190815260200160002060000160019054906101000a900460ff16611712576040517f08c379a0000000000000000000000000000000000000000000000000000000008152600401611709906132f2565b60405180910390fd5b6000600660008581526020019081526020016000206040518060600160405290816000820160009054906101000a900460ff161515151581526020016000820160019054906101000a900460ff16151515158152602001600182018054806020026020016040519081016040528092919081815260200182805480156117b757602002820191906000526020600020905b8154815260200190600101908083116117a3575b5050505050815250509050806000015181604001519250925050915091565b6000600360003373ffffffffffffffffffffffffffffffffffffffff1673ffffffffffffffffffffffffffffffffffffffff16815260200190815260200160002054905090565b600160009054906101000a900473ffffffffffffffffffffffffffffffffffffffff1673ffffffffffffffffffffffffffffffffffffffff163373ffffffffffffffffffffffffffffffffffffffff16146118ad576040517f08c379a00000000000000000000000000000000000000000000000000000000081526004016118a490612d7e565b60405180910390fd5b80600260006101000a81548173ffffffffffffffffffffffffffffffffffffffff021916908373ffffffffffffffffffffffffffffffffffffffff16021790555050565b60085481565b6005602052816000526040600020818154811061191357600080fd5b9060005260206000209060020201600091509150508060000154908060010154905082565b6006600083815260200190815260200160002060000160019054906101000a900460ff1661199b576040517f08c379a0000000000000000000000000000000000000000000000000000000008152600401611992906132f2565b60405180910390fd5b60016006600084815260200190815260200160002060000160006101000a81548160ff021916908315150217905550806006600084815260200190815260200160002060010190805190602001906119f4929190612083565b507ffe2e2d779dba245964d4e3ef9b994be63856fd568bf7d3ca9e224755cb1bd54d8282604051611a26929190613312565b60405180910390a160008060005b6004600086815260200190815260200160002060020154811015611b47576000611a8586602587600081518110611a6e57611a6d612c6a565b5b6020026020010151611a809190613342565b611caf565b905060008111611ada5760046000878152602001908152602001600020600201546004600088815260200190815260200160002060010154611ac791906130c5565b83611ad29190613373565b925082611aea565b8084611ae69190613373565b9350835b50606485600081518110611b0157611b00612c6a565b5b6020026020010151611b1391906130c5565b85600081518110611b2757611b26612c6a565b5b602002602001018181525050508080611b3f90612e33565b915050611a34565b506000600260009054906101000a900473ffffffffffffffffffffffffffffffffffffffff1673ffffffffffffffffffffffffffffffffffffffff166004600087815260200190815260200160002060000160009054906101000a900473ffffffffffffffffffffffffffffffffffffffff168484604051602401611bce93929190612465565b6040516020818303038152906040527f67df93f2000000000000000000000000000000000000000000000000000000007bffffffffffffffffffffffffffffffffffffffffffffffffffffffff19166020820180517bffffffffffffffffffffffffffffffffffffffffffffffffffffffff8381831617835250505050604051611c589190612d0a565b6000604051808303816000865af19150503d8060008114611c95576040519150601f19603f3d011682016040523d82523d6000602084013e611c9a565b606091505b5050905080611ca857600080fd5b5050505050565b600080611d7e60046000868152602001908152602001600020600301805480602002602001604051908101604052809291908181526020018280548015611d3b57602002820191906000526020600020906000905b82829054906101000a900460ff1660ff1681526020019060010190602082600001049283019260010382029150808411611d045790505b50505050508460046000888152602001908152602001600020600201546004600089815260200190815260200160002060010154611d7991906130c5565b61201f565b905060008114611e155780600360006004600088815260200190815260200160002060000160009054906101000a900473ffffffffffffffffffffffffffffffffffffffff1673ffffffffffffffffffffffffffffffffffffffff1673ffffffffffffffffffffffffffffffffffffffff1681526020019081526020016000206000828254611e0d9190613373565b925050819055505b600560006004600087815260200190815260200160002060000160009054906101000a900473ffffffffffffffffffffffffffffffffffffffff1673ffffffffffffffffffffffffffffffffffffffff1673ffffffffffffffffffffffffffffffffffffffff16815260200190815260200160002060405180604001604052808381526020018581525090806001815401808255809150506001900390600052602060002090600202016000909190919091506000820151816000015560208201518160010155505060046000858152602001908152602001600020600201546004600086815260200190815260200160002060010154611f1691906130c5565b6004600086815260200190815260200160002060000160009054906101000a900473ffffffffffffffffffffffffffffffffffffffff1673ffffffffffffffffffffffffffffffffffffffff16827f53d6cf7668a6ffd2ea7469ba3b30b3d51c5abb4cc87bfb1ce50776e30db955788660056000600460008c815260200190815260200160002060000160009054906101000a900473ffffffffffffffffffffffffffffffffffffffff1673ffffffffffffffffffffffffffffffffffffffff1673ffffffffffffffffffffffffffffffffffffffff1681526020019081526020016000208054905060405161200d9291906124f5565b60405180910390a48091505092915050565b600061202b8484610d7c565b1561205d5760648451610e1061204191906130c5565b8361204c9190613054565b61205691906130c5565b9050612062565b600090505b9392505050565b604051806040016040528060008152602001600081525090565b8280548282559060005260206000209081019282156120bf579160200282015b828111156120be5782518255916020019190600101906120a3565b5b5090506120cc9190612177565b5090565b82805482825590600052602060002090601f016020900481019282156121665791602002820160005b8382111561213757835183826101000a81548160ff021916908360ff16021790555092602001926001016020816000010492830192600103026120f9565b80156121645782816101000a81549060ff0219169055600101602081600001049283019260010302612137565b505b5090506121739190612177565b5090565b5b80821115612190576000816000905550600101612178565b5090565b600073ffffffffffffffffffffffffffffffffffffffff82169050919050565b60006121bf82612194565b9050919050565b6121cf816121b4565b82525050565b60006020820190506121ea60008301846121c6565b92915050565b6000604051905090565b600080fd5b600080fd5b6000819050919050565b61221781612204565b811461222257600080fd5b50565b6000813590506122348161220e565b92915050565b600080fd5b6000601f19601f8301169050919050565b7f4e487b7100000000000000000000000000000000000000000000000000000000600052604160045260246000fd5b6122888261223f565b810181811067ffffffffffffffff821117156122a7576122a6612250565b5b80604052505050565b60006122ba6121f0565b90506122c6828261227f565b919050565b600067ffffffffffffffff8211156122e6576122e5612250565b5b602082029050602081019050919050565b600080fd5b600061230f61230a846122cb565b6122b0565b90508083825260208201905060208402830185811115612332576123316122f7565b5b835b8181101561235b57806123478882612225565b845260208401935050602081019050612334565b5050509392505050565b600082601f83011261237a5761237961223a565b5b813561238a8482602086016122fc565b91505092915050565b600080604083850312156123aa576123a96121fa565b5b60006123b885828601612225565b925050602083013567ffffffffffffffff8111156123d9576123d86121ff565b5b6123e585828601612365565b9150509250929050565b600063ffffffff82169050919050565b612408816123ef565b82525050565b600060208201905061242360008301846123ff565b92915050565b60006020828403121561243f5761243e6121fa565b5b600061244d84828501612225565b91505092915050565b61245f81612204565b82525050565b600060608201905061247a60008301866121c6565b6124876020830185612456565b6124946040830184612456565b949350505050565b6124a5816121b4565b81146124b057600080fd5b50565b6000813590506124c28161249c565b92915050565b6000602082840312156124de576124dd6121fa565b5b60006124ec848285016124b3565b91505092915050565b600060408201905061250a6000830185612456565b6125176020830184612456565b9392505050565b600067ffffffffffffffff82111561253957612538612250565b5b602082029050602081019050919050565b600060ff82169050919050565b6125608161254a565b811461256b57600080fd5b50565b60008135905061257d81612557565b92915050565b60006125966125918461251e565b6122b0565b905080838252602082019050602084028301858111156125b9576125b86122f7565b5b835b818110156125e257806125ce888261256e565b8452602084019350506020810190506125bb565b5050509392505050565b600082601f8301126126015761260061223a565b5b8135612611848260208601612583565b91505092915050565b600080600060608486031215612633576126326121fa565b5b600061264186828701612225565b935050602084013567ffffffffffffffff811115612662576126616121ff565b5b61266e868287016125ec565b925050604061267f868287016124b3565b9150509250925092565b600080604083850312156126a05761269f6121fa565b5b60006126ae858286016124b3565b92505060206126bf8582860161256e565b9150509250929050565b600081519050919050565b600082825260208201905092915050565b6000819050602082019050919050565b6126fe81612204565b82525050565b60408201600082015161271a60008501826126f5565b50602082015161272d60208501826126f5565b50505050565b600061273f8383612704565b60408301905092915050565b6000602082019050919050565b6000612763826126c9565b61276d81856126d4565b9350612778836126e5565b8060005b838110156127a95781516127908882612733565b975061279b8361274b565b92505060018101905061277c565b5085935050505092915050565b600060208201905081810360008301526127d08184612758565b905092915050565b6000819050919050565b6127eb816127d8565b82525050565b600060208201905061280660008301846127e2565b92915050565b60008060408385031215612823576128226121fa565b5b600083013567ffffffffffffffff811115612841576128406121ff565b5b61284d858286016125ec565b925050602061285e85828601612225565b9150509250929050565b60008115159050919050565b61287d81612868565b82525050565b60006020820190506128986000830184612874565b92915050565b60006020820190506128b36000830184612456565b92915050565b600061ffff82169050919050565b6128d0816128b9565b81146128db57600080fd5b50565b6000813590506128ed816128c7565b92915050565b600060208284031215612909576129086121fa565b5b6000612917848285016128de565b91505092915050565b600067ffffffffffffffff82169050919050565b61293d81612920565b82525050565b60006020820190506129586000830184612934565b92915050565b60006040820190506129736000830185612874565b6129806020830184612874565b9392505050565b612990816123ef565b811461299b57600080fd5b50565b6000813590506129ad81612987565b92915050565b6000602082840312156129c9576129c86121fa565b5b60006129d78482850161299e565b91505092915050565b6129e9816128b9565b82525050565b6000602082019050612a0460008301846129e0565b92915050565b60008060408385031215612a2157612a206121fa565b5b6000612a2f85828601612225565b925050602083013567ffffffffffffffff811115612a5057612a4f6121ff565b5b612a5c858286016125ec565b9150509250929050565b612a6f81612868565b8114612a7a57600080fd5b50565b600081359050612a8c81612a66565b92915050565b600060208284031215612aa857612aa76121fa565b5b6000612ab684828501612a7d565b91505092915050565b600081519050919050565b600082825260208201905092915050565b6000819050602082019050919050565b6000612af783836126f5565b60208301905092915050565b6000602082019050919050565b6000612b1b82612abf565b612b258185612aca565b9350612b3083612adb565b8060005b83811015612b61578151612b488882612aeb565b9750612b5383612b03565b925050600181019050612b34565b5085935050505092915050565b6000604082019050612b836000830185612874565b8181036020830152612b958184612b10565b90509392505050565b60008060408385031215612bb557612bb46121fa565b5b6000612bc3858286016124b3565b9250506020612bd485828601612225565b9150509250929050565b6000604082019050612bf360008301856121c6565b612c0060208301846121c6565b9392505050565b7f4e487b7100000000000000000000000000000000000000000000000000000000600052601160045260246000fd5b6000612c4182612204565b9150612c4c83612204565b9250828203905081811115612c6457612c63612c07565b5b92915050565b7f4e487b7100000000000000000000000000000000000000000000000000000000600052603260045260246000fd5b600081519050919050565b600081905092915050565b60005b83811015612ccd578082015181840152602081019050612cb2565b60008484015250505050565b6000612ce482612c99565b612cee8185612ca4565b9350612cfe818560208601612caf565b80840191505092915050565b6000612d168284612cd9565b915081905092915050565b600082825260208201905092915050565b7f6f6e6c79206f776e657200000000000000000000000000000000000000000000600082015250565b6000612d68600a83612d21565b9150612d7382612d32565b602082019050919050565b60006020820190508181036000830152612d9781612d5b565b9050919050565b7f4f7574206f66206c696d69747300000000000000000000000000000000000000600082015250565b6000612dd4600d83612d21565b9150612ddf82612d9e565b602082019050919050565b60006020820190508181036000830152612e0381612dc7565b9050919050565b6000612e158261254a565b915060ff8203612e2857612e27612c07565b5b600182019050919050565b6000612e3e82612204565b91507fffffffffffffffffffffffffffffffffffffffffffffffffffffffffffffffff8203612e7057612e6f612c07565b5b600182019050919050565b600060a082019050612e9060008301886127e2565b612e9d6020830187612934565b612eaa60408301866129e0565b612eb760608301856123ff565b612ec460808301846123ff565b9695505050505050565b600081519050612edd8161220e565b92915050565b600060208284031215612ef957612ef86121fa565b5b6000612f0784828501612ece565b91505092915050565b7f69746572206f7574206f66206c696d6974000000000000000000000000000000600082015250565b6000612f46601183612d21565b9150612f5182612f10565b602082019050919050565b60006020820190508181036000830152612f7581612f39565b9050919050565b7f636f6e7472616374206973207061757365640000000000000000000000000000600082015250565b6000612fb2601283612d21565b9150612fbd82612f7c565b602082019050919050565b60006020820190508181036000830152612fe181612fa5565b9050919050565b7f6465706f73697420697320746f6f206c6f770000000000000000000000000000600082015250565b600061301e601283612d21565b915061302982612fe8565b602082019050919050565b6000602082019050818103600083015261304d81613011565b9050919050565b600061305f82612204565b915061306a83612204565b925082820261307881612204565b9150828204841483151761308f5761308e612c07565b5b5092915050565b7f4e487b7100000000000000000000000000000000000000000000000000000000600052601260045260246000fd5b60006130d082612204565b91506130db83612204565b9250826130eb576130ea613096565b5b828204905092915050565b7f6465706f73697420697320746f6f206869676800000000000000000000000000600082015250565b600061312c601383612d21565b9150613137826130f6565b602082019050919050565b6000602082019050818103600083015261315b8161311f565b9050919050565b50565b6000613172600083612ca4565b915061317d82613162565b600082019050919050565b600061319382613165565b9150819050919050565b60006040820190506131b26000830185612456565b6131bf60208301846123ff565b9392505050565b600081519050919050565b600082825260208201905092915050565b6000819050602082019050919050565b6131fb8161254a565b82525050565b600061320d83836131f2565b60208301905092915050565b6000602082019050919050565b6000613231826131c6565b61323b81856131d1565b9350613246836131e2565b8060005b8381101561327757815161325e8882613201565b975061326983613219565b92505060018101905061324a565b5085935050505092915050565b6000602082019050818103600083015261329e8184613226565b905092915050565b7f72657175657374206e6f7420666f756e64000000000000000000000000000000600082015250565b60006132dc601183612d21565b91506132e7826132a6565b602082019050919050565b6000602082019050818103600083015261330b816132cf565b9050919050565b60006040820190506133276000830185612456565b81810360208301526133398184612b10565b90509392505050565b600061334d82612204565b915061335883612204565b92508261336857613367613096565b5b828206905092915050565b600061337e82612204565b915061338983612204565b92508282019050808211156133a1576133a0612c07565b5b9291505056fea26469706673582212205dc23686afc5c03f0e1412dbdf8baf4d072de0ff8af085af7bfa6497b278599e64736f6c63430008110033",
  "linkReferences": {},
  "deployedLinkReferences": {}
}