{
  "_format": "hh-sol-artifact-1",
  "contractName": "Roulette",
  "sourceName": "contracts/Roulette.sol",
  "abi": [
    {
      "inputs": [
        {
          "internalType": "uint64",
          "name": "subscriptionId",
          "type": "uint64"
        },
        {
          "internalType": "address",
          "name": "vfrCoordinator_",
          "type": "address"
        },
        {
          "internalType": "uint32",
          "name": "callBackGaslimit_",
          "type": "uint32"
        },
        {
          "internalType": "bytes32",
          "name": "keyHash_",
          "type": "bytes32"
        },
        {
          "internalType": "address",
          "name": "pool_",
          "type": "address"
        }
      ],
      "stateMutability": "nonpayable",
      "type": "constructor"
    },
    {
      "inputs": [
        {
          "internalType": "address",
          "name": "have",
          "type": "address"
        },
        {
          "internalType": "address",
          "name": "want",
          "type": "address"
        }
      ],
      "name": "OnlyCoordinatorCanFulfill",
      "type": "error"
    },
    {
      "anonymous": false,
      "inputs": [
        {
          "indexed": true,
          "internalType": "uint256",
          "name": "winAmount",
          "type": "uint256"
        },
        {
          "indexed": true,
          "internalType": "address",
          "name": "userAddress",
          "type": "address"
        },
        {
          "indexed": false,
          "internalType": "uint256",
          "name": "result",
          "type": "uint256"
        },
        {
          "indexed": false,
          "internalType": "uint256",
          "name": "gameNumber",
          "type": "uint256"
        }
      ],
      "name": "GameResEvent",
      "type": "event"
    },
    {
      "anonymous": false,
      "inputs": [
        {
          "indexed": true,
          "internalType": "address",
          "name": "userAddress",
          "type": "address"
        },
        {
          "indexed": true,
          "internalType": "uint256",
          "name": "volumeOfGame",
          "type": "uint256"
        },
        {
          "indexed": true,
          "internalType": "uint256",
          "name": "numOfGames",
          "type": "uint256"
        },
        {
          "indexed": false,
          "internalType": "uint8[]",
          "name": "choise",
          "type": "uint8[]"
        }
      ],
      "name": "GameStartEvent",
      "type": "event"
    },
    {
      "anonymous": false,
      "inputs": [
        {
          "indexed": false,
          "internalType": "uint256",
          "name": "requestId",
          "type": "uint256"
        },
        {
          "indexed": false,
          "internalType": "uint256[]",
          "name": "randomWords",
          "type": "uint256[]"
        }
      ],
      "name": "RequestFulfilled",
      "type": "event"
    },
    {
      "anonymous": false,
      "inputs": [
        {
          "indexed": false,
          "internalType": "uint256",
          "name": "requestId",
          "type": "uint256"
        },
        {
          "indexed": false,
          "internalType": "uint32",
          "name": "numWords",
          "type": "uint32"
        }
      ],
      "name": "RequestSent",
      "type": "event"
    },
    {
      "inputs": [],
      "name": "callbackGasLimit",
      "outputs": [
        {
          "internalType": "uint32",
          "name": "",
          "type": "uint32"
        }
      ],
      "stateMutability": "view",
      "type": "function"
    },
    {
      "inputs": [
        {
          "internalType": "uint256",
          "name": "newMinValue",
          "type": "uint256"
        }
      ],
      "name": "changeMinValue",
      "outputs": [],
      "stateMutability": "nonpayable",
      "type": "function"
    },
    {
      "inputs": [
        {
          "internalType": "address",
          "name": "",
          "type": "address"
        },
        {
          "internalType": "uint256",
          "name": "",
          "type": "uint256"
        }
      ],
      "name": "gamesResult",
      "outputs": [
        {
          "internalType": "uint256",
          "name": "result",
          "type": "uint256"
        },
        {
          "internalType": "uint256",
          "name": "randNumber",
          "type": "uint256"
        }
      ],
      "stateMutability": "view",
      "type": "function"
    },
    {
      "inputs": [
        {
          "internalType": "uint256",
          "name": "",
          "type": "uint256"
        }
      ],
      "name": "gamesStart",
      "outputs": [
        {
          "internalType": "address",
          "name": "player",
          "type": "address"
        },
        {
          "internalType": "uint256",
          "name": "deposit",
          "type": "uint256"
        },
        {
          "internalType": "uint256",
          "name": "numOfIterations",
          "type": "uint256"
        }
      ],
      "stateMutability": "view",
      "type": "function"
    },
    {
      "inputs": [
        {
          "internalType": "address",
          "name": "player",
          "type": "address"
        },
        {
          "internalType": "uint8",
          "name": "n",
          "type": "uint8"
        }
      ],
      "name": "getLastNPlayerGames",
      "outputs": [
        {
          "components": [
            {
              "internalType": "uint256",
              "name": "result",
              "type": "uint256"
            },
            {
              "internalType": "uint256",
              "name": "randNumber",
              "type": "uint256"
            }
          ],
          "internalType": "struct Roulette.GameRes[]",
          "name": "",
          "type": "tuple[]"
        }
      ],
      "stateMutability": "view",
      "type": "function"
    },
    {
      "inputs": [
        {
          "internalType": "address",
          "name": "player",
          "type": "address"
        }
      ],
      "name": "getLastPlayerGame",
      "outputs": [
        {
          "internalType": "uint256",
          "name": "",
          "type": "uint256"
        },
        {
          "internalType": "uint256",
          "name": "",
          "type": "uint256"
        }
      ],
      "stateMutability": "view",
      "type": "function"
    },
    {
      "inputs": [],
      "name": "getMyWinsTotal",
      "outputs": [
        {
          "internalType": "uint256",
          "name": "",
          "type": "uint256"
        }
      ],
      "stateMutability": "view",
      "type": "function"
    },
    {
      "inputs": [
        {
          "internalType": "uint256",
          "name": "_requestId",
          "type": "uint256"
        }
      ],
      "name": "getRequestStatus",
      "outputs": [
        {
          "internalType": "bool",
          "name": "fulfilled",
          "type": "bool"
        },
        {
          "internalType": "uint256[]",
          "name": "randomWords",
          "type": "uint256[]"
        }
      ],
      "stateMutability": "view",
      "type": "function"
    },
    {
      "inputs": [
        {
          "internalType": "uint8[]",
          "name": "choice",
          "type": "uint8[]"
        },
        {
          "internalType": "uint256",
          "name": "num",
          "type": "uint256"
        }
      ],
      "name": "isIncluded",
      "outputs": [
        {
          "internalType": "bool",
          "name": "",
          "type": "bool"
        }
      ],
      "stateMutability": "view",
      "type": "function"
    },
    {
      "inputs": [],
      "name": "keyHash",
      "outputs": [
        {
          "internalType": "bytes32",
          "name": "",
          "type": "bytes32"
        }
      ],
      "stateMutability": "view",
      "type": "function"
    },
    {
      "inputs": [],
      "name": "lastRequestId",
      "outputs": [
        {
          "internalType": "uint256",
          "name": "",
          "type": "uint256"
        }
      ],
      "stateMutability": "view",
      "type": "function"
    },
    {
      "inputs": [],
      "name": "minValue",
      "outputs": [
        {
          "internalType": "uint256",
          "name": "",
          "type": "uint256"
        }
      ],
      "stateMutability": "view",
      "type": "function"
    },
    {
      "inputs": [],
      "name": "owner",
      "outputs": [
        {
          "internalType": "address",
          "name": "",
          "type": "address"
        }
      ],
      "stateMutability": "view",
      "type": "function"
    },
    {
      "inputs": [],
      "name": "pause",
      "outputs": [
        {
          "internalType": "bool",
          "name": "",
          "type": "bool"
        }
      ],
      "stateMutability": "view",
      "type": "function"
    },
    {
      "inputs": [],
      "name": "pool",
      "outputs": [
        {
          "internalType": "address",
          "name": "",
          "type": "address"
        }
      ],
      "stateMutability": "view",
      "type": "function"
    },
    {
      "inputs": [
        {
          "internalType": "uint256",
          "name": "requestId",
          "type": "uint256"
        },
        {
          "internalType": "uint256[]",
          "name": "randomWords",
          "type": "uint256[]"
        }
      ],
      "name": "rawFulfillRandomWords",
      "outputs": [],
      "stateMutability": "nonpayable",
      "type": "function"
    },
    {
      "inputs": [
        {
          "internalType": "uint256",
          "name": "",
          "type": "uint256"
        }
      ],
      "name": "requestIds",
      "outputs": [
        {
          "internalType": "uint256",
          "name": "",
          "type": "uint256"
        }
      ],
      "stateMutability": "view",
      "type": "function"
    },
    {
      "inputs": [
        {
          "internalType": "uint256",
          "name": "",
          "type": "uint256"
        }
      ],
      "name": "s_requests",
      "outputs": [
        {
          "internalType": "bool",
          "name": "fulfilled",
          "type": "bool"
        },
        {
          "internalType": "bool",
          "name": "exists",
          "type": "bool"
        }
      ],
      "stateMutability": "view",
      "type": "function"
    },
    {
      "inputs": [],
      "name": "s_subscriptionId",
      "outputs": [
        {
          "internalType": "uint64",
          "name": "",
          "type": "uint64"
        }
      ],
      "stateMutability": "view",
      "type": "function"
    },
    {
      "inputs": [
        {
          "internalType": "uint32",
          "name": "newCallbackGasLimit",
          "type": "uint32"
        }
      ],
      "name": "setCallbackGasLimit",
      "outputs": [],
      "stateMutability": "nonpayable",
      "type": "function"
    },
    {
      "inputs": [
        {
          "internalType": "bool",
          "name": "pauseState",
          "type": "bool"
        }
      ],
      "name": "setPause",
      "outputs": [],
      "stateMutability": "nonpayable",
      "type": "function"
    },
    {
      "inputs": [
        {
          "internalType": "address",
          "name": "newPool",
          "type": "address"
        }
      ],
      "name": "setPoolAddress",
      "outputs": [],
      "stateMutability": "nonpayable",
      "type": "function"
    },
    {
      "inputs": [
        {
          "internalType": "uint16",
          "name": "newRequestConfirmations",
          "type": "uint16"
        }
      ],
      "name": "setRequestConfirmations",
      "outputs": [],
      "stateMutability": "nonpayable",
      "type": "function"
    },
    {
      "inputs": [
        {
          "internalType": "uint256",
          "name": "iter",
          "type": "uint256"
        },
        {
          "internalType": "uint8[]",
          "name": "_choice",
          "type": "uint8[]"
        }
      ],
      "name": "startRoll",
      "outputs": [
        {
          "internalType": "uint256",
          "name": "requestId",
          "type": "uint256"
        }
      ],
      "stateMutability": "payable",
      "type": "function"
    },
    {
      "inputs": [
        {
          "internalType": "uint256",
          "name": "iter",
          "type": "uint256"
        },
        {
          "internalType": "uint8[]",
          "name": "_choice",
          "type": "uint8[]"
        },
        {
          "internalType": "address",
          "name": "_referal",
          "type": "address"
        }
      ],
      "name": "startRoll_and_setReferal",
      "outputs": [],
      "stateMutability": "payable",
      "type": "function"
    },
    {
      "inputs": [],
      "name": "sumPlayersMoney",
      "outputs": [
        {
          "internalType": "uint256",
          "name": "",
          "type": "uint256"
        }
      ],
      "stateMutability": "view",
      "type": "function"
    },
    {
      "inputs": [
        {
          "internalType": "address",
          "name": "",
          "type": "address"
        }
      ],
      "name": "totalWinsOfPlayer",
      "outputs": [
        {
          "internalType": "uint256",
          "name": "",
          "type": "uint256"
        }
      ],
      "stateMutability": "view",
      "type": "function"
    }
  ],
  "bytecode": "0x60a06040523480156200001157600080fd5b506040516200383338038062003833833981810160405281019062000037919062000346565b838073ffffffffffffffffffffffffffffffffffffffff1660808173ffffffffffffffffffffffffffffffffffffffff16815250505033600260006101000a81548173ffffffffffffffffffffffffffffffffffffffff021916908373ffffffffffffffffffffffffffffffffffffffff16021790555081600d8190555082600b601c6101000a81548163ffffffff021916908363ffffffff16021790555083600860006101000a81548173ffffffffffffffffffffffffffffffffffffffff021916908373ffffffffffffffffffffffffffffffffffffffff16021790555084600b60006101000a81548167ffffffffffffffff021916908367ffffffffffffffff16021790555083600b60086101000a81548173ffffffffffffffffffffffffffffffffffffffff021916908373ffffffffffffffffffffffffffffffffffffffff16021790555080600360006101000a81548173ffffffffffffffffffffffffffffffffffffffff021916908373ffffffffffffffffffffffffffffffffffffffff1602179055506001600c60026101000a81548163ffffffff021916908363ffffffff1602179055506003600c60006101000a81548161ffff021916908361ffff16021790555066038d7ea4c680006000819055505050505050620003ce565b600080fd5b600067ffffffffffffffff82169050919050565b6200023f8162000220565b81146200024b57600080fd5b50565b6000815190506200025f8162000234565b92915050565b600073ffffffffffffffffffffffffffffffffffffffff82169050919050565b6000620002928262000265565b9050919050565b620002a48162000285565b8114620002b057600080fd5b50565b600081519050620002c48162000299565b92915050565b600063ffffffff82169050919050565b620002e581620002ca565b8114620002f157600080fd5b50565b6000815190506200030581620002da565b92915050565b6000819050919050565b62000320816200030b565b81146200032c57600080fd5b50565b600081519050620003408162000315565b92915050565b600080600080600060a086880312156200036557620003646200021b565b5b600062000375888289016200024e565b95505060206200038888828901620002b3565b94505060406200039b88828901620002f4565b9350506060620003ae888289016200032f565b9250506080620003c188828901620002b3565b9150509295509295909350565b608051613442620003f1600039600081816106e4015261073801526134426000f3fe60806040526004361061019c5760003560e01c80638ac00021116100ec578063bedb86fb1161008a578063e81372cc11610064578063e81372cc146105ff578063e9e15b4f1461062a578063fc2a88c314610653578063fced6e701461067e5761019c565b8063bedb86fb1461055b578063cf1c1e6b14610584578063d8a4676f146105c15761019c565b8063a168fa89116100c6578063a168fa8914610499578063a4eb718c146104d7578063b8fe69b714610500578063ba989c3e146105305761019c565b80638ac00021146104185780638da5cb5b14610443578063963e63c71461046e5761019c565b8063456cae181161015957806377f4a5231161013357806377f4a5231461034a5780638456cb59146103875780638796ba8c146103b25780638824f5a7146103ef5761019c565b8063456cae18146102b957806356a00b93146102e257806361728f391461031f5761019c565b806316f0115b146101a15780631fe543e3146101cc57806324f74697146101f55780633bb31f3a146102205780633ceb735d1461025f5780633ff1814b1461029d575b600080fd5b3480156101ad57600080fd5b506101b66106bc565b6040516101c391906121a4565b60405180910390f35b3480156101d857600080fd5b506101f360048036038101906101ee9190612362565b6106e2565b005b34801561020157600080fd5b5061020a6107a2565b60405161021791906123dd565b60405180910390f35b34801561022c57600080fd5b50610247600480360381019061024291906123f8565b6107b8565b60405161025693929190612434565b60405180910390f35b34801561026b57600080fd5b5061028660048036038101906102819190612497565b610802565b6040516102949291906124c4565b60405180910390f35b6102b760048036038101906102b291906125e9565b610928565b005b3480156102c557600080fd5b506102e060048036038101906102db91906123f8565b610a61565b005b3480156102ee57600080fd5b5061030960048036038101906103049190612658565b610afb565b6040516103169190612785565b60405180910390f35b34801561032b57600080fd5b50610334610d58565b60405161034191906127c0565b60405180910390f35b34801561035657600080fd5b50610371600480360381019061036c91906127db565b610d5e565b60405161037e9190612852565b60405180910390f35b34801561039357600080fd5b5061039c610dbd565b6040516103a99190612852565b60405180910390f35b3480156103be57600080fd5b506103d960048036038101906103d491906123f8565b610dd0565b6040516103e6919061286d565b60405180910390f35b3480156103fb57600080fd5b50610416600480360381019061041191906128c2565b610df4565b005b34801561042457600080fd5b5061042d610ea4565b60405161043a9190612912565b60405180910390f35b34801561044f57600080fd5b50610458610ebe565b60405161046591906121a4565b60405180910390f35b34801561047a57600080fd5b50610483610ee4565b604051610490919061286d565b60405180910390f35b3480156104a557600080fd5b506104c060048036038101906104bb91906123f8565b610eea565b6040516104ce92919061292d565b60405180910390f35b3480156104e357600080fd5b506104fe60048036038101906104f99190612982565b610f28565b005b61051a600480360381019061051591906129af565b610fdc565b604051610527919061286d565b60405180910390f35b34801561053c57600080fd5b50610545611578565b604051610552919061286d565b60405180910390f35b34801561056757600080fd5b50610582600480360381019061057d9190612a37565b61157e565b005b34801561059057600080fd5b506105ab60048036038101906105a69190612497565b61162b565b6040516105b8919061286d565b60405180910390f35b3480156105cd57600080fd5b506105e860048036038101906105e391906123f8565b611643565b6040516105f6929190612b13565b60405180910390f35b34801561060b57600080fd5b5061061461176e565b604051610621919061286d565b60405180910390f35b34801561063657600080fd5b50610651600480360381019061064c9190612497565b6117b5565b005b34801561065f57600080fd5b50610668611889565b604051610675919061286d565b60405180910390f35b34801561068a57600080fd5b506106a560048036038101906106a09190612b43565b61188f565b6040516106b39291906124c4565b60405180910390f35b600360009054906101000a900473ffffffffffffffffffffffffffffffffffffffff1681565b7f000000000000000000000000000000000000000000000000000000000000000073ffffffffffffffffffffffffffffffffffffffff163373ffffffffffffffffffffffffffffffffffffffff161461079457337f00000000000000000000000000000000000000000000000000000000000000006040517f1cf993f400000000000000000000000000000000000000000000000000000000815260040161078b929190612b83565b60405180910390fd5b61079e82826118d0565b5050565b600b601c9054906101000a900463ffffffff1681565b60056020528060005260406000206000915090508060000160009054906101000a900473ffffffffffffffffffffffffffffffffffffffff16908060010154908060020154905083565b60008060006001600660008673ffffffffffffffffffffffffffffffffffffffff1673ffffffffffffffffffffffffffffffffffffffff168152602001908152602001600020805490506108569190612bdb565b9050600660008573ffffffffffffffffffffffffffffffffffffffff1673ffffffffffffffffffffffffffffffffffffffff16815260200190815260200160002081815481106108a9576108a8612c0f565b5b906000526020600020906002020160000154600660008673ffffffffffffffffffffffffffffffffffffffff1673ffffffffffffffffffffffffffffffffffffffff168152602001908152602001600020828154811061090c5761090b612c0f565b5b9060005260206000209060020201600101549250925050915091565b6000600360009054906101000a900473ffffffffffffffffffffffffffffffffffffffff1673ffffffffffffffffffffffffffffffffffffffff168233604051602401610976929190612b83565b6040516020818303038152906040527f17dedeb6000000000000000000000000000000000000000000000000000000007bffffffffffffffffffffffffffffffffffffffffffffffffffffffff19166020820180517bffffffffffffffffffffffffffffffffffffffffffffffffffffffff8381831617835250505050604051610a009190612cb8565b6000604051808303816000865af19150503d8060008114610a3d576040519150601f19603f3d011682016040523d82523d6000602084013e610a42565b606091505b5050905080610a5057600080fd5b610a5a8484610fdc565b5050505050565b600260009054906101000a900473ffffffffffffffffffffffffffffffffffffffff1673ffffffffffffffffffffffffffffffffffffffff163373ffffffffffffffffffffffffffffffffffffffff1614610af1576040517f08c379a0000000000000000000000000000000000000000000000000000000008152600401610ae890612d2c565b60405180910390fd5b8060008190555050565b60608160ff16600660008573ffffffffffffffffffffffffffffffffffffffff1673ffffffffffffffffffffffffffffffffffffffff168152602001908152602001600020805490501015610b85576040517f08c379a0000000000000000000000000000000000000000000000000000000008152600401610b7c90612d98565b60405180910390fd5b60008260ff1667ffffffffffffffff811115610ba457610ba361221f565b5b604051908082528060200260200182016040528015610bdd57816020015b610bca612038565b815260200190600190039081610bc25790505b5090506000808460ff16600660008873ffffffffffffffffffffffffffffffffffffffff1673ffffffffffffffffffffffffffffffffffffffff16815260200190815260200160002080549050610c349190612bdb565b90505b6001600660008873ffffffffffffffffffffffffffffffffffffffff1673ffffffffffffffffffffffffffffffffffffffff16815260200190815260200160002080549050610c869190612bdb565b8111610d4c57600660008773ffffffffffffffffffffffffffffffffffffffff1673ffffffffffffffffffffffffffffffffffffffff1681526020019081526020016000208181548110610cdd57610cdc612c0f565b5b906000526020600020906002020160405180604001604052908160008201548152602001600182015481525050838360ff1681518110610d2057610d1f612c0f565b5b60200260200101819052508180610d3690612db8565b9250508080610d4490612de2565b915050610c37565b50819250505092915050565b600d5481565b600080600090505b8351811015610db15782848281518110610d8357610d82612c0f565b5b602002602001015160ff161415610d9e576001915050610db7565b8080610da990612de2565b915050610d66565b50600090505b92915050565b600360149054906101000a900460ff1681565b60098181548110610de057600080fd5b906000526020600020016000915090505481565b600260009054906101000a900473ffffffffffffffffffffffffffffffffffffffff1673ffffffffffffffffffffffffffffffffffffffff163373ffffffffffffffffffffffffffffffffffffffff1614610e84576040517f08c379a0000000000000000000000000000000000000000000000000000000008152600401610e7b90612d2c565b60405180910390fd5b80600c60006101000a81548161ffff021916908361ffff16021790555050565b600b60009054906101000a900467ffffffffffffffff1681565b600260009054906101000a900473ffffffffffffffffffffffffffffffffffffffff1681565b60005481565b60076020528060005260406000206000915090508060000160009054906101000a900460ff16908060000160019054906101000a900460ff16905082565b600260009054906101000a900473ffffffffffffffffffffffffffffffffffffffff1673ffffffffffffffffffffffffffffffffffffffff163373ffffffffffffffffffffffffffffffffffffffff1614610fb8576040517f08c379a0000000000000000000000000000000000000000000000000000000008152600401610faf90612d2c565b60405180910390fd5b80600b601c6101000a81548163ffffffff021916908363ffffffff16021790555050565b6000600860009054906101000a900473ffffffffffffffffffffffffffffffffffffffff1673ffffffffffffffffffffffffffffffffffffffff16635d3b1d30600d54600b60009054906101000a900467ffffffffffffffff16600c60009054906101000a900461ffff16600b601c9054906101000a900463ffffffff16600c60029054906101000a900463ffffffff166040518663ffffffff1660e01b815260040161108d959493929190612e3a565b602060405180830381600087803b1580156110a757600080fd5b505af11580156110bb573d6000803e3d6000fd5b505050506040513d601f19601f820116820180604052508101906110df9190612ea2565b905060018314806110f05750600283145b806110fb5750600583145b806111065750600a83145b611145576040517f08c379a000000000000000000000000000000000000000000000000000000000815260040161113c90612f1b565b60405180910390fd5b600360149054906101000a900460ff1615611195576040517f08c379a000000000000000000000000000000000000000000000000000000000815260040161118c90612f87565b60405180910390fd5b60005434116111d9576040517f08c379a00000000000000000000000000000000000000000000000000000000081526004016111d090612ff3565b60405180910390fd5b60056064600360009054906101000a900473ffffffffffffffffffffffffffffffffffffffff1673ffffffffffffffffffffffffffffffffffffffff16316112219190613042565b61122b9190613073565b341061126c576040517f08c379a000000000000000000000000000000000000000000000000000000000815260040161126390613119565b60405180910390fd5b6040518060600160405280600015158152602001600115158152602001600067ffffffffffffffff8111156112a4576112a361221f565b5b6040519080825280602002602001820160405280156112d25781602001602082028036833780820191505090505b508152506007600083815260200190815260200160002060008201518160000160006101000a81548160ff02191690831515021790555060208201518160000160016101000a81548160ff0219169083151502179055506040820151816001019080519060200190611345929190612052565b50905050600981908060018154018082558091505060019003906000526020600020016000909190919091505580600a819055506000600360009054906101000a900473ffffffffffffffffffffffffffffffffffffffff1673ffffffffffffffffffffffffffffffffffffffff16346040516113c19061315f565b60006040518083038185875af1925050503d80600081146113fe576040519150601f19603f3d011682016040523d82523d6000602084013e611403565b606091505b505090508061141157600080fd5b7fcc58b13ad3eab50626c6a6300b1d139cd6ebb1688a7cced9461c2f7e762665ee82600c60029054906101000a900463ffffffff16604051611454929190613174565b60405180910390a160405180608001604052803373ffffffffffffffffffffffffffffffffffffffff168152602001348152602001858152602001848152506005600084815260200190815260200160002060008201518160000160006101000a81548173ffffffffffffffffffffffffffffffffffffffff021916908373ffffffffffffffffffffffffffffffffffffffff1602179055506020820151816001015560408201518160020155606082015181600301908051906020019061151d92919061209f565b5090505083343373ffffffffffffffffffffffffffffffffffffffff167f11bfb9a0205444125637098e39c5f768855ca7af34465a0ff497ed756735a07a86604051611569919061325b565b60405180910390a45092915050565b60015481565b600260009054906101000a900473ffffffffffffffffffffffffffffffffffffffff1673ffffffffffffffffffffffffffffffffffffffff163373ffffffffffffffffffffffffffffffffffffffff161461160e576040517f08c379a000000000000000000000000000000000000000000000000000000000815260040161160590612d2c565b60405180910390fd5b80600360146101000a81548160ff02191690831515021790555050565b60046020528060005260406000206000915090505481565b600060606007600084815260200190815260200160002060000160019054906101000a900460ff166116aa576040517f08c379a00000000000000000000000000000000000000000000000000000000081526004016116a1906132c9565b60405180910390fd5b6000600760008581526020019081526020016000206040518060600160405290816000820160009054906101000a900460ff161515151581526020016000820160019054906101000a900460ff161515151581526020016001820180548060200260200160405190810160405280929190818152602001828054801561174f57602002820191906000526020600020905b81548152602001906001019080831161173b575b5050505050815250509050806000015181604001519250925050915091565b6000600460003373ffffffffffffffffffffffffffffffffffffffff1673ffffffffffffffffffffffffffffffffffffffff16815260200190815260200160002054905090565b600260009054906101000a900473ffffffffffffffffffffffffffffffffffffffff1673ffffffffffffffffffffffffffffffffffffffff163373ffffffffffffffffffffffffffffffffffffffff1614611845576040517f08c379a000000000000000000000000000000000000000000000000000000000815260040161183c90612d2c565b60405180910390fd5b80600360006101000a81548173ffffffffffffffffffffffffffffffffffffffff021916908373ffffffffffffffffffffffffffffffffffffffff16021790555050565b600a5481565b600660205281600052604060002081815481106118ab57600080fd5b9060005260206000209060020201600091509150508060000154908060010154905082565b3373ffffffffffffffffffffffffffffffffffffffff16600b60089054906101000a900473ffffffffffffffffffffffffffffffffffffffff1673ffffffffffffffffffffffffffffffffffffffff1614611960576040517f08c379a000000000000000000000000000000000000000000000000000000000815260040161195790613335565b60405180910390fd5b6007600083815260200190815260200160002060000160019054906101000a900460ff166119c3576040517f08c379a00000000000000000000000000000000000000000000000000000000081526004016119ba906132c9565b60405180910390fd5b60016007600084815260200190815260200160002060000160006101000a81548160ff02191690831515021790555080600760008481526020019081526020016000206001019080519060200190611a1c929190612052565b507ffe2e2d779dba245964d4e3ef9b994be63856fd568bf7d3ca9e224755cb1bd54d8282604051611a4e929190613355565b60405180910390a160008060005b6005600086815260200190815260200160002060020154811015611b4e576000611aad86602487600081518110611a9657611a95612c0f565b5b6020026020010151611aa89190613385565b611cb6565b905060008111611ae157600560008781526020019081526020016000206001015483611ad991906133b6565b925082611af1565b8084611aed91906133b6565b9350835b50606485600081518110611b0857611b07612c0f565b5b6020026020010151611b1a9190613042565b85600081518110611b2e57611b2d612c0f565b5b602002602001018181525050508080611b4690612de2565b915050611a5c565b506000600360009054906101000a900473ffffffffffffffffffffffffffffffffffffffff1673ffffffffffffffffffffffffffffffffffffffff166005600087815260200190815260200160002060000160009054906101000a900473ffffffffffffffffffffffffffffffffffffffff168484604051602401611bd593929190612434565b6040516020818303038152906040527f67df93f2000000000000000000000000000000000000000000000000000000007bffffffffffffffffffffffffffffffffffffffffffffffffffffffff19166020820180517bffffffffffffffffffffffffffffffffffffffffffffffffffffffff8381831617835250505050604051611c5f9190612cb8565b6000604051808303816000865af19150503d8060008114611c9c576040519150601f19603f3d011682016040523d82523d6000602084013e611ca1565b606091505b5050905080611caf57600080fd5b5050505050565b600080611d8560056000868152602001908152602001600020600301805480602002602001604051908101604052809291908181526020018280548015611d4257602002820191906000526020600020906000905b82829054906101000a900460ff1660ff1681526020019060010190602082600001049283019260010382029150808411611d0b5790505b50505050508460056000888152602001908152602001600020600201546005600089815260200190815260200160002060010154611d809190613042565b611fee565b905060008114611e1c5780600460006005600088815260200190815260200160002060000160009054906101000a900473ffffffffffffffffffffffffffffffffffffffff1673ffffffffffffffffffffffffffffffffffffffff1673ffffffffffffffffffffffffffffffffffffffff1681526020019081526020016000206000828254611e1491906133b6565b925050819055505b600660006005600087815260200190815260200160002060000160009054906101000a900473ffffffffffffffffffffffffffffffffffffffff1673ffffffffffffffffffffffffffffffffffffffff1673ffffffffffffffffffffffffffffffffffffffff1681526020019081526020016000206040518060400160405280838152602001858152509080600181540180825580915050600190039060005260206000209060020201600090919091909150600082015181600001556020820151816001015550506005600085815260200190815260200160002060000160009054906101000a900473ffffffffffffffffffffffffffffffffffffffff1673ffffffffffffffffffffffffffffffffffffffff16817f40506445c12bf0567f70a80a8a0afb49206e565431fd5363a3d1134b80f28b768560066000600560008b815260200190815260200160002060000160009054906101000a900473ffffffffffffffffffffffffffffffffffffffff1673ffffffffffffffffffffffffffffffffffffffff1673ffffffffffffffffffffffffffffffffffffffff16815260200190815260200160002080549050604051611fdc9291906124c4565b60405180910390a38091505092915050565b6000611ffa8484610d5e565b1561202c57600a84516101686120109190613042565b8361201b9190613073565b6120259190613042565b9050612031565b600090505b9392505050565b604051806040016040528060008152602001600081525090565b82805482825590600052602060002090810192821561208e579160200282015b8281111561208d578251825591602001919060010190612072565b5b50905061209b9190612146565b5090565b82805482825590600052602060002090601f016020900481019282156121355791602002820160005b8382111561210657835183826101000a81548160ff021916908360ff16021790555092602001926001016020816000010492830192600103026120c8565b80156121335782816101000a81549060ff0219169055600101602081600001049283019260010302612106565b505b5090506121429190612146565b5090565b5b8082111561215f576000816000905550600101612147565b5090565b600073ffffffffffffffffffffffffffffffffffffffff82169050919050565b600061218e82612163565b9050919050565b61219e81612183565b82525050565b60006020820190506121b96000830184612195565b92915050565b6000604051905090565b600080fd5b600080fd5b6000819050919050565b6121e6816121d3565b81146121f157600080fd5b50565b600081359050612203816121dd565b92915050565b600080fd5b6000601f19601f8301169050919050565b7f4e487b7100000000000000000000000000000000000000000000000000000000600052604160045260246000fd5b6122578261220e565b810181811067ffffffffffffffff821117156122765761227561221f565b5b80604052505050565b60006122896121bf565b9050612295828261224e565b919050565b600067ffffffffffffffff8211156122b5576122b461221f565b5b602082029050602081019050919050565b600080fd5b60006122de6122d98461229a565b61227f565b90508083825260208201905060208402830185811115612301576123006122c6565b5b835b8181101561232a578061231688826121f4565b845260208401935050602081019050612303565b5050509392505050565b600082601f83011261234957612348612209565b5b81356123598482602086016122cb565b91505092915050565b60008060408385031215612379576123786121c9565b5b6000612387858286016121f4565b925050602083013567ffffffffffffffff8111156123a8576123a76121ce565b5b6123b485828601612334565b9150509250929050565b600063ffffffff82169050919050565b6123d7816123be565b82525050565b60006020820190506123f260008301846123ce565b92915050565b60006020828403121561240e5761240d6121c9565b5b600061241c848285016121f4565b91505092915050565b61242e816121d3565b82525050565b60006060820190506124496000830186612195565b6124566020830185612425565b6124636040830184612425565b949350505050565b61247481612183565b811461247f57600080fd5b50565b6000813590506124918161246b565b92915050565b6000602082840312156124ad576124ac6121c9565b5b60006124bb84828501612482565b91505092915050565b60006040820190506124d96000830185612425565b6124e66020830184612425565b9392505050565b600067ffffffffffffffff8211156125085761250761221f565b5b602082029050602081019050919050565b600060ff82169050919050565b61252f81612519565b811461253a57600080fd5b50565b60008135905061254c81612526565b92915050565b6000612565612560846124ed565b61227f565b90508083825260208201905060208402830185811115612588576125876122c6565b5b835b818110156125b1578061259d888261253d565b84526020840193505060208101905061258a565b5050509392505050565b600082601f8301126125d0576125cf612209565b5b81356125e0848260208601612552565b91505092915050565b600080600060608486031215612602576126016121c9565b5b6000612610868287016121f4565b935050602084013567ffffffffffffffff811115612631576126306121ce565b5b61263d868287016125bb565b925050604061264e86828701612482565b9150509250925092565b6000806040838503121561266f5761266e6121c9565b5b600061267d85828601612482565b925050602061268e8582860161253d565b9150509250929050565b600081519050919050565b600082825260208201905092915050565b6000819050602082019050919050565b6126cd816121d3565b82525050565b6040820160008201516126e960008501826126c4565b5060208201516126fc60208501826126c4565b50505050565b600061270e83836126d3565b60408301905092915050565b6000602082019050919050565b600061273282612698565b61273c81856126a3565b9350612747836126b4565b8060005b8381101561277857815161275f8882612702565b975061276a8361271a565b92505060018101905061274b565b5085935050505092915050565b6000602082019050818103600083015261279f8184612727565b905092915050565b6000819050919050565b6127ba816127a7565b82525050565b60006020820190506127d560008301846127b1565b92915050565b600080604083850312156127f2576127f16121c9565b5b600083013567ffffffffffffffff8111156128105761280f6121ce565b5b61281c858286016125bb565b925050602061282d858286016121f4565b9150509250929050565b60008115159050919050565b61284c81612837565b82525050565b60006020820190506128676000830184612843565b92915050565b60006020820190506128826000830184612425565b92915050565b600061ffff82169050919050565b61289f81612888565b81146128aa57600080fd5b50565b6000813590506128bc81612896565b92915050565b6000602082840312156128d8576128d76121c9565b5b60006128e6848285016128ad565b91505092915050565b600067ffffffffffffffff82169050919050565b61290c816128ef565b82525050565b60006020820190506129276000830184612903565b92915050565b60006040820190506129426000830185612843565b61294f6020830184612843565b9392505050565b61295f816123be565b811461296a57600080fd5b50565b60008135905061297c81612956565b92915050565b600060208284031215612998576129976121c9565b5b60006129a68482850161296d565b91505092915050565b600080604083850312156129c6576129c56121c9565b5b60006129d4858286016121f4565b925050602083013567ffffffffffffffff8111156129f5576129f46121ce565b5b612a01858286016125bb565b9150509250929050565b612a1481612837565b8114612a1f57600080fd5b50565b600081359050612a3181612a0b565b92915050565b600060208284031215612a4d57612a4c6121c9565b5b6000612a5b84828501612a22565b91505092915050565b600081519050919050565b600082825260208201905092915050565b6000819050602082019050919050565b6000612a9c83836126c4565b60208301905092915050565b6000602082019050919050565b6000612ac082612a64565b612aca8185612a6f565b9350612ad583612a80565b8060005b83811015612b06578151612aed8882612a90565b9750612af883612aa8565b925050600181019050612ad9565b5085935050505092915050565b6000604082019050612b286000830185612843565b8181036020830152612b3a8184612ab5565b90509392505050565b60008060408385031215612b5a57612b596121c9565b5b6000612b6885828601612482565b9250506020612b79858286016121f4565b9150509250929050565b6000604082019050612b986000830185612195565b612ba56020830184612195565b9392505050565b7f4e487b7100000000000000000000000000000000000000000000000000000000600052601160045260246000fd5b6000612be6826121d3565b9150612bf1836121d3565b925082821015612c0457612c03612bac565b5b828203905092915050565b7f4e487b7100000000000000000000000000000000000000000000000000000000600052603260045260246000fd5b600081519050919050565b600081905092915050565b60005b83811015612c72578082015181840152602081019050612c57565b83811115612c81576000848401525b50505050565b6000612c9282612c3e565b612c9c8185612c49565b9350612cac818560208601612c54565b80840191505092915050565b6000612cc48284612c87565b915081905092915050565b600082825260208201905092915050565b7f6f6e6c79206f776e657200000000000000000000000000000000000000000000600082015250565b6000612d16600a83612ccf565b9150612d2182612ce0565b602082019050919050565b60006020820190508181036000830152612d4581612d09565b9050919050565b7f4f7574206f66206c696d69747300000000000000000000000000000000000000600082015250565b6000612d82600d83612ccf565b9150612d8d82612d4c565b602082019050919050565b60006020820190508181036000830152612db181612d75565b9050919050565b6000612dc382612519565b915060ff821415612dd757612dd6612bac565b5b600182019050919050565b6000612ded826121d3565b91507fffffffffffffffffffffffffffffffffffffffffffffffffffffffffffffffff821415612e2057612e1f612bac565b5b600182019050919050565b612e3481612888565b82525050565b600060a082019050612e4f60008301886127b1565b612e5c6020830187612903565b612e696040830186612e2b565b612e7660608301856123ce565b612e8360808301846123ce565b9695505050505050565b600081519050612e9c816121dd565b92915050565b600060208284031215612eb857612eb76121c9565b5b6000612ec684828501612e8d565b91505092915050565b7f69746572206f7574206f66206c696d6974000000000000000000000000000000600082015250565b6000612f05601183612ccf565b9150612f1082612ecf565b602082019050919050565b60006020820190508181036000830152612f3481612ef8565b9050919050565b7f636f6e7472616374206973207061757365640000000000000000000000000000600082015250565b6000612f71601283612ccf565b9150612f7c82612f3b565b602082019050919050565b60006020820190508181036000830152612fa081612f64565b9050919050565b7f6465706f73697420697320746f6f206c6f770000000000000000000000000000600082015250565b6000612fdd601283612ccf565b9150612fe882612fa7565b602082019050919050565b6000602082019050818103600083015261300c81612fd0565b9050919050565b7f4e487b7100000000000000000000000000000000000000000000000000000000600052601260045260246000fd5b600061304d826121d3565b9150613058836121d3565b92508261306857613067613013565b5b828204905092915050565b600061307e826121d3565b9150613089836121d3565b9250817fffffffffffffffffffffffffffffffffffffffffffffffffffffffffffffffff04831182151516156130c2576130c1612bac565b5b828202905092915050565b7f6465706f73697420697320746f6f206869676800000000000000000000000000600082015250565b6000613103601383612ccf565b915061310e826130cd565b602082019050919050565b60006020820190508181036000830152613132816130f6565b9050919050565b50565b6000613149600083612c49565b915061315482613139565b600082019050919050565b600061316a8261313c565b9150819050919050565b60006040820190506131896000830185612425565b61319660208301846123ce565b9392505050565b600081519050919050565b600082825260208201905092915050565b6000819050602082019050919050565b6131d281612519565b82525050565b60006131e483836131c9565b60208301905092915050565b6000602082019050919050565b60006132088261319d565b61321281856131a8565b935061321d836131b9565b8060005b8381101561324e57815161323588826131d8565b9750613240836131f0565b925050600181019050613221565b5085935050505092915050565b6000602082019050818103600083015261327581846131fd565b905092915050565b7f72657175657374206e6f7420666f756e64000000000000000000000000000000600082015250565b60006132b3601183612ccf565b91506132be8261327d565b602082019050919050565b600060208201905081810360008301526132e2816132a6565b9050919050565b7f596f7520617265206e6f7420616c6c6f77656400000000000000000000000000600082015250565b600061331f601383612ccf565b915061332a826132e9565b602082019050919050565b6000602082019050818103600083015261334e81613312565b9050919050565b600060408201905061336a6000830185612425565b818103602083015261337c8184612ab5565b90509392505050565b6000613390826121d3565b915061339b836121d3565b9250826133ab576133aa613013565b5b828206905092915050565b60006133c1826121d3565b91506133cc836121d3565b9250827fffffffffffffffffffffffffffffffffffffffffffffffffffffffffffffffff0382111561340157613400612bac565b5b82820190509291505056fea2646970667358221220bb916894323459c6881f521db1f0f2426dba4b107bfc60c32ab7103166c4cccb64736f6c63430008090033",
  "linkReferences": {},
  "deployedLinkReferences": {}
}