{
  "_format": "hh-sol-artifact-1",
  "contractName": "Slot",
  "sourceName": "contracts/Slot.sol",
  "abi": [
    {
      "inputs": [
        {
          "internalType": "uint64",
          "name": "subscriptionId",
          "type": "uint64"
        },
        {
          "internalType": "address",
          "name": "vfrCoordinator_",
          "type": "address"
        },
        {
          "internalType": "uint32",
          "name": "callBackGaslimit_",
          "type": "uint32"
        },
        {
          "internalType": "bytes32",
          "name": "keyHash_",
          "type": "bytes32"
        },
        {
          "internalType": "address",
          "name": "pool_",
          "type": "address"
        }
      ],
      "stateMutability": "nonpayable",
      "type": "constructor"
    },
    {
      "inputs": [
        {
          "internalType": "address",
          "name": "have",
          "type": "address"
        },
        {
          "internalType": "address",
          "name": "want",
          "type": "address"
        }
      ],
      "name": "OnlyCoordinatorCanFulfill",
      "type": "error"
    },
    {
      "anonymous": false,
      "inputs": [
        {
          "indexed": true,
          "internalType": "uint256",
          "name": "winAmount",
          "type": "uint256"
        },
        {
          "indexed": true,
          "internalType": "address",
          "name": "userAddress",
          "type": "address"
        },
        {
          "indexed": true,
          "internalType": "uint256",
          "name": "volumeOfGame",
          "type": "uint256"
        },
        {
          "indexed": false,
          "internalType": "uint256[3]",
          "name": "digits",
          "type": "uint256[3]"
        },
        {
          "indexed": false,
          "internalType": "uint256",
          "name": "gameNumber",
          "type": "uint256"
        }
      ],
      "name": "GameResEvent",
      "type": "event"
    },
    {
      "anonymous": false,
      "inputs": [
        {
          "indexed": true,
          "internalType": "address",
          "name": "userAddress",
          "type": "address"
        },
        {
          "indexed": true,
          "internalType": "uint256",
          "name": "volumeOfGame",
          "type": "uint256"
        },
        {
          "indexed": true,
          "internalType": "uint256",
          "name": "numOfGames",
          "type": "uint256"
        }
      ],
      "name": "GameStartEvent",
      "type": "event"
    },
    {
      "anonymous": false,
      "inputs": [
        {
          "indexed": false,
          "internalType": "uint256",
          "name": "requestId",
          "type": "uint256"
        },
        {
          "indexed": false,
          "internalType": "uint256[]",
          "name": "randomWords",
          "type": "uint256[]"
        }
      ],
      "name": "RequestFulfilled",
      "type": "event"
    },
    {
      "anonymous": false,
      "inputs": [
        {
          "indexed": false,
          "internalType": "uint256",
          "name": "requestId",
          "type": "uint256"
        },
        {
          "indexed": false,
          "internalType": "uint32",
          "name": "numWords",
          "type": "uint32"
        }
      ],
      "name": "RequestSent",
      "type": "event"
    },
    {
      "inputs": [],
      "name": "callbackGasLimit",
      "outputs": [
        {
          "internalType": "uint32",
          "name": "",
          "type": "uint32"
        }
      ],
      "stateMutability": "view",
      "type": "function"
    },
    {
      "inputs": [
        {
          "internalType": "uint256",
          "name": "newMinValue",
          "type": "uint256"
        }
      ],
      "name": "changeMinValue",
      "outputs": [],
      "stateMutability": "nonpayable",
      "type": "function"
    },
    {
      "inputs": [
        {
          "internalType": "address",
          "name": "",
          "type": "address"
        },
        {
          "internalType": "uint256",
          "name": "",
          "type": "uint256"
        }
      ],
      "name": "gamesResult",
      "outputs": [
        {
          "internalType": "uint256",
          "name": "result",
          "type": "uint256"
        },
        {
          "internalType": "uint256",
          "name": "randNumber1",
          "type": "uint256"
        },
        {
          "internalType": "uint256",
          "name": "randNumber2",
          "type": "uint256"
        },
        {
          "internalType": "uint256",
          "name": "randNumber3",
          "type": "uint256"
        }
      ],
      "stateMutability": "view",
      "type": "function"
    },
    {
      "inputs": [
        {
          "internalType": "uint256",
          "name": "",
          "type": "uint256"
        }
      ],
      "name": "gamesStart",
      "outputs": [
        {
          "internalType": "address",
          "name": "player",
          "type": "address"
        },
        {
          "internalType": "uint256",
          "name": "deposit",
          "type": "uint256"
        },
        {
          "internalType": "uint256",
          "name": "numOfIterations",
          "type": "uint256"
        }
      ],
      "stateMutability": "view",
      "type": "function"
    },
    {
      "inputs": [
        {
          "internalType": "address",
          "name": "player",
          "type": "address"
        },
        {
          "internalType": "uint8",
          "name": "n",
          "type": "uint8"
        }
      ],
      "name": "getLastNPlayerGames",
      "outputs": [
        {
          "components": [
            {
              "internalType": "uint256",
              "name": "result",
              "type": "uint256"
            },
            {
              "internalType": "uint256",
              "name": "randNumber1",
              "type": "uint256"
            },
            {
              "internalType": "uint256",
              "name": "randNumber2",
              "type": "uint256"
            },
            {
              "internalType": "uint256",
              "name": "randNumber3",
              "type": "uint256"
            }
          ],
          "internalType": "struct Slot.GameRes[]",
          "name": "",
          "type": "tuple[]"
        }
      ],
      "stateMutability": "view",
      "type": "function"
    },
    {
      "inputs": [
        {
          "internalType": "address",
          "name": "player",
          "type": "address"
        }
      ],
      "name": "getLastPlayerGame",
      "outputs": [
        {
          "internalType": "uint256",
          "name": "",
          "type": "uint256"
        },
        {
          "internalType": "uint256",
          "name": "",
          "type": "uint256"
        },
        {
          "internalType": "uint256",
          "name": "",
          "type": "uint256"
        },
        {
          "internalType": "uint256",
          "name": "",
          "type": "uint256"
        }
      ],
      "stateMutability": "view",
      "type": "function"
    },
    {
      "inputs": [],
      "name": "getMyWinsTotal",
      "outputs": [
        {
          "internalType": "uint256",
          "name": "",
          "type": "uint256"
        }
      ],
      "stateMutability": "view",
      "type": "function"
    },
    {
      "inputs": [
        {
          "internalType": "uint256",
          "name": "_requestId",
          "type": "uint256"
        }
      ],
      "name": "getRequestStatus",
      "outputs": [
        {
          "internalType": "bool",
          "name": "fulfilled",
          "type": "bool"
        },
        {
          "internalType": "uint256[]",
          "name": "randomWords",
          "type": "uint256[]"
        }
      ],
      "stateMutability": "view",
      "type": "function"
    },
    {
      "inputs": [],
      "name": "keyHash",
      "outputs": [
        {
          "internalType": "bytes32",
          "name": "",
          "type": "bytes32"
        }
      ],
      "stateMutability": "view",
      "type": "function"
    },
    {
      "inputs": [],
      "name": "lastRequestId",
      "outputs": [
        {
          "internalType": "uint256",
          "name": "",
          "type": "uint256"
        }
      ],
      "stateMutability": "view",
      "type": "function"
    },
    {
      "inputs": [],
      "name": "minValue",
      "outputs": [
        {
          "internalType": "uint256",
          "name": "",
          "type": "uint256"
        }
      ],
      "stateMutability": "view",
      "type": "function"
    },
    {
      "inputs": [],
      "name": "owner",
      "outputs": [
        {
          "internalType": "address",
          "name": "",
          "type": "address"
        }
      ],
      "stateMutability": "view",
      "type": "function"
    },
    {
      "inputs": [],
      "name": "pause",
      "outputs": [
        {
          "internalType": "bool",
          "name": "",
          "type": "bool"
        }
      ],
      "stateMutability": "view",
      "type": "function"
    },
    {
      "inputs": [],
      "name": "pool",
      "outputs": [
        {
          "internalType": "address",
          "name": "",
          "type": "address"
        }
      ],
      "stateMutability": "view",
      "type": "function"
    },
    {
      "inputs": [
        {
          "internalType": "uint256",
          "name": "requestId",
          "type": "uint256"
        },
        {
          "internalType": "uint256[]",
          "name": "randomWords",
          "type": "uint256[]"
        }
      ],
      "name": "rawFulfillRandomWords",
      "outputs": [],
      "stateMutability": "nonpayable",
      "type": "function"
    },
    {
      "inputs": [],
      "name": "requestConfirmations",
      "outputs": [
        {
          "internalType": "uint16",
          "name": "",
          "type": "uint16"
        }
      ],
      "stateMutability": "view",
      "type": "function"
    },
    {
      "inputs": [
        {
          "internalType": "uint256",
          "name": "",
          "type": "uint256"
        }
      ],
      "name": "requestIds",
      "outputs": [
        {
          "internalType": "uint256",
          "name": "",
          "type": "uint256"
        }
      ],
      "stateMutability": "view",
      "type": "function"
    },
    {
      "inputs": [
        {
          "internalType": "uint256",
          "name": "",
          "type": "uint256"
        }
      ],
      "name": "s_requests",
      "outputs": [
        {
          "internalType": "bool",
          "name": "fulfilled",
          "type": "bool"
        },
        {
          "internalType": "bool",
          "name": "exists",
          "type": "bool"
        }
      ],
      "stateMutability": "view",
      "type": "function"
    },
    {
      "inputs": [],
      "name": "s_subscriptionId",
      "outputs": [
        {
          "internalType": "uint64",
          "name": "",
          "type": "uint64"
        }
      ],
      "stateMutability": "view",
      "type": "function"
    },
    {
      "inputs": [
        {
          "internalType": "uint32",
          "name": "newCallbackGasLimit",
          "type": "uint32"
        }
      ],
      "name": "setCallbackGasLimit",
      "outputs": [],
      "stateMutability": "nonpayable",
      "type": "function"
    },
    {
      "inputs": [
        {
          "internalType": "bool",
          "name": "pauseState",
          "type": "bool"
        }
      ],
      "name": "setPause",
      "outputs": [],
      "stateMutability": "nonpayable",
      "type": "function"
    },
    {
      "inputs": [
        {
          "internalType": "address",
          "name": "newPool",
          "type": "address"
        }
      ],
      "name": "setPoolAddress",
      "outputs": [],
      "stateMutability": "nonpayable",
      "type": "function"
    },
    {
      "inputs": [
        {
          "internalType": "uint16",
          "name": "newRequestConfirmations",
          "type": "uint16"
        }
      ],
      "name": "setRequestConfirmations",
      "outputs": [],
      "stateMutability": "nonpayable",
      "type": "function"
    },
    {
      "inputs": [
        {
          "internalType": "uint256",
          "name": "iter",
          "type": "uint256"
        }
      ],
      "name": "startRoll",
      "outputs": [
        {
          "internalType": "uint256",
          "name": "requestId",
          "type": "uint256"
        }
      ],
      "stateMutability": "payable",
      "type": "function"
    },
    {
      "inputs": [
        {
          "internalType": "uint256",
          "name": "iter",
          "type": "uint256"
        },
        {
          "internalType": "address",
          "name": "_referal",
          "type": "address"
        }
      ],
      "name": "startRoll_and_setReferal",
      "outputs": [],
      "stateMutability": "payable",
      "type": "function"
    },
    {
      "inputs": [
        {
          "internalType": "address",
          "name": "",
          "type": "address"
        }
      ],
      "name": "totalWinsOfPlayer",
      "outputs": [
        {
          "internalType": "uint256",
          "name": "",
          "type": "uint256"
        }
      ],
      "stateMutability": "view",
      "type": "function"
    }
  ],
  "bytecode": "0x6101206040523480156200001257600080fd5b50604051620036c8380380620036c88339818101604052810190620000389190620002e1565b838073ffffffffffffffffffffffffffffffffffffffff1660808173ffffffffffffffffffffffffffffffffffffffff16815250505033600160006101000a81548173ffffffffffffffffffffffffffffffffffffffff021916908373ffffffffffffffffffffffffffffffffffffffff16021790555081610100818152505082600960006101000a81548163ffffffff021916908363ffffffff1602179055508373ffffffffffffffffffffffffffffffffffffffff1660a08173ffffffffffffffffffffffffffffffffffffffff16815250508467ffffffffffffffff1660c08167ffffffffffffffff168152505080600260006101000a81548173ffffffffffffffffffffffffffffffffffffffff021916908373ffffffffffffffffffffffffffffffffffffffff160217905550600163ffffffff1660e08163ffffffff16815250506003600960046101000a81548161ffff021916908361ffff16021790555066038d7ea4c68000600081905550505050505062000369565b600080fd5b600067ffffffffffffffff82169050919050565b620001da81620001bb565b8114620001e657600080fd5b50565b600081519050620001fa81620001cf565b92915050565b600073ffffffffffffffffffffffffffffffffffffffff82169050919050565b60006200022d8262000200565b9050919050565b6200023f8162000220565b81146200024b57600080fd5b50565b6000815190506200025f8162000234565b92915050565b600063ffffffff82169050919050565b620002808162000265565b81146200028c57600080fd5b50565b600081519050620002a08162000275565b92915050565b6000819050919050565b620002bb81620002a6565b8114620002c757600080fd5b50565b600081519050620002db81620002b0565b92915050565b600080600080600060a086880312156200030057620002ff620001b6565b5b60006200031088828901620001e9565b955050602062000323888289016200024e565b945050604062000336888289016200028f565b93505060606200034988828901620002ca565b92505060806200035c888289016200024e565b9150509295509295909350565b60805160a05160c05160e051610100516132fe620003ca60003960008181610de701526111330152600081816111990152611571015260008181610ef20152611154015260006110f701526000818161069001526106e401526132fe6000f3fe6080604052600436106101815760003560e01c80638da5cb5b116100d1578063c168b3711161008a578063e81372cc11610064578063e81372cc146105a9578063e9e15b4f146105d4578063fc2a88c3146105fd578063fced6e701461062857610181565b8063c168b371146104fe578063cf1c1e6b1461052e578063d8a4676f1461056b57610181565b80638da5cb5b146103ed578063963e63c714610418578063a168fa8914610443578063a4eb718c14610481578063b0fb162f146104aa578063bedb86fb146104d557610181565b8063456cae181161013e5780638456cb59116101185780638456cb59146103315780638796ba8c1461035c5780638824f5a7146103995780638ac00021146103c257610181565b8063456cae18146102a057806356a00b93146102c957806361728f391461030657610181565b806316f0115b146101865780631fe543e3146101b157806324f74697146101da5780633bb31f3a146102055780633ceb735d1461024457806340f1268c14610284575b600080fd5b34801561019257600080fd5b5061019b610668565b6040516101a89190612291565b60405180910390f35b3480156101bd57600080fd5b506101d860048036038101906101d3919061244f565b61068e565b005b3480156101e657600080fd5b506101ef61074e565b6040516101fc91906124ca565b60405180910390f35b34801561021157600080fd5b5061022c600480360381019061022791906124e5565b610764565b60405161023b93929190612521565b60405180910390f35b34801561025057600080fd5b5061026b60048036038101906102669190612584565b6107ae565b60405161027b94939291906125b1565b60405180910390f35b61029e600480360381019061029991906125f6565b6109a3565b005b3480156102ac57600080fd5b506102c760048036038101906102c291906124e5565b610ada565b005b3480156102d557600080fd5b506102f060048036038101906102eb919061266f565b610b74565b6040516102fd91906127c2565b60405180910390f35b34801561031257600080fd5b5061031b610de5565b60405161032891906127fd565b60405180910390f35b34801561033d57600080fd5b50610346610e09565b6040516103539190612833565b60405180910390f35b34801561036857600080fd5b50610383600480360381019061037e91906124e5565b610e1c565b604051610390919061284e565b60405180910390f35b3480156103a557600080fd5b506103c060048036038101906103bb91906128a3565b610e40565b005b3480156103ce57600080fd5b506103d7610ef0565b6040516103e491906128f3565b60405180910390f35b3480156103f957600080fd5b50610402610f14565b60405161040f9190612291565b60405180910390f35b34801561042457600080fd5b5061042d610f3a565b60405161043a919061284e565b60405180910390f35b34801561044f57600080fd5b5061046a600480360381019061046591906124e5565b610f40565b60405161047892919061290e565b60405180910390f35b34801561048d57600080fd5b506104a860048036038101906104a39190612963565b610f7e565b005b3480156104b657600080fd5b506104bf611032565b6040516104cc919061299f565b60405180910390f35b3480156104e157600080fd5b506104fc60048036038101906104f791906129e6565b611046565b005b610518600480360381019061051391906124e5565b6110f3565b604051610525919061284e565b60405180910390f35b34801561053a57600080fd5b5061055560048036038101906105509190612584565b611693565b604051610562919061284e565b60405180910390f35b34801561057757600080fd5b50610592600480360381019061058d91906124e5565b6116ab565b6040516105a0929190612ac2565b60405180910390f35b3480156105b557600080fd5b506105be6117d6565b6040516105cb919061284e565b60405180910390f35b3480156105e057600080fd5b506105fb60048036038101906105f69190612584565b61181d565b005b34801561060957600080fd5b506106126118f1565b60405161061f919061284e565b60405180910390f35b34801561063457600080fd5b5061064f600480360381019061064a9190612af2565b6118f7565b60405161065f94939291906125b1565b60405180910390f35b600260009054906101000a900473ffffffffffffffffffffffffffffffffffffffff1681565b7f000000000000000000000000000000000000000000000000000000000000000073ffffffffffffffffffffffffffffffffffffffff163373ffffffffffffffffffffffffffffffffffffffff161461074057337f00000000000000000000000000000000000000000000000000000000000000006040517f1cf993f4000000000000000000000000000000000000000000000000000000008152600401610737929190612b32565b60405180910390fd5b61074a8282611944565b5050565b600960009054906101000a900463ffffffff1681565b60046020528060005260406000206000915090508060000160009054906101000a900473ffffffffffffffffffffffffffffffffffffffff16908060010154908060020154905083565b60008060008060006001600560008873ffffffffffffffffffffffffffffffffffffffff1673ffffffffffffffffffffffffffffffffffffffff168152602001908152602001600020805490506108059190612b8a565b9050600560008773ffffffffffffffffffffffffffffffffffffffff1673ffffffffffffffffffffffffffffffffffffffff168152602001908152602001600020818154811061085857610857612bbe565b5b906000526020600020906004020160000154600560008873ffffffffffffffffffffffffffffffffffffffff1673ffffffffffffffffffffffffffffffffffffffff16815260200190815260200160002082815481106108bb576108ba612bbe565b5b906000526020600020906004020160010154600560008973ffffffffffffffffffffffffffffffffffffffff1673ffffffffffffffffffffffffffffffffffffffff168152602001908152602001600020838154811061091e5761091d612bbe565b5b906000526020600020906004020160020154600560008a73ffffffffffffffffffffffffffffffffffffffff1673ffffffffffffffffffffffffffffffffffffffff168152602001908152602001600020848154811061098157610980612bbe565b5b9060005260206000209060040201600301549450945094509450509193509193565b6000600260009054906101000a900473ffffffffffffffffffffffffffffffffffffffff1673ffffffffffffffffffffffffffffffffffffffff1682336040516024016109f1929190612b32565b6040516020818303038152906040527f17dedeb6000000000000000000000000000000000000000000000000000000007bffffffffffffffffffffffffffffffffffffffffffffffffffffffff19166020820180517bffffffffffffffffffffffffffffffffffffffffffffffffffffffff8381831617835250505050604051610a7b9190612c5e565b6000604051808303816000865af19150503d8060008114610ab8576040519150601f19603f3d011682016040523d82523d6000602084013e610abd565b606091505b5050905080610acb57600080fd5b610ad4836110f3565b50505050565b600160009054906101000a900473ffffffffffffffffffffffffffffffffffffffff1673ffffffffffffffffffffffffffffffffffffffff163373ffffffffffffffffffffffffffffffffffffffff1614610b6a576040517f08c379a0000000000000000000000000000000000000000000000000000000008152600401610b6190612cd2565b60405180910390fd5b8060008190555050565b60608160ff16600560008573ffffffffffffffffffffffffffffffffffffffff1673ffffffffffffffffffffffffffffffffffffffff168152602001908152602001600020805490501015610bfe576040517f08c379a0000000000000000000000000000000000000000000000000000000008152600401610bf590612d3e565b60405180910390fd5b60008260ff1667ffffffffffffffff811115610c1d57610c1c61230c565b5b604051908082528060200260200182016040528015610c5657816020015b610c436121be565b815260200190600190039081610c3b5790505b5090506000808460ff16600560008873ffffffffffffffffffffffffffffffffffffffff1673ffffffffffffffffffffffffffffffffffffffff16815260200190815260200160002080549050610cad9190612b8a565b90505b6001600560008873ffffffffffffffffffffffffffffffffffffffff1673ffffffffffffffffffffffffffffffffffffffff16815260200190815260200160002080549050610cff9190612b8a565b8111610dd957600560008773ffffffffffffffffffffffffffffffffffffffff1673ffffffffffffffffffffffffffffffffffffffff1681526020019081526020016000208181548110610d5657610d55612bbe565b5b9060005260206000209060040201604051806080016040529081600082015481526020016001820154815260200160028201548152602001600382015481525050838360ff1681518110610dad57610dac612bbe565b5b60200260200101819052508180610dc390612d5e565b9250508080610dd190612d87565b915050610cb0565b50819250505092915050565b7f000000000000000000000000000000000000000000000000000000000000000081565b600260149054906101000a900460ff1681565b60078181548110610e2c57600080fd5b906000526020600020016000915090505481565b600160009054906101000a900473ffffffffffffffffffffffffffffffffffffffff1673ffffffffffffffffffffffffffffffffffffffff163373ffffffffffffffffffffffffffffffffffffffff1614610ed0576040517f08c379a0000000000000000000000000000000000000000000000000000000008152600401610ec790612cd2565b60405180910390fd5b80600960046101000a81548161ffff021916908361ffff16021790555050565b7f000000000000000000000000000000000000000000000000000000000000000081565b600160009054906101000a900473ffffffffffffffffffffffffffffffffffffffff1681565b60005481565b60066020528060005260406000206000915090508060000160009054906101000a900460ff16908060000160019054906101000a900460ff16905082565b600160009054906101000a900473ffffffffffffffffffffffffffffffffffffffff1673ffffffffffffffffffffffffffffffffffffffff163373ffffffffffffffffffffffffffffffffffffffff161461100e576040517f08c379a000000000000000000000000000000000000000000000000000000000815260040161100590612cd2565b60405180910390fd5b80600960006101000a81548163ffffffff021916908363ffffffff16021790555050565b600960049054906101000a900461ffff1681565b600160009054906101000a900473ffffffffffffffffffffffffffffffffffffffff1673ffffffffffffffffffffffffffffffffffffffff163373ffffffffffffffffffffffffffffffffffffffff16146110d6576040517f08c379a00000000000000000000000000000000000000000000000000000000081526004016110cd90612cd2565b60405180910390fd5b80600260146101000a81548160ff02191690831515021790555050565b60007f000000000000000000000000000000000000000000000000000000000000000073ffffffffffffffffffffffffffffffffffffffff16635d3b1d307f00000000000000000000000000000000000000000000000000000000000000007f0000000000000000000000000000000000000000000000000000000000000000600960049054906101000a900461ffff16600960009054906101000a900463ffffffff167f00000000000000000000000000000000000000000000000000000000000000006040518663ffffffff1660e01b81526004016111d8959493929190612dcf565b6020604051808303816000875af11580156111f7573d6000803e3d6000fd5b505050506040513d601f19601f8201168201806040525081019061121b9190612e37565b9050600182148061122c5750600282145b806112375750600582145b806112425750600a82145b611281576040517f08c379a000000000000000000000000000000000000000000000000000000000815260040161127890612eb0565b60405180910390fd5b600260149054906101000a900460ff16156112d1576040517f08c379a00000000000000000000000000000000000000000000000000000000081526004016112c890612f1c565b60405180910390fd5b6000543411611315576040517f08c379a000000000000000000000000000000000000000000000000000000000815260040161130c90612f88565b60405180910390fd5b60646005600260009054906101000a900473ffffffffffffffffffffffffffffffffffffffff1673ffffffffffffffffffffffffffffffffffffffff163161135d9190612fa8565b6113679190613019565b34106113a8576040517f08c379a000000000000000000000000000000000000000000000000000000000815260040161139f90613096565b60405180910390fd5b6040518060600160405280600015158152602001600115158152602001600067ffffffffffffffff8111156113e0576113df61230c565b5b60405190808252806020026020018201604052801561140e5781602001602082028036833780820191505090505b508152506006600083815260200190815260200160002060008201518160000160006101000a81548160ff02191690831515021790555060208201518160000160016101000a81548160ff02191690831515021790555060408201518160010190805190602001906114819291906121e6565b509050506007819080600181540180825580915050600190039060005260206000200160009091909190915055806008819055506000600260009054906101000a900473ffffffffffffffffffffffffffffffffffffffff1673ffffffffffffffffffffffffffffffffffffffff16346040516114fd906130dc565b60006040518083038185875af1925050503d806000811461153a576040519150601f19603f3d011682016040523d82523d6000602084013e61153f565b606091505b505090508061154d57600080fd5b7fcc58b13ad3eab50626c6a6300b1d139cd6ebb1688a7cced9461c2f7e762665ee827f000000000000000000000000000000000000000000000000000000000000000060405161159e9291906130f1565b60405180910390a160405180606001604052803373ffffffffffffffffffffffffffffffffffffffff168152602001348152602001848152506004600084815260200190815260200160002060008201518160000160006101000a81548173ffffffffffffffffffffffffffffffffffffffff021916908373ffffffffffffffffffffffffffffffffffffffff160217905550602082015181600101556040820151816002015590505082343373ffffffffffffffffffffffffffffffffffffffff167ffe3a80d632fd070028c65fb971966358bba3127f30b9743bad14732e996d46db60405160405180910390a450919050565b60036020528060005260406000206000915090505481565b600060606006600084815260200190815260200160002060000160019054906101000a900460ff16611712576040517f08c379a000000000000000000000000000000000000000000000000000000000815260040161170990613166565b60405180910390fd5b6000600660008581526020019081526020016000206040518060600160405290816000820160009054906101000a900460ff161515151581526020016000820160019054906101000a900460ff16151515158152602001600182018054806020026020016040519081016040528092919081815260200182805480156117b757602002820191906000526020600020905b8154815260200190600101908083116117a3575b5050505050815250509050806000015181604001519250925050915091565b6000600360003373ffffffffffffffffffffffffffffffffffffffff1673ffffffffffffffffffffffffffffffffffffffff16815260200190815260200160002054905090565b600160009054906101000a900473ffffffffffffffffffffffffffffffffffffffff1673ffffffffffffffffffffffffffffffffffffffff163373ffffffffffffffffffffffffffffffffffffffff16146118ad576040517f08c379a00000000000000000000000000000000000000000000000000000000081526004016118a490612cd2565b60405180910390fd5b80600260006101000a81548173ffffffffffffffffffffffffffffffffffffffff021916908373ffffffffffffffffffffffffffffffffffffffff16021790555050565b60085481565b6005602052816000526040600020818154811061191357600080fd5b9060005260206000209060040201600091509150508060000154908060010154908060020154908060030154905084565b6006600083815260200190815260200160002060000160019054906101000a900460ff166119a7576040517f08c379a000000000000000000000000000000000000000000000000000000000815260040161199e90613166565b60405180910390fd5b60016006600084815260200190815260200160002060000160006101000a81548160ff02191690831515021790555080600660008481526020019081526020016000206001019080519060200190611a009291906121e6565b507ffe2e2d779dba245964d4e3ef9b994be63856fd568bf7d3ca9e224755cb1bd54d8282604051611a32929190613186565b60405180910390a160008060005b6004600086815260200190815260200160002060020154811015611bbc576000611af986600687600081518110611a7a57611a79612bbe565b5b6020026020010151611a8c91906131b6565b6006600a89600081518110611aa457611aa3612bbe565b5b6020026020010151611ab69190613019565b611ac091906131b6565b600660648a600081518110611ad857611ad7612bbe565b5b6020026020010151611aea9190613019565b611af491906131b6565b611d24565b905060008111611b4e5760046000878152602001908152602001600020600201546004600088815260200190815260200160002060010154611b3b9190613019565b83611b4691906131e7565b925082611b5e565b8084611b5a91906131e7565b9350835b506103e885600081518110611b7657611b75612bbe565b5b6020026020010151611b889190613019565b85600081518110611b9c57611b9b612bbe565b5b602002602001018181525050508080611bb490612d87565b915050611a40565b506000600260009054906101000a900473ffffffffffffffffffffffffffffffffffffffff1673ffffffffffffffffffffffffffffffffffffffff166004600087815260200190815260200160002060000160009054906101000a900473ffffffffffffffffffffffffffffffffffffffff168484604051602401611c4393929190612521565b6040516020818303038152906040527f67df93f2000000000000000000000000000000000000000000000000000000007bffffffffffffffffffffffffffffffffffffffffffffffffffffffff19166020820180517bffffffffffffffffffffffffffffffffffffffffffffffffffffffff8381831617835250505050604051611ccd9190612c5e565b6000604051808303816000865af19150503d8060008114611d0a576040519150601f19603f3d011682016040523d82523d6000602084013e611d0f565b606091505b5050905080611d1d57600080fd5b5050505050565b600080611d6a858585600460008b815260200190815260200160002060020154600460008c815260200190815260200160002060010154611d659190613019565b612047565b905060008114611e01578060036000600460008a815260200190815260200160002060000160009054906101000a900473ffffffffffffffffffffffffffffffffffffffff1673ffffffffffffffffffffffffffffffffffffffff1673ffffffffffffffffffffffffffffffffffffffff1681526020019081526020016000206000828254611df991906131e7565b925050819055505b600560006004600089815260200190815260200160002060000160009054906101000a900473ffffffffffffffffffffffffffffffffffffffff1673ffffffffffffffffffffffffffffffffffffffff1673ffffffffffffffffffffffffffffffffffffffff168152602001908152602001600020604051806080016040528083815260200187815260200186815260200185815250908060018154018082558091505060019003906000526020600020906004020160009091909190915060008201518160000155602082015181600101556040820151816002015560608201518160030155505060046000878152602001908152602001600020600201546004600088815260200190815260200160002060010154611f229190613019565b6004600088815260200190815260200160002060000160009054906101000a900473ffffffffffffffffffffffffffffffffffffffff1673ffffffffffffffffffffffffffffffffffffffff16827f01ef29067636290ed3cbf9262f0c49a06f98bb4895bba397a8c24946ab17759e60405180606001604052808a81526020018981526020018881525060056000600460008e815260200190815260200160002060000160009054906101000a900473ffffffffffffffffffffffffffffffffffffffff1673ffffffffffffffffffffffffffffffffffffffff1673ffffffffffffffffffffffffffffffffffffffff1681526020019081526020016000208054905060405161203392919061329f565b60405180910390a480915050949350505050565b60006005851480156120595750600584145b80156120655750600583145b80612088575060008514801561207b5750600084145b80156120875750600083145b5b156120a15760058261209a9190612fa8565b90506121b6565b6004851480156120b15750600484145b80156120bd5750600483145b156120d6576003826120cf9190612fa8565b90506121b6565b6003851480156120e65750600384145b80156120f25750600383145b1561210b576003826121049190612fa8565b90506121b6565b60028514801561211b5750600284145b80156121275750600283145b15612140576003826121399190612fa8565b90506121b6565b6001851480156121505750600184145b801561215c5750600183145b156121755760038261216e9190612fa8565b90506121b6565b8385148061218257508285145b8061218c57508284145b156121b157600a6011836121a09190612fa8565b6121aa9190613019565b90506121b6565b600090505b949350505050565b6040518060800160405280600081526020016000815260200160008152602001600081525090565b828054828255906000526020600020908101928215612222579160200282015b82811115612221578251825591602001919060010190612206565b5b50905061222f9190612233565b5090565b5b8082111561224c576000816000905550600101612234565b5090565b600073ffffffffffffffffffffffffffffffffffffffff82169050919050565b600061227b82612250565b9050919050565b61228b81612270565b82525050565b60006020820190506122a66000830184612282565b92915050565b6000604051905090565b600080fd5b600080fd5b6000819050919050565b6122d3816122c0565b81146122de57600080fd5b50565b6000813590506122f0816122ca565b92915050565b600080fd5b6000601f19601f8301169050919050565b7f4e487b7100000000000000000000000000000000000000000000000000000000600052604160045260246000fd5b612344826122fb565b810181811067ffffffffffffffff821117156123635761236261230c565b5b80604052505050565b60006123766122ac565b9050612382828261233b565b919050565b600067ffffffffffffffff8211156123a2576123a161230c565b5b602082029050602081019050919050565b600080fd5b60006123cb6123c684612387565b61236c565b905080838252602082019050602084028301858111156123ee576123ed6123b3565b5b835b81811015612417578061240388826122e1565b8452602084019350506020810190506123f0565b5050509392505050565b600082601f830112612436576124356122f6565b5b81356124468482602086016123b8565b91505092915050565b60008060408385031215612466576124656122b6565b5b6000612474858286016122e1565b925050602083013567ffffffffffffffff811115612495576124946122bb565b5b6124a185828601612421565b9150509250929050565b600063ffffffff82169050919050565b6124c4816124ab565b82525050565b60006020820190506124df60008301846124bb565b92915050565b6000602082840312156124fb576124fa6122b6565b5b6000612509848285016122e1565b91505092915050565b61251b816122c0565b82525050565b60006060820190506125366000830186612282565b6125436020830185612512565b6125506040830184612512565b949350505050565b61256181612270565b811461256c57600080fd5b50565b60008135905061257e81612558565b92915050565b60006020828403121561259a576125996122b6565b5b60006125a88482850161256f565b91505092915050565b60006080820190506125c66000830187612512565b6125d36020830186612512565b6125e06040830185612512565b6125ed6060830184612512565b95945050505050565b6000806040838503121561260d5761260c6122b6565b5b600061261b858286016122e1565b925050602061262c8582860161256f565b9150509250929050565b600060ff82169050919050565b61264c81612636565b811461265757600080fd5b50565b60008135905061266981612643565b92915050565b60008060408385031215612686576126856122b6565b5b60006126948582860161256f565b92505060206126a58582860161265a565b9150509250929050565b600081519050919050565b600082825260208201905092915050565b6000819050602082019050919050565b6126e4816122c0565b82525050565b60808201600082015161270060008501826126db565b50602082015161271360208501826126db565b50604082015161272660408501826126db565b50606082015161273960608501826126db565b50505050565b600061274b83836126ea565b60808301905092915050565b6000602082019050919050565b600061276f826126af565b61277981856126ba565b9350612784836126cb565b8060005b838110156127b557815161279c888261273f565b97506127a783612757565b925050600181019050612788565b5085935050505092915050565b600060208201905081810360008301526127dc8184612764565b905092915050565b6000819050919050565b6127f7816127e4565b82525050565b600060208201905061281260008301846127ee565b92915050565b60008115159050919050565b61282d81612818565b82525050565b60006020820190506128486000830184612824565b92915050565b60006020820190506128636000830184612512565b92915050565b600061ffff82169050919050565b61288081612869565b811461288b57600080fd5b50565b60008135905061289d81612877565b92915050565b6000602082840312156128b9576128b86122b6565b5b60006128c78482850161288e565b91505092915050565b600067ffffffffffffffff82169050919050565b6128ed816128d0565b82525050565b600060208201905061290860008301846128e4565b92915050565b60006040820190506129236000830185612824565b6129306020830184612824565b9392505050565b612940816124ab565b811461294b57600080fd5b50565b60008135905061295d81612937565b92915050565b600060208284031215612979576129786122b6565b5b60006129878482850161294e565b91505092915050565b61299981612869565b82525050565b60006020820190506129b46000830184612990565b92915050565b6129c381612818565b81146129ce57600080fd5b50565b6000813590506129e0816129ba565b92915050565b6000602082840312156129fc576129fb6122b6565b5b6000612a0a848285016129d1565b91505092915050565b600081519050919050565b600082825260208201905092915050565b6000819050602082019050919050565b6000612a4b83836126db565b60208301905092915050565b6000602082019050919050565b6000612a6f82612a13565b612a798185612a1e565b9350612a8483612a2f565b8060005b83811015612ab5578151612a9c8882612a3f565b9750612aa783612a57565b925050600181019050612a88565b5085935050505092915050565b6000604082019050612ad76000830185612824565b8181036020830152612ae98184612a64565b90509392505050565b60008060408385031215612b0957612b086122b6565b5b6000612b178582860161256f565b9250506020612b28858286016122e1565b9150509250929050565b6000604082019050612b476000830185612282565b612b546020830184612282565b9392505050565b7f4e487b7100000000000000000000000000000000000000000000000000000000600052601160045260246000fd5b6000612b95826122c0565b9150612ba0836122c0565b9250828203905081811115612bb857612bb7612b5b565b5b92915050565b7f4e487b7100000000000000000000000000000000000000000000000000000000600052603260045260246000fd5b600081519050919050565b600081905092915050565b60005b83811015612c21578082015181840152602081019050612c06565b60008484015250505050565b6000612c3882612bed565b612c428185612bf8565b9350612c52818560208601612c03565b80840191505092915050565b6000612c6a8284612c2d565b915081905092915050565b600082825260208201905092915050565b7f6f6e6c79206f776e657200000000000000000000000000000000000000000000600082015250565b6000612cbc600a83612c75565b9150612cc782612c86565b602082019050919050565b60006020820190508181036000830152612ceb81612caf565b9050919050565b7f4f7574206f66206c696d69747300000000000000000000000000000000000000600082015250565b6000612d28600d83612c75565b9150612d3382612cf2565b602082019050919050565b60006020820190508181036000830152612d5781612d1b565b9050919050565b6000612d6982612636565b915060ff8203612d7c57612d7b612b5b565b5b600182019050919050565b6000612d92826122c0565b91507fffffffffffffffffffffffffffffffffffffffffffffffffffffffffffffffff8203612dc457612dc3612b5b565b5b600182019050919050565b600060a082019050612de460008301886127ee565b612df160208301876128e4565b612dfe6040830186612990565b612e0b60608301856124bb565b612e1860808301846124bb565b9695505050505050565b600081519050612e31816122ca565b92915050565b600060208284031215612e4d57612e4c6122b6565b5b6000612e5b84828501612e22565b91505092915050565b7f69746572206f7574206f66206c696d6974000000000000000000000000000000600082015250565b6000612e9a601183612c75565b9150612ea582612e64565b602082019050919050565b60006020820190508181036000830152612ec981612e8d565b9050919050565b7f636f6e7472616374206973207061757365640000000000000000000000000000600082015250565b6000612f06601283612c75565b9150612f1182612ed0565b602082019050919050565b60006020820190508181036000830152612f3581612ef9565b9050919050565b7f6465706f73697420697320746f6f206c6f770000000000000000000000000000600082015250565b6000612f72601283612c75565b9150612f7d82612f3c565b602082019050919050565b60006020820190508181036000830152612fa181612f65565b9050919050565b6000612fb3826122c0565b9150612fbe836122c0565b9250828202612fcc816122c0565b91508282048414831517612fe357612fe2612b5b565b5b5092915050565b7f4e487b7100000000000000000000000000000000000000000000000000000000600052601260045260246000fd5b6000613024826122c0565b915061302f836122c0565b92508261303f5761303e612fea565b5b828204905092915050565b7f6465706f73697420697320746f6f206869676800000000000000000000000000600082015250565b6000613080601383612c75565b915061308b8261304a565b602082019050919050565b600060208201905081810360008301526130af81613073565b9050919050565b50565b60006130c6600083612bf8565b91506130d1826130b6565b600082019050919050565b60006130e7826130b9565b9150819050919050565b60006040820190506131066000830185612512565b61311360208301846124bb565b9392505050565b7f72657175657374206e6f7420666f756e64000000000000000000000000000000600082015250565b6000613150601183612c75565b915061315b8261311a565b602082019050919050565b6000602082019050818103600083015261317f81613143565b9050919050565b600060408201905061319b6000830185612512565b81810360208301526131ad8184612a64565b90509392505050565b60006131c1826122c0565b91506131cc836122c0565b9250826131dc576131db612fea565b5b828206905092915050565b60006131f2826122c0565b91506131fd836122c0565b925082820190508082111561321557613214612b5b565b5b92915050565b600060039050919050565b600081905092915050565b6000819050919050565b6000602082019050919050565b6132518161321b565b61325b8184613226565b925061326682613231565b8060005b8381101561329757815161327e8782612a3f565b96506132898361323b565b92505060018101905061326a565b505050505050565b60006080820190506132b46000830185613248565b6132c16060830184612512565b939250505056fea264697066735822122046bf72f1d92c715ca43cbee20cdb920c7993f6757d21140919a7a36997c8811864736f6c63430008110033",
  "linkReferences": {},
  "deployedLinkReferences": {}
}