{
  "_format": "hh-sol-artifact-1",
  "contractName": "Slots",
  "sourceName": "contracts/Slot.sol",
  "abi": [
    {
      "inputs": [
        {
          "internalType": "uint64",
          "name": "subscriptionId",
          "type": "uint64"
        },
        {
          "internalType": "address",
          "name": "vfrCoordinator_",
          "type": "address"
        },
        {
          "internalType": "uint32",
          "name": "callBackGaslimit_",
          "type": "uint32"
        },
        {
          "internalType": "bytes32",
          "name": "keyHash_",
          "type": "bytes32"
        },
        {
          "internalType": "address",
          "name": "pool_",
          "type": "address"
        }
      ],
      "stateMutability": "nonpayable",
      "type": "constructor"
    },
    {
      "inputs": [
        {
          "internalType": "address",
          "name": "have",
          "type": "address"
        },
        {
          "internalType": "address",
          "name": "want",
          "type": "address"
        }
      ],
      "name": "OnlyCoordinatorCanFulfill",
      "type": "error"
    },
    {
      "anonymous": false,
      "inputs": [
        {
          "indexed": true,
          "internalType": "uint256",
          "name": "winAmount",
          "type": "uint256"
        },
        {
          "indexed": true,
          "internalType": "address",
          "name": "userAddress",
          "type": "address"
        },
        {
          "indexed": false,
          "internalType": "uint256",
          "name": "firstDigit",
          "type": "uint256"
        },
        {
          "indexed": false,
          "internalType": "uint256",
          "name": "secondDigit",
          "type": "uint256"
        },
        {
          "indexed": false,
          "internalType": "uint256",
          "name": "thirdDigit",
          "type": "uint256"
        },
        {
          "indexed": false,
          "internalType": "uint256",
          "name": "gameNumber",
          "type": "uint256"
        }
      ],
      "name": "GameResEvent",
      "type": "event"
    },
    {
      "anonymous": false,
      "inputs": [
        {
          "indexed": true,
          "internalType": "address",
          "name": "userAddress",
          "type": "address"
        },
        {
          "indexed": true,
          "internalType": "uint256",
          "name": "volumeOfGame",
          "type": "uint256"
        },
        {
          "indexed": true,
          "internalType": "uint256",
          "name": "numOfGames",
          "type": "uint256"
        }
      ],
      "name": "GameStartEvent",
      "type": "event"
    },
    {
      "anonymous": false,
      "inputs": [
        {
          "indexed": false,
          "internalType": "uint256",
          "name": "requestId",
          "type": "uint256"
        },
        {
          "indexed": false,
          "internalType": "uint256[]",
          "name": "randomWords",
          "type": "uint256[]"
        }
      ],
      "name": "RequestFulfilled",
      "type": "event"
    },
    {
      "anonymous": false,
      "inputs": [
        {
          "indexed": false,
          "internalType": "uint256",
          "name": "requestId",
          "type": "uint256"
        },
        {
          "indexed": false,
          "internalType": "uint32",
          "name": "numWords",
          "type": "uint32"
        }
      ],
      "name": "RequestSent",
      "type": "event"
    },
    {
      "inputs": [],
      "name": "callbackGasLimit",
      "outputs": [
        {
          "internalType": "uint32",
          "name": "",
          "type": "uint32"
        }
      ],
      "stateMutability": "view",
      "type": "function"
    },
    {
      "inputs": [
        {
          "internalType": "uint256",
          "name": "newMinValue",
          "type": "uint256"
        }
      ],
      "name": "changeMinValue",
      "outputs": [],
      "stateMutability": "nonpayable",
      "type": "function"
    },
    {
      "inputs": [
        {
          "internalType": "address",
          "name": "",
          "type": "address"
        },
        {
          "internalType": "uint256",
          "name": "",
          "type": "uint256"
        }
      ],
      "name": "gamesResult",
      "outputs": [
        {
          "internalType": "uint256",
          "name": "result",
          "type": "uint256"
        },
        {
          "internalType": "uint256",
          "name": "randNumber1",
          "type": "uint256"
        },
        {
          "internalType": "uint256",
          "name": "randNumber2",
          "type": "uint256"
        },
        {
          "internalType": "uint256",
          "name": "randNumber3",
          "type": "uint256"
        }
      ],
      "stateMutability": "view",
      "type": "function"
    },
    {
      "inputs": [
        {
          "internalType": "uint256",
          "name": "",
          "type": "uint256"
        }
      ],
      "name": "gamesStart",
      "outputs": [
        {
          "internalType": "address",
          "name": "player",
          "type": "address"
        },
        {
          "internalType": "uint256",
          "name": "deposit",
          "type": "uint256"
        },
        {
          "internalType": "uint256",
          "name": "numOfIterations",
          "type": "uint256"
        }
      ],
      "stateMutability": "view",
      "type": "function"
    },
    {
      "inputs": [
        {
          "internalType": "address",
          "name": "player",
          "type": "address"
        },
        {
          "internalType": "uint8",
          "name": "n",
          "type": "uint8"
        }
      ],
      "name": "getLastNPlayerGames",
      "outputs": [
        {
          "components": [
            {
              "internalType": "uint256",
              "name": "result",
              "type": "uint256"
            },
            {
              "internalType": "uint256",
              "name": "randNumber1",
              "type": "uint256"
            },
            {
              "internalType": "uint256",
              "name": "randNumber2",
              "type": "uint256"
            },
            {
              "internalType": "uint256",
              "name": "randNumber3",
              "type": "uint256"
            }
          ],
          "internalType": "struct Slots.GameRes[]",
          "name": "",
          "type": "tuple[]"
        }
      ],
      "stateMutability": "view",
      "type": "function"
    },
    {
      "inputs": [
        {
          "internalType": "address",
          "name": "player",
          "type": "address"
        }
      ],
      "name": "getLastPlayerGame",
      "outputs": [
        {
          "internalType": "uint256",
          "name": "",
          "type": "uint256"
        },
        {
          "internalType": "uint256",
          "name": "",
          "type": "uint256"
        },
        {
          "internalType": "uint256",
          "name": "",
          "type": "uint256"
        },
        {
          "internalType": "uint256",
          "name": "",
          "type": "uint256"
        }
      ],
      "stateMutability": "view",
      "type": "function"
    },
    {
      "inputs": [],
      "name": "getMyWinsTotal",
      "outputs": [
        {
          "internalType": "uint256",
          "name": "",
          "type": "uint256"
        }
      ],
      "stateMutability": "view",
      "type": "function"
    },
    {
      "inputs": [
        {
          "internalType": "uint256",
          "name": "_requestId",
          "type": "uint256"
        }
      ],
      "name": "getRequestStatus",
      "outputs": [
        {
          "internalType": "bool",
          "name": "fulfilled",
          "type": "bool"
        },
        {
          "internalType": "uint256[]",
          "name": "randomWords",
          "type": "uint256[]"
        }
      ],
      "stateMutability": "view",
      "type": "function"
    },
    {
      "inputs": [],
      "name": "keyHash",
      "outputs": [
        {
          "internalType": "bytes32",
          "name": "",
          "type": "bytes32"
        }
      ],
      "stateMutability": "view",
      "type": "function"
    },
    {
      "inputs": [],
      "name": "lastRequestId",
      "outputs": [
        {
          "internalType": "uint256",
          "name": "",
          "type": "uint256"
        }
      ],
      "stateMutability": "view",
      "type": "function"
    },
    {
      "inputs": [],
      "name": "minValue",
      "outputs": [
        {
          "internalType": "uint256",
          "name": "",
          "type": "uint256"
        }
      ],
      "stateMutability": "view",
      "type": "function"
    },
    {
      "inputs": [],
      "name": "owner",
      "outputs": [
        {
          "internalType": "address",
          "name": "",
          "type": "address"
        }
      ],
      "stateMutability": "view",
      "type": "function"
    },
    {
      "inputs": [],
      "name": "pause",
      "outputs": [
        {
          "internalType": "bool",
          "name": "",
          "type": "bool"
        }
      ],
      "stateMutability": "view",
      "type": "function"
    },
    {
      "inputs": [],
      "name": "pool",
      "outputs": [
        {
          "internalType": "address",
          "name": "",
          "type": "address"
        }
      ],
      "stateMutability": "view",
      "type": "function"
    },
    {
      "inputs": [
        {
          "internalType": "uint256",
          "name": "requestId",
          "type": "uint256"
        },
        {
          "internalType": "uint256[]",
          "name": "randomWords",
          "type": "uint256[]"
        }
      ],
      "name": "rawFulfillRandomWords",
      "outputs": [],
      "stateMutability": "nonpayable",
      "type": "function"
    },
    {
      "inputs": [
        {
          "internalType": "uint256",
          "name": "",
          "type": "uint256"
        }
      ],
      "name": "requestIds",
      "outputs": [
        {
          "internalType": "uint256",
          "name": "",
          "type": "uint256"
        }
      ],
      "stateMutability": "view",
      "type": "function"
    },
    {
      "inputs": [
        {
          "internalType": "uint256",
          "name": "",
          "type": "uint256"
        }
      ],
      "name": "s_requests",
      "outputs": [
        {
          "internalType": "bool",
          "name": "fulfilled",
          "type": "bool"
        },
        {
          "internalType": "bool",
          "name": "exists",
          "type": "bool"
        }
      ],
      "stateMutability": "view",
      "type": "function"
    },
    {
      "inputs": [],
      "name": "s_subscriptionId",
      "outputs": [
        {
          "internalType": "uint64",
          "name": "",
          "type": "uint64"
        }
      ],
      "stateMutability": "view",
      "type": "function"
    },
    {
      "inputs": [
        {
          "internalType": "uint32",
          "name": "newCallbackGasLimit",
          "type": "uint32"
        }
      ],
      "name": "setCallbackGasLimit",
      "outputs": [],
      "stateMutability": "nonpayable",
      "type": "function"
    },
    {
      "inputs": [
        {
          "internalType": "bool",
          "name": "pauseState",
          "type": "bool"
        }
      ],
      "name": "setPause",
      "outputs": [],
      "stateMutability": "nonpayable",
      "type": "function"
    },
    {
      "inputs": [
        {
          "internalType": "address",
          "name": "newPool",
          "type": "address"
        }
      ],
      "name": "setPoolAddress",
      "outputs": [],
      "stateMutability": "nonpayable",
      "type": "function"
    },
    {
      "inputs": [
        {
          "internalType": "uint16",
          "name": "newRequestConfirmations",
          "type": "uint16"
        }
      ],
      "name": "setRequestConfirmations",
      "outputs": [],
      "stateMutability": "nonpayable",
      "type": "function"
    },
    {
      "inputs": [
        {
          "internalType": "uint256",
          "name": "iter",
          "type": "uint256"
        }
      ],
      "name": "startRoll",
      "outputs": [
        {
          "internalType": "uint256",
          "name": "requestId",
          "type": "uint256"
        }
      ],
      "stateMutability": "payable",
      "type": "function"
    },
    {
      "inputs": [
        {
          "internalType": "uint256",
          "name": "iter",
          "type": "uint256"
        },
        {
          "internalType": "address",
          "name": "_referal",
          "type": "address"
        }
      ],
      "name": "startRoll_and_setReferal",
      "outputs": [],
      "stateMutability": "payable",
      "type": "function"
    },
    {
      "inputs": [],
      "name": "sumPlayersMoney",
      "outputs": [
        {
          "internalType": "uint256",
          "name": "",
          "type": "uint256"
        }
      ],
      "stateMutability": "view",
      "type": "function"
    },
    {
      "inputs": [
        {
          "internalType": "address",
          "name": "",
          "type": "address"
        }
      ],
      "name": "totalWinsOfPlayer",
      "outputs": [
        {
          "internalType": "uint256",
          "name": "",
          "type": "uint256"
        }
      ],
      "stateMutability": "view",
      "type": "function"
    }
  ],
  "bytecode": "0x60a06040523480156200001157600080fd5b506040516200369038038062003690833981810160405281019062000037919062000346565b838073ffffffffffffffffffffffffffffffffffffffff1660808173ffffffffffffffffffffffffffffffffffffffff16815250505033600260006101000a81548173ffffffffffffffffffffffffffffffffffffffff021916908373ffffffffffffffffffffffffffffffffffffffff16021790555081600d8190555082600b601c6101000a81548163ffffffff021916908363ffffffff16021790555083600860006101000a81548173ffffffffffffffffffffffffffffffffffffffff021916908373ffffffffffffffffffffffffffffffffffffffff16021790555084600b60006101000a81548167ffffffffffffffff021916908367ffffffffffffffff16021790555083600b60086101000a81548173ffffffffffffffffffffffffffffffffffffffff021916908373ffffffffffffffffffffffffffffffffffffffff16021790555080600360006101000a81548173ffffffffffffffffffffffffffffffffffffffff021916908373ffffffffffffffffffffffffffffffffffffffff1602179055506001600c60026101000a81548163ffffffff021916908363ffffffff1602179055506003600c60006101000a81548161ffff021916908361ffff16021790555066038d7ea4c680006000819055505050505050620003ce565b600080fd5b600067ffffffffffffffff82169050919050565b6200023f8162000220565b81146200024b57600080fd5b50565b6000815190506200025f8162000234565b92915050565b600073ffffffffffffffffffffffffffffffffffffffff82169050919050565b6000620002928262000265565b9050919050565b620002a48162000285565b8114620002b057600080fd5b50565b600081519050620002c48162000299565b92915050565b600063ffffffff82169050919050565b620002e581620002ca565b8114620002f157600080fd5b50565b6000815190506200030581620002da565b92915050565b6000819050919050565b62000320816200030b565b81146200032c57600080fd5b50565b600081519050620003408162000315565b92915050565b600080600080600060a086880312156200036557620003646200021b565b5b600062000375888289016200024e565b95505060206200038888828901620002b3565b94505060406200039b88828901620002f4565b9350506060620003ae888289016200032f565b9250506080620003c188828901620002b3565b9150509295509295909350565b60805161329f620003f16000396000818161069001526106e4015261329f6000f3fe6080604052600436106101815760003560e01c80638da5cb5b116100d1578063c168b3711161008a578063e81372cc11610064578063e81372cc146105a9578063e9e15b4f146105d4578063fc2a88c3146105fd578063fced6e701461062857610181565b8063c168b371146104fe578063cf1c1e6b1461052e578063d8a4676f1461056b57610181565b80638da5cb5b146103ed578063963e63c714610418578063a168fa8914610443578063a4eb718c14610481578063ba989c3e146104aa578063bedb86fb146104d557610181565b8063456cae181161013e5780638456cb59116101185780638456cb59146103315780638796ba8c1461035c5780638824f5a7146103995780638ac00021146103c257610181565b8063456cae18146102a057806356a00b93146102c957806361728f391461030657610181565b806316f0115b146101865780631fe543e3146101b157806324f74697146101da5780633bb31f3a146102055780633ceb735d1461024457806340f1268c14610284575b600080fd5b34801561019257600080fd5b5061019b610668565b6040516101a89190612249565b60405180910390f35b3480156101bd57600080fd5b506101d860048036038101906101d39190612407565b61068e565b005b3480156101e657600080fd5b506101ef61074e565b6040516101fc9190612482565b60405180910390f35b34801561021157600080fd5b5061022c6004803603810190610227919061249d565b610764565b60405161023b939291906124d9565b60405180910390f35b34801561025057600080fd5b5061026b6004803603810190610266919061253c565b6107ae565b60405161027b9493929190612569565b60405180910390f35b61029e600480360381019061029991906125ae565b6109a3565b005b3480156102ac57600080fd5b506102c760048036038101906102c2919061249d565b610ada565b005b3480156102d557600080fd5b506102f060048036038101906102eb9190612627565b610b74565b6040516102fd919061277a565b60405180910390f35b34801561031257600080fd5b5061031b610de5565b60405161032891906127b5565b60405180910390f35b34801561033d57600080fd5b50610346610deb565b60405161035391906127eb565b60405180910390f35b34801561036857600080fd5b50610383600480360381019061037e919061249d565b610dfe565b6040516103909190612806565b60405180910390f35b3480156103a557600080fd5b506103c060048036038101906103bb919061285b565b610e22565b005b3480156103ce57600080fd5b506103d7610ed2565b6040516103e491906128ab565b60405180910390f35b3480156103f957600080fd5b50610402610eec565b60405161040f9190612249565b60405180910390f35b34801561042457600080fd5b5061042d610f12565b60405161043a9190612806565b60405180910390f35b34801561044f57600080fd5b5061046a6004803603810190610465919061249d565b610f18565b6040516104789291906128c6565b60405180910390f35b34801561048d57600080fd5b506104a860048036038101906104a3919061291b565b610f56565b005b3480156104b657600080fd5b506104bf61100a565b6040516104cc9190612806565b60405180910390f35b3480156104e157600080fd5b506104fc60048036038101906104f79190612974565b611010565b005b6105186004803603810190610513919061249d565b6110bd565b6040516105259190612806565b60405180910390f35b34801561053a57600080fd5b506105556004803603810190610550919061253c565b61162a565b6040516105629190612806565b60405180910390f35b34801561057757600080fd5b50610592600480360381019061058d919061249d565b611642565b6040516105a0929190612a50565b60405180910390f35b3480156105b557600080fd5b506105be61176d565b6040516105cb9190612806565b60405180910390f35b3480156105e057600080fd5b506105fb60048036038101906105f6919061253c565b6117b4565b005b34801561060957600080fd5b50610612611888565b60405161061f9190612806565b60405180910390f35b34801561063457600080fd5b5061064f600480360381019061064a9190612a80565b61188e565b60405161065f9493929190612569565b60405180910390f35b600360009054906101000a900473ffffffffffffffffffffffffffffffffffffffff1681565b7f000000000000000000000000000000000000000000000000000000000000000073ffffffffffffffffffffffffffffffffffffffff163373ffffffffffffffffffffffffffffffffffffffff161461074057337f00000000000000000000000000000000000000000000000000000000000000006040517f1cf993f4000000000000000000000000000000000000000000000000000000008152600401610737929190612ac0565b60405180910390fd5b61074a82826118db565b5050565b600b601c9054906101000a900463ffffffff1681565b60056020528060005260406000206000915090508060000160009054906101000a900473ffffffffffffffffffffffffffffffffffffffff16908060010154908060020154905083565b60008060008060006001600660008873ffffffffffffffffffffffffffffffffffffffff1673ffffffffffffffffffffffffffffffffffffffff168152602001908152602001600020805490506108059190612b18565b9050600660008773ffffffffffffffffffffffffffffffffffffffff1673ffffffffffffffffffffffffffffffffffffffff168152602001908152602001600020818154811061085857610857612b4c565b5b906000526020600020906004020160000154600660008873ffffffffffffffffffffffffffffffffffffffff1673ffffffffffffffffffffffffffffffffffffffff16815260200190815260200160002082815481106108bb576108ba612b4c565b5b906000526020600020906004020160010154600660008973ffffffffffffffffffffffffffffffffffffffff1673ffffffffffffffffffffffffffffffffffffffff168152602001908152602001600020838154811061091e5761091d612b4c565b5b906000526020600020906004020160020154600660008a73ffffffffffffffffffffffffffffffffffffffff1673ffffffffffffffffffffffffffffffffffffffff168152602001908152602001600020848154811061098157610980612b4c565b5b9060005260206000209060040201600301549450945094509450509193509193565b6000600360009054906101000a900473ffffffffffffffffffffffffffffffffffffffff1673ffffffffffffffffffffffffffffffffffffffff1682336040516024016109f1929190612ac0565b6040516020818303038152906040527f17dedeb6000000000000000000000000000000000000000000000000000000007bffffffffffffffffffffffffffffffffffffffffffffffffffffffff19166020820180517bffffffffffffffffffffffffffffffffffffffffffffffffffffffff8381831617835250505050604051610a7b9190612bf5565b6000604051808303816000865af19150503d8060008114610ab8576040519150601f19603f3d011682016040523d82523d6000602084013e610abd565b606091505b5050905080610acb57600080fd5b610ad4836110bd565b50505050565b600260009054906101000a900473ffffffffffffffffffffffffffffffffffffffff1673ffffffffffffffffffffffffffffffffffffffff163373ffffffffffffffffffffffffffffffffffffffff1614610b6a576040517f08c379a0000000000000000000000000000000000000000000000000000000008152600401610b6190612c69565b60405180910390fd5b8060008190555050565b60608160ff16600660008573ffffffffffffffffffffffffffffffffffffffff1673ffffffffffffffffffffffffffffffffffffffff168152602001908152602001600020805490501015610bfe576040517f08c379a0000000000000000000000000000000000000000000000000000000008152600401610bf590612cd5565b60405180910390fd5b60008260ff1667ffffffffffffffff811115610c1d57610c1c6122c4565b5b604051908082528060200260200182016040528015610c5657816020015b610c43612176565b815260200190600190039081610c3b5790505b5090506000808460ff16600660008873ffffffffffffffffffffffffffffffffffffffff1673ffffffffffffffffffffffffffffffffffffffff16815260200190815260200160002080549050610cad9190612b18565b90505b6001600660008873ffffffffffffffffffffffffffffffffffffffff1673ffffffffffffffffffffffffffffffffffffffff16815260200190815260200160002080549050610cff9190612b18565b8111610dd957600660008773ffffffffffffffffffffffffffffffffffffffff1673ffffffffffffffffffffffffffffffffffffffff1681526020019081526020016000208181548110610d5657610d55612b4c565b5b9060005260206000209060040201604051806080016040529081600082015481526020016001820154815260200160028201548152602001600382015481525050838360ff1681518110610dad57610dac612b4c565b5b60200260200101819052508180610dc390612cf5565b9250508080610dd190612d1f565b915050610cb0565b50819250505092915050565b600d5481565b600360149054906101000a900460ff1681565b60098181548110610e0e57600080fd5b906000526020600020016000915090505481565b600260009054906101000a900473ffffffffffffffffffffffffffffffffffffffff1673ffffffffffffffffffffffffffffffffffffffff163373ffffffffffffffffffffffffffffffffffffffff1614610eb2576040517f08c379a0000000000000000000000000000000000000000000000000000000008152600401610ea990612c69565b60405180910390fd5b80600c60006101000a81548161ffff021916908361ffff16021790555050565b600b60009054906101000a900467ffffffffffffffff1681565b600260009054906101000a900473ffffffffffffffffffffffffffffffffffffffff1681565b60005481565b60076020528060005260406000206000915090508060000160009054906101000a900460ff16908060000160019054906101000a900460ff16905082565b600260009054906101000a900473ffffffffffffffffffffffffffffffffffffffff1673ffffffffffffffffffffffffffffffffffffffff163373ffffffffffffffffffffffffffffffffffffffff1614610fe6576040517f08c379a0000000000000000000000000000000000000000000000000000000008152600401610fdd90612c69565b60405180910390fd5b80600b601c6101000a81548163ffffffff021916908363ffffffff16021790555050565b60015481565b600260009054906101000a900473ffffffffffffffffffffffffffffffffffffffff1673ffffffffffffffffffffffffffffffffffffffff163373ffffffffffffffffffffffffffffffffffffffff16146110a0576040517f08c379a000000000000000000000000000000000000000000000000000000000815260040161109790612c69565b60405180910390fd5b80600360146101000a81548160ff02191690831515021790555050565b6000600860009054906101000a900473ffffffffffffffffffffffffffffffffffffffff1673ffffffffffffffffffffffffffffffffffffffff16635d3b1d30600d54600b60009054906101000a900467ffffffffffffffff16600c60009054906101000a900461ffff16600b601c9054906101000a900463ffffffff16600c60029054906101000a900463ffffffff166040518663ffffffff1660e01b815260040161116e959493929190612d77565b602060405180830381600087803b15801561118857600080fd5b505af115801561119c573d6000803e3d6000fd5b505050506040513d601f19601f820116820180604052508101906111c09190612ddf565b905060018214806111d15750600282145b806111dc5750600582145b806111e75750600a82145b611226576040517f08c379a000000000000000000000000000000000000000000000000000000000815260040161121d90612e58565b60405180910390fd5b600360149054906101000a900460ff1615611276576040517f08c379a000000000000000000000000000000000000000000000000000000000815260040161126d90612ec4565b60405180910390fd5b60005434116112ba576040517f08c379a00000000000000000000000000000000000000000000000000000000081526004016112b190612f30565b60405180910390fd5b60056064600360009054906101000a900473ffffffffffffffffffffffffffffffffffffffff1673ffffffffffffffffffffffffffffffffffffffff16316113029190612f7f565b61130c9190612fb0565b341061134d576040517f08c379a000000000000000000000000000000000000000000000000000000000815260040161134490613056565b60405180910390fd5b6040518060600160405280600015158152602001600115158152602001600067ffffffffffffffff811115611385576113846122c4565b5b6040519080825280602002602001820160405280156113b35781602001602082028036833780820191505090505b508152506007600083815260200190815260200160002060008201518160000160006101000a81548160ff02191690831515021790555060208201518160000160016101000a81548160ff021916908315150217905550604082015181600101908051906020019061142692919061219e565b50905050600981908060018154018082558091505060019003906000526020600020016000909190919091505580600a819055506000600360009054906101000a900473ffffffffffffffffffffffffffffffffffffffff1673ffffffffffffffffffffffffffffffffffffffff16346040516114a29061309c565b60006040518083038185875af1925050503d80600081146114df576040519150601f19603f3d011682016040523d82523d6000602084013e6114e4565b606091505b50509050806114f257600080fd5b7fcc58b13ad3eab50626c6a6300b1d139cd6ebb1688a7cced9461c2f7e762665ee82600c60029054906101000a900463ffffffff166040516115359291906130b1565b60405180910390a160405180606001604052803373ffffffffffffffffffffffffffffffffffffffff168152602001348152602001848152506005600084815260200190815260200160002060008201518160000160006101000a81548173ffffffffffffffffffffffffffffffffffffffff021916908373ffffffffffffffffffffffffffffffffffffffff160217905550602082015181600101556040820151816002015590505082343373ffffffffffffffffffffffffffffffffffffffff167ffe3a80d632fd070028c65fb971966358bba3127f30b9743bad14732e996d46db60405160405180910390a450919050565b60046020528060005260406000206000915090505481565b600060606007600084815260200190815260200160002060000160019054906101000a900460ff166116a9576040517f08c379a00000000000000000000000000000000000000000000000000000000081526004016116a090613126565b60405180910390fd5b6000600760008581526020019081526020016000206040518060600160405290816000820160009054906101000a900460ff161515151581526020016000820160019054906101000a900460ff161515151581526020016001820180548060200260200160405190810160405280929190818152602001828054801561174e57602002820191906000526020600020905b81548152602001906001019080831161173a575b5050505050815250509050806000015181604001519250925050915091565b6000600460003373ffffffffffffffffffffffffffffffffffffffff1673ffffffffffffffffffffffffffffffffffffffff16815260200190815260200160002054905090565b600260009054906101000a900473ffffffffffffffffffffffffffffffffffffffff1673ffffffffffffffffffffffffffffffffffffffff163373ffffffffffffffffffffffffffffffffffffffff1614611844576040517f08c379a000000000000000000000000000000000000000000000000000000000815260040161183b90612c69565b60405180910390fd5b80600360006101000a81548173ffffffffffffffffffffffffffffffffffffffff021916908373ffffffffffffffffffffffffffffffffffffffff16021790555050565b600a5481565b600660205281600052604060002081815481106118aa57600080fd5b9060005260206000209060040201600091509150508060000154908060010154908060020154908060030154905084565b3373ffffffffffffffffffffffffffffffffffffffff16600b60089054906101000a900473ffffffffffffffffffffffffffffffffffffffff1673ffffffffffffffffffffffffffffffffffffffff161461196b576040517f08c379a000000000000000000000000000000000000000000000000000000000815260040161196290613192565b60405180910390fd5b6007600083815260200190815260200160002060000160019054906101000a900460ff166119ce576040517f08c379a00000000000000000000000000000000000000000000000000000000081526004016119c590613126565b60405180910390fd5b60016007600084815260200190815260200160002060000160006101000a81548160ff02191690831515021790555080600760008481526020019081526020016000206001019080519060200190611a2792919061219e565b507ffe2e2d779dba245964d4e3ef9b994be63856fd568bf7d3ca9e224755cb1bd54d8282604051611a599291906131b2565b60405180910390a160008060005b6005600086815260200190815260200160002060020154811015611bc2576000611b2086600687600081518110611aa157611aa0612b4c565b5b6020026020010151611ab391906131e2565b6006600a89600081518110611acb57611aca612b4c565b5b6020026020010151611add9190612f7f565b611ae791906131e2565b600660648a600081518110611aff57611afe612b4c565b5b6020026020010151611b119190612f7f565b611b1b91906131e2565b611d2a565b905060008111611b5457600560008781526020019081526020016000206001015483611b4c9190613213565b925082611b64565b8084611b609190613213565b9350835b506103e885600081518110611b7c57611b7b612b4c565b5b6020026020010151611b8e9190612f7f565b85600081518110611ba257611ba1612b4c565b5b602002602001018181525050508080611bba90612d1f565b915050611a67565b506000600360009054906101000a900473ffffffffffffffffffffffffffffffffffffffff1673ffffffffffffffffffffffffffffffffffffffff166005600087815260200190815260200160002060000160009054906101000a900473ffffffffffffffffffffffffffffffffffffffff168484604051602401611c49939291906124d9565b6040516020818303038152906040527f67df93f2000000000000000000000000000000000000000000000000000000007bffffffffffffffffffffffffffffffffffffffffffffffffffffffff19166020820180517bffffffffffffffffffffffffffffffffffffffffffffffffffffffff8381831617835250505050604051611cd39190612bf5565b6000604051808303816000865af19150503d8060008114611d10576040519150601f19603f3d011682016040523d82523d6000602084013e611d15565b606091505b5050905080611d2357600080fd5b5050505050565b600080611d70858585600560008b815260200190815260200160002060020154600560008c815260200190815260200160002060010154611d6b9190612f7f565b611fff565b905060008114611e07578060046000600560008a815260200190815260200160002060000160009054906101000a900473ffffffffffffffffffffffffffffffffffffffff1673ffffffffffffffffffffffffffffffffffffffff1673ffffffffffffffffffffffffffffffffffffffff1681526020019081526020016000206000828254611dff9190613213565b925050819055505b600660006005600089815260200190815260200160002060000160009054906101000a900473ffffffffffffffffffffffffffffffffffffffff1673ffffffffffffffffffffffffffffffffffffffff1673ffffffffffffffffffffffffffffffffffffffff16815260200190815260200160002060405180608001604052808381526020018781526020018681526020018581525090806001815401808255809150506001900390600052602060002090600402016000909190919091506000820151816000015560208201518160010155604082015181600201556060820151816003015550506005600087815260200190815260200160002060000160009054906101000a900473ffffffffffffffffffffffffffffffffffffffff1673ffffffffffffffffffffffffffffffffffffffff16817f7110b84da46775940d1201141fa67916e56e97afa78b985bdd5daf8a58508e6d87878760066000600560008f815260200190815260200160002060000160009054906101000a900473ffffffffffffffffffffffffffffffffffffffff1673ffffffffffffffffffffffffffffffffffffffff1673ffffffffffffffffffffffffffffffffffffffff16815260200190815260200160002080549050604051611feb9493929190612569565b60405180910390a380915050949350505050565b60006005851480156120115750600584145b801561201d5750600583145b8061204057506000851480156120335750600084145b801561203f5750600083145b5b15612059576005826120529190612fb0565b905061216e565b6004851480156120695750600484145b80156120755750600483145b1561208e576003826120879190612fb0565b905061216e565b60038514801561209e5750600384145b80156120aa5750600383145b156120c3576003826120bc9190612fb0565b905061216e565b6002851480156120d35750600284145b80156120df5750600283145b156120f8576003826120f19190612fb0565b905061216e565b6001851480156121085750600184145b80156121145750600183145b1561212d576003826121269190612fb0565b905061216e565b8385148061213a57508285145b8061214457508284145b1561216957600a6011836121589190612fb0565b6121629190612f7f565b905061216e565b600090505b949350505050565b6040518060800160405280600081526020016000815260200160008152602001600081525090565b8280548282559060005260206000209081019282156121da579160200282015b828111156121d95782518255916020019190600101906121be565b5b5090506121e791906121eb565b5090565b5b808211156122045760008160009055506001016121ec565b5090565b600073ffffffffffffffffffffffffffffffffffffffff82169050919050565b600061223382612208565b9050919050565b61224381612228565b82525050565b600060208201905061225e600083018461223a565b92915050565b6000604051905090565b600080fd5b600080fd5b6000819050919050565b61228b81612278565b811461229657600080fd5b50565b6000813590506122a881612282565b92915050565b600080fd5b6000601f19601f8301169050919050565b7f4e487b7100000000000000000000000000000000000000000000000000000000600052604160045260246000fd5b6122fc826122b3565b810181811067ffffffffffffffff8211171561231b5761231a6122c4565b5b80604052505050565b600061232e612264565b905061233a82826122f3565b919050565b600067ffffffffffffffff82111561235a576123596122c4565b5b602082029050602081019050919050565b600080fd5b600061238361237e8461233f565b612324565b905080838252602082019050602084028301858111156123a6576123a561236b565b5b835b818110156123cf57806123bb8882612299565b8452602084019350506020810190506123a8565b5050509392505050565b600082601f8301126123ee576123ed6122ae565b5b81356123fe848260208601612370565b91505092915050565b6000806040838503121561241e5761241d61226e565b5b600061242c85828601612299565b925050602083013567ffffffffffffffff81111561244d5761244c612273565b5b612459858286016123d9565b9150509250929050565b600063ffffffff82169050919050565b61247c81612463565b82525050565b60006020820190506124976000830184612473565b92915050565b6000602082840312156124b3576124b261226e565b5b60006124c184828501612299565b91505092915050565b6124d381612278565b82525050565b60006060820190506124ee600083018661223a565b6124fb60208301856124ca565b61250860408301846124ca565b949350505050565b61251981612228565b811461252457600080fd5b50565b60008135905061253681612510565b92915050565b6000602082840312156125525761255161226e565b5b600061256084828501612527565b91505092915050565b600060808201905061257e60008301876124ca565b61258b60208301866124ca565b61259860408301856124ca565b6125a560608301846124ca565b95945050505050565b600080604083850312156125c5576125c461226e565b5b60006125d385828601612299565b92505060206125e485828601612527565b9150509250929050565b600060ff82169050919050565b612604816125ee565b811461260f57600080fd5b50565b600081359050612621816125fb565b92915050565b6000806040838503121561263e5761263d61226e565b5b600061264c85828601612527565b925050602061265d85828601612612565b9150509250929050565b600081519050919050565b600082825260208201905092915050565b6000819050602082019050919050565b61269c81612278565b82525050565b6080820160008201516126b86000850182612693565b5060208201516126cb6020850182612693565b5060408201516126de6040850182612693565b5060608201516126f16060850182612693565b50505050565b600061270383836126a2565b60808301905092915050565b6000602082019050919050565b600061272782612667565b6127318185612672565b935061273c83612683565b8060005b8381101561276d57815161275488826126f7565b975061275f8361270f565b925050600181019050612740565b5085935050505092915050565b60006020820190508181036000830152612794818461271c565b905092915050565b6000819050919050565b6127af8161279c565b82525050565b60006020820190506127ca60008301846127a6565b92915050565b60008115159050919050565b6127e5816127d0565b82525050565b600060208201905061280060008301846127dc565b92915050565b600060208201905061281b60008301846124ca565b92915050565b600061ffff82169050919050565b61283881612821565b811461284357600080fd5b50565b6000813590506128558161282f565b92915050565b6000602082840312156128715761287061226e565b5b600061287f84828501612846565b91505092915050565b600067ffffffffffffffff82169050919050565b6128a581612888565b82525050565b60006020820190506128c0600083018461289c565b92915050565b60006040820190506128db60008301856127dc565b6128e860208301846127dc565b9392505050565b6128f881612463565b811461290357600080fd5b50565b600081359050612915816128ef565b92915050565b6000602082840312156129315761293061226e565b5b600061293f84828501612906565b91505092915050565b612951816127d0565b811461295c57600080fd5b50565b60008135905061296e81612948565b92915050565b60006020828403121561298a5761298961226e565b5b60006129988482850161295f565b91505092915050565b600081519050919050565b600082825260208201905092915050565b6000819050602082019050919050565b60006129d98383612693565b60208301905092915050565b6000602082019050919050565b60006129fd826129a1565b612a0781856129ac565b9350612a12836129bd565b8060005b83811015612a43578151612a2a88826129cd565b9750612a35836129e5565b925050600181019050612a16565b5085935050505092915050565b6000604082019050612a6560008301856127dc565b8181036020830152612a7781846129f2565b90509392505050565b60008060408385031215612a9757612a9661226e565b5b6000612aa585828601612527565b9250506020612ab685828601612299565b9150509250929050565b6000604082019050612ad5600083018561223a565b612ae2602083018461223a565b9392505050565b7f4e487b7100000000000000000000000000000000000000000000000000000000600052601160045260246000fd5b6000612b2382612278565b9150612b2e83612278565b925082821015612b4157612b40612ae9565b5b828203905092915050565b7f4e487b7100000000000000000000000000000000000000000000000000000000600052603260045260246000fd5b600081519050919050565b600081905092915050565b60005b83811015612baf578082015181840152602081019050612b94565b83811115612bbe576000848401525b50505050565b6000612bcf82612b7b565b612bd98185612b86565b9350612be9818560208601612b91565b80840191505092915050565b6000612c018284612bc4565b915081905092915050565b600082825260208201905092915050565b7f6f6e6c79206f776e657200000000000000000000000000000000000000000000600082015250565b6000612c53600a83612c0c565b9150612c5e82612c1d565b602082019050919050565b60006020820190508181036000830152612c8281612c46565b9050919050565b7f4f7574206f66206c696d69747300000000000000000000000000000000000000600082015250565b6000612cbf600d83612c0c565b9150612cca82612c89565b602082019050919050565b60006020820190508181036000830152612cee81612cb2565b9050919050565b6000612d00826125ee565b915060ff821415612d1457612d13612ae9565b5b600182019050919050565b6000612d2a82612278565b91507fffffffffffffffffffffffffffffffffffffffffffffffffffffffffffffffff821415612d5d57612d5c612ae9565b5b600182019050919050565b612d7181612821565b82525050565b600060a082019050612d8c60008301886127a6565b612d99602083018761289c565b612da66040830186612d68565b612db36060830185612473565b612dc06080830184612473565b9695505050505050565b600081519050612dd981612282565b92915050565b600060208284031215612df557612df461226e565b5b6000612e0384828501612dca565b91505092915050565b7f69746572206f7574206f66206c696d6974000000000000000000000000000000600082015250565b6000612e42601183612c0c565b9150612e4d82612e0c565b602082019050919050565b60006020820190508181036000830152612e7181612e35565b9050919050565b7f636f6e7472616374206973207061757365640000000000000000000000000000600082015250565b6000612eae601283612c0c565b9150612eb982612e78565b602082019050919050565b60006020820190508181036000830152612edd81612ea1565b9050919050565b7f6465706f73697420697320746f6f206c6f770000000000000000000000000000600082015250565b6000612f1a601283612c0c565b9150612f2582612ee4565b602082019050919050565b60006020820190508181036000830152612f4981612f0d565b9050919050565b7f4e487b7100000000000000000000000000000000000000000000000000000000600052601260045260246000fd5b6000612f8a82612278565b9150612f9583612278565b925082612fa557612fa4612f50565b5b828204905092915050565b6000612fbb82612278565b9150612fc683612278565b9250817fffffffffffffffffffffffffffffffffffffffffffffffffffffffffffffffff0483118215151615612fff57612ffe612ae9565b5b828202905092915050565b7f6465706f73697420697320746f6f206869676800000000000000000000000000600082015250565b6000613040601383612c0c565b915061304b8261300a565b602082019050919050565b6000602082019050818103600083015261306f81613033565b9050919050565b50565b6000613086600083612b86565b915061309182613076565b600082019050919050565b60006130a782613079565b9150819050919050565b60006040820190506130c660008301856124ca565b6130d36020830184612473565b9392505050565b7f72657175657374206e6f7420666f756e64000000000000000000000000000000600082015250565b6000613110601183612c0c565b915061311b826130da565b602082019050919050565b6000602082019050818103600083015261313f81613103565b9050919050565b7f596f7520617265206e6f7420616c6c6f77656400000000000000000000000000600082015250565b600061317c601383612c0c565b915061318782613146565b602082019050919050565b600060208201905081810360008301526131ab8161316f565b9050919050565b60006040820190506131c760008301856124ca565b81810360208301526131d981846129f2565b90509392505050565b60006131ed82612278565b91506131f883612278565b92508261320857613207612f50565b5b828206905092915050565b600061321e82612278565b915061322983612278565b9250827fffffffffffffffffffffffffffffffffffffffffffffffffffffffffffffffff0382111561325e5761325d612ae9565b5b82820190509291505056fea2646970667358221220fdba1dc6290a9c6de8c70cd26d33eac78919dc2722c29035924a5d20918480ad64736f6c63430008090033",
  "linkReferences": {},
  "deployedLinkReferences": {}
}